:10000000022EB8008F828E83E0540100000070F849
:100010002278FFE4F6D8FD022F839000A9E4F09047
:1000200000AAE4F09000ABE4F09000AFE4F07F01B0
:100030001227CB1235BB9000A8EFF09000A9E0FF8B
:10004000EF600302098A9000A8E0FFEF64FF7045AB
:100050009000FEE4F09000A8E0FF9000FEE0FE7447
:10006000072EF582E43401F583EFF09000FEE00402
:10007000F09000A97401F09000AE7402F07BFF7A5A
:10008000417945123917124230EF30E103020A0E6E
:1000900080F4020A0E9000A8E0FFEF7010123C35C9
:1000A0009000AAE4F09000A9E4F0020A0E9000A8E3
:1000B000E0FFEF640170617BFF7A41794A123917E2
:1000C000124230EF30E1F97BFF7A41794A12391759
:1000D000124230EF30E1F97BFF7A41794A12391749
:1000E000124230EF30E1F97BFF7A41794C12391737
:1000F000124230EF30E1F9900127E0FF1237F4129D
:100100004230EF30E1F9900127E4F09000AAE4F0EA
:100110009000A9E4F0020A0E9000A8E0FFEF64F25C
:10012000706C9000FEE4F09000FEE0FFEFD39408C6
:1001300050199000FEE0FF74072FF582E43401F5BA
:1001400083E4F09000FEE004F080DC9000FEE4F038
:100150009000A8E0FF9000FEE0FE74072EF582E418
:100160003401F583EFF09000FEE0FF74072FF58275
:10017000E43401F583E0FF900129EFF07F011227BD
:10018000A49000AAE4F09000A9E4F0020A0E900006
:10019000A8E0FFEF6403706C9000FEE4F09000FEB6
:1001A000E0FFEFD3940850199000FEE0FF74072F92
:1001B000F582E43401F583E4F09000FEE004F08081
:1001C000DC9000FEE4F09000A8E0FF9000FEE0FE6E
:1001D00074072EF582E43401F583EFF09000FEE021
:1001E000FF74072FF582E43401F583E0FF900129C5
:1001F000EFF07F011227A49000AAE4F09000A9E498
:10020000F0020A0E9000A8E0FFEF6406706C900008
:10021000FEE4F09000FEE0FFEFD394085019900048
:10022000FEE0FF74072FF582E43401F583E4F090DB
:1002300000FEE004F080DC9000FEE4F09000A8E016
:10024000FF9000FEE0FE74072EF582E43401F58392
:10025000EFF09000FEE0FF74072FF582E43401F523
:1002600083E0FF900129EFF07F011227A49000AAFC
:10027000E4F09000A9E4F0020A0E9000A8E0FFEF7D
:100280006408702C7BFF7A4179451239171242308D
:10029000EF30E1F9123C357F271237F4124230EF8C
:1002A00030E1F99000AAE4F09000A9E4F0020A0E0F
:1002B0009000A8E0FFEF64D070387BFF7A41794569
:1002C000123917124230EF30E1F9123C357F031238
:1002D00037F4124230EF30E1F97F011237F4124265
:1002E00030EF30E1F99000AAE4F09000A9E4F002C8
:1002F0000A0E9000A8E0FFEF640970459000FEE44C
:10030000F09000A8E0FF9000FEE0FE74072EF5825A
:10031000E43401F583EFF09000FEE004F09000A9D2
:100320007402F09000AE7403F07BFF7A41794512BD
:100330003917124230EF30E103020A0E80F4020A4C
:100340000E9000A8E0FFEF640A70439000FEE4F016
:100350009000A8E0FF9000FEE0FE74072EF582E416
:100360003401F583EFF09000FEE0FF74072FF58273
:10037000E43401F583E0FF900129EFF07F011227BB
:10038000A49000AAE4F09000A9E4F0020A0E900004
:10039000A8E0FFEF640B70459000FEE4F09000A829
:1003A000E0FF9000FEE0FE74072EF582E43401F5D4
:1003B00083EFF09000FEE004F09000A97401F0904B
:1003C00000AE7402F07BFF7A417945123917124270
:1003D00030EF30E103020A0E80F4020A0E9000A80A
:1003E000E0FFEF640C70459000FEE4F09000A8E0A0
:1003F000FF9000FEE0FE74072EF582E43401F583E1
:10040000EFF09000FEE004F09000A97401F090007D
:10041000AE7402F07BFF7A417945123917124230EF
:10042000EF30E103020A0E80F4020A0E9000A8E009
:10043000FFEF6410706C9000FEE4F09000FEE0FFAF
:10044000EFD3940850199000FEE0FF74072FF58257
:10045000E43401F583E4F09000FEE004F080DC90E9
:1004600000FEE4F09000A8E0FF9000FEE0FE7407BC
:100470002EF582E43401F583EFF09000FEE0FF7486
:10048000072FF582E43401F583E0FF900129EFF0B6
:100490007F011227A49000AAE4F09000A9E4F002E2
:1004A0000A0E9000A8E0FFEF6411706C9000FEE46B
:1004B000F09000FEE0FFEFD3940850199000FEE0AA
:1004C000FF74072FF582E43401F583E4F09000FE19
:1004D000E004F080DC9000FEE4F09000A8E0FF90E3
:1004E00000FEE0FE74072EF582E43401F583EFF0A0
:1004F0009000FEE0FF74072FF582E43401F583E0FD
:10050000FF900129EFF07F011227A49000AAE4F0E8
:100510009000A9E4F0020A0E9000A8E0FFEF641832
:1005200060030205B7905101E0FF900105EFF090E4
:100530000105E0FFEFF4FF900105EFF0900105E009
:10054000FFEF5488FF900105EFF0900105E0FFEF09
:10055000131313541FFF900105EFF07BFF7A4179CD
:100560004A123917124230EF30E1F97BFF7A4179B4
:100570004A123917124230EF30E1F97BFF7A4179A4
:100580004A123917124230EF30E1F97BFF7A417994
:100590004C123917124230EF30E1F9900105E0FFBB
:1005A0001237F4124230EF30E1F99000AAE4F090F3
:1005B00000A9E4F0020A0E9000A8E0FFEF641C70AE
:1005C000459000FEE4F09000A8E0FF9000FEE0FE01
:1005D00074072EF582E43401F583EFF09000FEE01D
:1005E00004F09000A97401F09000AE7402F07BFF5B
:1005F0007A417945123917124230EF30E103020A8D
:100600000E80F4020A0E9000A8E0FFEF6440706CC8
:100610009000FEE4F09000FEE0FFEFD39408501944
:100620009000FEE0FF74072FF582E43401F583E4C7
:10063000F09000FEE004F080DC9000FEE4F090001A
:10064000A8E0FF9000FEE0FE74072EF582E434017E
:10065000F583EFF09000FEE0FF74072FF582E4349D
:1006600001F583E0FF900129EFF07F011227A490AC
:1006700000AAE4F09000A9E4F0020A0E9000A8E0BD
:10068000FFEF6445706C9000FEE4F09000FEE0FF28
:10069000EFD3940850199000FEE0FF74072FF58205
:1006A000E43401F583E4F09000FEE004F080DC9097
:1006B00000FEE4F09000A8E0FF9000FEE0FE74076A
:1006C0002EF582E43401F583EFF09000FEE0FF7434
:1006D000072FF582E43401F583E0FF900129EFF064
:1006E0007F011227A49000AAE4F09000A9E4F00290
:1006F0000A0E9000A8E0FFEF644670679000FEE4E9
:10070000F09000FEE0FFEFD3940850199000FEE057
:10071000FF74072FF582E43401F583E4F09000FEC6
:10072000E004F080DC9000FEE4F09000A8E0FF9090
:1007300000FEE0FE74072EF582E43401F583EFF04D
:100740009000FEE0FF74072FF582E43401F583E0AA
:10075000FF900129EFF09000AAE4F09000A9E4F0E6
:10076000020A0E9000A8E0FFEF645070459000FE72
:10077000E4F09000A8E0FF9000FEE0FE74072EF584
:1007800082E43401F583EFF09000FEE004F0900085
:10079000A97401F09000AE7402F07BFF7A417945B4
:1007A000123917124230EF30E103020A0E80F402D0
:1007B0000A0E9000A8E0FFEF645170459000FEE43F
:1007C000F09000A8E0FF9000FEE0FE74072EF58296
:1007D000E43401F583EFF09000FEE004F09000A90E
:1007E0007401F09000AE7402F07BFF7A41794512FB
:1007F0003917124230EF30E103020A0E80F4020A88
:100800000E9000A8E0FFEF6455702F7BFF7A4179CE
:1008100045123917124230EF30E1F9123C359000A1
:10082000A8E0FF1237F4124230EF30E1F99000AA4D
:10083000E4F09000A9E4F0020A0E9000A8E0FFEFB7
:10084000B40D289000AAE4F09000A9E4F090010310
:100850007401F07BFF7A417945123917124230EF6B
:1008600030E1F97F011227A4020A0E9000A8E0FFF0
:10087000EF64DE706E9000FEE4F09000FEE0FFEFAB
:10088000D3940850199000FEE0FF74072FF582E41E
:100890003401F583E4F09000FEE004F080DC900089
:1008A000FEE4F09000A8E0FF9000FEE0FE74072E4A
:1008B000F582E43401F583EFF09000FEE004F0905F
:1008C00000A97402F09000AE7403F07BFF7A4179C6
:1008D00045123917124230EF30E103020A0E80F45C
:1008E000020A0E9000A8E0FFEF64DD70527BFF7AF1
:1008F000417945123917124230EF30E1F99000CFBB
:10090000E0FEA3E0FFEEFF7E00900106EFF0123C58
:1009100035900106E0FF1237F4124230EF30E1F972
:100920009000CFE0FEA3E0FF1237F4124230EF3028
:10093000E1F99000AAE4F09000A9E4F0020A0E9018
:1009400000FEE4F09000FEE0FFEFD3941F501990FA
:1009500000FEE0FF74072FF582E43401F583E4F034
:100960009000FEE004F080DC9000A9E4F09000AA82
:10097000E4F07BFF7A41794E123917124230EF30A2
:10098000E103020A0E80F4020A0E9000A9E0FFEFD4
:10099000607C9000A8E0FF9000FEE0FE74072EF55A
:1009A00082E43401F583EFF09000FEE004F0900063
:1009B000A9E014F09000A9E0FFEF704D9000AA7438
:1009C00001F0900107E0FFEFB4DE439000CFE4F0C8
:1009D000A3E4F0900108E0FF7E009000CFEE8FF0DE
:1009E0001228559000CFE0FEA3E0FFEF7F00FE90BD
:1009F00000CFEEF0A3EFF0900109E0FF7E00900041
:100A0000CFEE8FF012285580059000AAE4F09000F8
:100A1000AAE0FFEF6401600302002E9000FEE014E4
:100A2000FFF09000ABEFF09000AEE0FFEF14FF900E
:100A300000ACEFF09000AEE0FF9000ADEFF0900062
:100A4000ADE0FFEFD3940040369000ABE0FF7407B9
:100A50002FF582E43401F583E0FF9000ACE0FE74F2
:100A6000292EF582E43401F583EFF09000ABE01419
:100A7000F09000ACE014F09000ADE014F080BF9076
:100A800000AAE4F07F011227A49000FEE004F00227
:100A9000002E229000941229F59000941229EC1255
:100AA000282AFFEF1229FE0B2F030B53060B7709A1
:100AB0000CA40A0D730B0DEB0C0E63100E7F110EC0
:100AC000981C0F4F400F684510664611645012DFA6
:100AD000510ADBF213BDFF0000143D1231C89050E3
:100AE00015E0FFEF4401FFEFF07BFF7A3F79411201
:100AF0003917124230EF30E1F97BFF7A3F7941122A
:100B00003917124230EF30E1F97BFF7A3F79411219
:100B10003917124230EF30E1F97BFF7A3F79431207
:100B20003917124230EF30E10302143D80F42212F3
:100B300031C8905012E0FFEF4401FFEFF07BFF7AE5
:100B40003F793C123917124230EF30E10302143D75
:100B500080F4221231C8905013E0FFEF4401FFEF00
:100B6000F07BFF7A3F793C123917124230EF30E1C7
:100B70000302143D80F422905011E0FFEF4401FF86
:100B8000EFF09000ECE0FEA3E0FFE4FCFD1237285C
:100B9000900095E475F0011228559000941229EC0C
:100BA00012282AFF7E0012143E900108E0FF9000F8
:100BB000D1EFF09000ECE0FEA3E0FFE4FCFD123783
:100BC00028900095E475F0011228559000941229A0
:100BD000EC12282AFF7E00121CB6900109E0FF905B
:100BE00000D3EFF09000FAE0FF9000D5EFF0900115
:100BF00000E0FF9000D7EFF09000EAE0FF9000D90E
:100C0000EFF09000F2E0FF9000DBEFF09000F7E0F3
:100C1000FF9000DDEFF0900104E0FF9000DFEFF0C7
:100C20009000CFE0FEA3E0FFE4FCFD1237287BFF3D
:100C30007A3F7945123917124230EF30E1F97BFFE4
:100C40007A3F7947123917124230EF30E1F97BFFD2
:100C50007A3F7949123917124230EF30E1F97BFFC0
:100C60007A3F7949123917124230EF30E1F97BFFB0
:100C70007A3F794B123917124230EF30E1F97BFF9E
:100C80007A3F7945123917124230EF30E1F97BFF94
:100C90007A3F7945123917124230EF30E1030214DE
:100CA0003D80F4227BFF7A3F79411239171242309E
:100CB000EF30E1F97BFF7A3F794112391712423068
:100CC000EF30E1F97BFF7A3F794112391712423058
:100CD000EF30E1F97BFF7A3F794312391712423046
:100CE000EF30E1F9123DA590502CE0FFEF54FEFFEC
:100CF000EFF07F15123EC47F15123EC47F15123EE1
:100D0000C4124056EF20E10A124076900098EFF0AE
:100D100080EF7F0E7E00123D7890502CE0FFEF4474
:100D200001FFEFF07F057E00123D78124066EF7004
:100D30000302143D124076900098EFF0900098E086
:100D4000FFEFB4150C900098E0FF900097EFF08053
:100D500005900097E4F0900097E0FF1237F41242FC
:100D600030EF30E1F9124034900097E4F0900098B1
:100D7000E4F022900095E475F0011228559050118E
:100D8000E0FFEF4401FFEFF09000ECE0FEA3E0FF96
:100D9000E4FCFD1237289000941229EC12282AFF57
:100DA0007E0012143E7BFF7A3F79411239171242BE
:100DB00030EF30E1F97BFF7A3F7941123917124267
:100DC00030EF30E1F97BFF7A3F7941123917124257
:100DD00030EF30E1F97BFF7A3F7943123917124245
:100DE00030EF30E10302143D80F422900095E47569
:100DF000F001122855905011E0FFEF4401FFEFF091
:100E00009000ECE0FEA3E0FFE4FCFD123728900028
:100E1000941229EC12282AFF7E00121CB67BFF7A5E
:100E20003F7941123917124230EF30E1F97BFF7AF6
:100E30003F7941123917124230EF30E1F97BFF7AE6
:100E40003F7941123917124230EF30E1F97BFF7AD6
:100E50003F7943123917124230EF30E10302143D5B
:100E600080F422123FD212416C7BFF7A3F793C1210
:100E70003917124230EF30E10302143D80F42212A0
:100E800041787BFF7A3F793C123917124230EF30BC
:100E9000E10302143D80F422900095E475F0011204
:100EA00028559000941229EC12282AFFEF600E902A
:100EB00000941229EC12282AFFEFB4012590009427
:100EC0001229EC12282AFF900141EFF07BFF7A3FB4
:100ED000793C123917124230EF30E10302143D80A1
:100EE000F4229000941229EC12282AFFEFB40F1676
:100EF0007BFF7A3F793C123917124230EF30E10321
:100F000002143D80F4229000FEE4F09000FEE0FF29
:100F1000EFD3941F50199000FEE0FF74072FF58265
:100F2000E43401F583E4F09000FEE004F080DC900E
:100F300000FDE4F09000F8E4F07BFF7A3F794D1279
:100F40003917124230EF30E10302143D80F42212CF
:100F500031C87BFF7A3F793C123917124230EF30AB
:100F6000E10302143D80F4227BFF7A3F793C123981
:100F700017124230EF30E1F99000EFE4F090501595
:100F8000E0FFEF30E4109000EFE0FFEF4401FF904E
:100F900000EFEFF0800E9000EFE0FFEF54FEFF90C7
:100FA00000EFEFF0905014E0FFEF30E4109000EF0E
:100FB000E0FFEF4402FF9000EFEFF0800E9000EFB3
:100FC000E0FFEF54FDFF9000EFEFF0905012E0FFD4
:100FD000EF30E4109000EFE0FFEF4404FF9000EFEB
:100FE000EFF0800E9000EFE0FFEF54FBFF9000EF7A
:100FF000EFF0905013E0FFEF30E4109000EFE0FFCF
:10100000EF4408FF9000EFEFF0800E9000EFE0FF5C
:10101000EF54F7FF9000EFEFF0905011E0FFEF304A
:10102000E4109000EFE0FFEF4410FF9000EFEFF0CE
:10103000800E9000EFE0FFEF54EFFF9000EFEFF035
:101040009000EFE0FFEF541FFF9000EFEFF0123C35
:10105000359000EFE0FF1237F4124230EF30E10339
:1010600002143D80F4227BFF7A3F793C123917123B
:101070004230EF30E1F99000EFE4F0905016E0FFDD
:10108000EF30E4109000EFE0FFEF4401FF9000EF3D
:10109000EFF0800E9000EFE0FFEF54FEFF9000EFC6
:1010A000EFF0905017E0FFEF30E4109000EFE0FF1A
:1010B000EF4402FF9000EFEFF0800E9000EFE0FFB2
:1010C000EF54FDFF9000EFEFF0905064E0FFEF3041
:1010D000E4109000EFE0FFEF4404FF9000EFEFF02A
:1010E000800E9000EFE0FFEF54FBFF9000EFEFF079
:1010F000905065E0FFEF30E4109000EFE0FFEF4428
:1011000008FF9000EFEFF0800E9000EFE0FFEF544B
:10111000F7FF9000EFEFF0905034E0FFEF30E41075
:101120009000EFE0FFEF4410FF9000EFEFF0800E33
:101130009000EFE0FFEF54EFFF9000EFEFF0900032
:10114000EFE0FFEF541FFF9000EFEFF0123C3590FF
:1011500000EFE0FF1237F4124230EF30E1030214E7
:101160003D80F422900095E475F00112285590001E
:10117000941229EC12282AFFEF64017025123BFD1E
:101180007D017F9B7E00122A48123F7E7BFF7A3FC3
:10119000793C123917124230EF30E10302143D80DE
:1011A000F4229000941229EC12282AFFEF640270B6
:1011B00025123BFD7D017F4D7E00122A48123F7EA5
:1011C0007BFF7A3F793C123917124230EF30E1034E
:1011D00002143D80F4229000941229EC12282AFF78
:1011E000EF64037025123BFD7D017F257E00122AEE
:1011F00048123F7E7BFF7A3F793C1239171242300A
:10120000EF30E10302143D80F4229000941229ECA7
:1012100012282AFFEF64047025123BFD7D017F191F
:101220007E00122A48123F7E7BFF7A3F793C1239BA
:1012300017124230EF30E10302143D80F422900097
:10124000941229EC12282AFFEF64057025123BFD49
:101250007D017F0C7E00122A48123F7E7BFF7A3F81
:10126000793C123917124230EF30E10302143D800D
:10127000F4229000941229EC12282AFFEFB40F16E2
:101280007BFF7A3F793C123917124230EF30E1038D
:1012900002143D80F4229000FEE4F09000FEE0FF96
:1012A000EFD3941F50199000FEE0FF74072FF582D2
:1012B000E43401F583E4F09000FEE004F080DC907B
:1012C00000FDE4F09000F8E4F07BFF7A3F794D12E6
:1012D0003917124230EF30E10302143D80F42290BE
:1012E0000095E475F0011228559000941229EC1233
:1012F000282AFFEF30E00D905016E0FFEF4401FF89
:10130000EFF0800B905016E0FFEF54FEFFEFF090EF
:1013100000941229EC12282AFFEF30E10D905017AB
:10132000E0FFEF4401FFEFF0800B905017E0FFEF7C
:1013300054FEFFEFF09000941229EC12282AFFEFE0
:1013400030E20D905064E0FFEF4401FFEFF0800BBE
:10135000905064E0FFEF54FEFFEFF09000941229EC
:10136000EC12282AFFEF30E30D905065E0FFEF44C8
:1013700001FFEFF0800B905065E0FFEF54FEFFEFB0
:10138000F09000941229EC12282AFFEF30E40D901F
:101390005034E0FFEF4401FFEFF0800B905034E059
:1013A000FFEF54FEFFEFF07BFF7A3F793C123917D5
:1013B000124230EF30E10302143D80F42290009598
:1013C000E475F0011228559000941229EC12282A95
:1013D000FFEFB4FF04124160229000941229EC1236
:1013E000282AFFEFB40F137BFF7A3F793C1239179D
:1013F000124230EF20E14680F7229000FEE4F090A8
:1014000000FEE0FFEFD3941F50199000FEE0FF7440
:10141000072FF582E43401F583E4F09000FEE00448
:10142000F080DC9000FDE4F09000F8E4F07BFF7ABF
:101430003F794D123917124230EF30E1F922900016
:10144000A0EEF0A3EFF09000A2E4F0A3E4F090008F
:10145000A0E0FEA3E0FFD3EF940FEE648094804001
:10146000030215F79000A0E0FEA3E0FF74017E00E8
:10147000A807088005C333CE33CED8F9FF9000A269
:10148000EEF0A3EFF09000A2E0FEA3E0FFEEFF7EFF
:10149000009000A4EFF090502CE0FFEF54FEFFEF1F
:1014A000F07F00123EC49000A4E0FF123EC4900002
:1014B000A2E0FEA3E0FF123EC4124056EF30E1F975
:1014C0007F0F7E00123D7890502CE0FFEF4401FF2B
:1014D000EFF07F147E00123D7890502CE0FFEF5427
:1014E000FEFFEFF07F01123EC47F00123EC47F007A
:1014F000123EC4124056EF30E1F97F0F7E00123DDC
:101500007890502CE0FFEF4401FFEFF07F147E0055
:10151000123D7890502CE0FFEF54FEFFEFF07F0279
:10152000123EC47F00123EC47F00123EC4124056D9
:10153000EF30E1F97F0F7E00123D7890502CE0FFF4
:10154000EF4401FFEFF07F147E00123D7890502CA5
:10155000E0FFEF54FEFFEFF07F03123EC47F001266
:101560003EC47F00123EC4124056EF30E1F97F0FB7
:101570007E00123D7890502CE0FFEF4401FFEFF029
:101580007F147E00123D7890502CE0FFEF54FEFF58
:10159000EFF07F08123EC47F00123EC47F11123E5E
:1015A000C4124056EF30E1F97F0F7E00123D789073
:1015B000502CE0FFEF4401FFEFF07F147E00123D5E
:1015C0007890502CE0FFEF54FEFFEFF07F0F123EBB
:1015D000C47F00123EC47F00123EC4124056EF305A
:1015E000E1F97F0F7E00123D7890502CE0FFEF4430
:1015F00001FFEFF0021CAA9000A0E0FEA3E0FFC3F1
:10160000EF9410EE6480948050030217C19000A004
:10161000E0FEA3E0FFD3EF941FEE648094804003CC
:101620000217C19000A074FF75F0F01228559000C9
:10163000A0E0FEA3E0FF74017E00A807088005C3B8
:1016400033CE33CED8F9FF9000A2EEF0A3EFF090A6
:1016500000A2E0FEA3E0FFEEFF7E009000A4EFF00A
:1016600090502CE0FFEF54FEFFEFF07F00123EC4DD
:101670007F00123EC47F00123EC4124056EF30E19C
:10168000F97F0F7E00123D7890502CE0FFEF44016F
:10169000FFEFF07F147E00123D7890502CE0FFEFBA
:1016A00054FEFFEFF07F01123EC49000A4E0FF1251
:1016B0003EC49000A2E0FEA3E0FF123EC4124056DA
:1016C000EF30E1F97F0F7E00123D7890502CE0FF63
:1016D000EF4401FFEFF07F147E00123D7890502C14
:1016E000E0FFEF54FEFFEFF07F02123EC47F0012D6
:1016F0003EC47F00123EC4124056EF30E1F97F0F26
:101700007E00123D7890502CE0FFEF4401FFEFF097
:101710007F147E00123D7890502CE0FFEF54FEFFC6
:10172000EFF07F03123EC47F00123EC47F00123EE2
:10173000C4124056EF30E1F97F0F7E00123D7890E1
:10174000502CE0FFEF4401FFEFF07F147E00123DCC
:101750007890502CE0FFEF54FEFFEFF07F08123E30
:10176000C47F00123EC47F12123EC4124056EF30B6
:10177000E1F97F0F7E00123D7890502CE0FFEF449E
:1017800001FFEFF07F147E00123D7890502CE0FFB7
:10179000EF54FEFFEFF07F0F123EC47F00123EC4F5
:1017A0007F00123EC4124056EF30E1F97F0F7E00F9
:1017B000123D7890502CE0FFEF4401FFEFF0021C47
:1017C000AA9000A0E0FEA3E0FFC3EF9420EE6480A7
:1017D0009480500302198B9000A0E0FEA3E0FFD399
:1017E000EF942FEE64809480400302198B9000A048
:1017F00074FF75F0E01228559000A0E0FEA3E0FF12
:1018000074017E00A807088005C333CE33CED8F913
:10181000FF9000A2EEF0A3EFF09000A2E0FEA3E0A4
:10182000FFEEFF7E009000A4EFF090502CE0FFEF61
:1018300054FEFFEFF07F00123EC47F00123EC47FD3
:1018400000123EC4124056EF30E1F97F0F7E0012C5
:101850003D7890502CE0FFEF4401FFEFF07F147EC5
:1018600000123D7890502CE0FFEF54FEFFEFF07F28
:1018700001123EC47F00123EC47F00123EC41240DB
:1018800056EF30E1F97F0F7E00123D7890502CE04A
:10189000FFEF4401FFEFF07F147E00123D7890507F
:1018A0002CE0FFEF54FEFFEFF07F02123EC49000E9
:1018B000A4E0FF123EC49000A2E0FEA3E0FF123EAF
:1018C000C4124056EF30E1F97F0F7E00123D789050
:1018D000502CE0FFEF4401FFEFF07F147E00123D3B
:1018E0007890502CE0FFEF54FEFFEFF07F03123EA4
:1018F000C47F00123EC47F00123EC4124056EF3037
:10190000E1F97F0F7E00123D7890502CE0FFEF440C
:1019100001FFEFF07F147E00123D7890502CE0FF25
:10192000EF54FEFFEFF07F08123EC47F00123EC46A
:101930007F14123EC4124056EF30E1F97F0F7E0053
:10194000123D7890502CE0FFEF4401FFEFF07F1440
:101950007E00123D7890502CE0FFEF54FEFFEFF038
:101960007F0F123EC47F00123EC47F00123EC4129D
:101970004056EF30E1F97F0F7E00123D7890502CF9
:10198000E0FFEF4401FFEFF0021CAA9000A0E0FE90
:10199000A3E0FFC3EF9430EE648094805003021BF9
:1019A000559000A0E0FEA3E0FFD3EF943FEE6480EB
:1019B00094804003021B559000A074FF75F0D01274
:1019C00028559000A0E0FEA3E0FF74017E00A80768
:1019D000088005C333CE33CED8F9FF9000A2EEF0D5
:1019E000A3EFF09000A2E0FEA3E0FFEEFF7E0090E8
:1019F00000A4EFF090502CE0FFEF54FEFFEFF07FDB
:101A000000123EC47F00123EC47F00123EC412404A
:101A100056EF30E1F97F0F7E00123D7890502CE0B8
:101A2000FFEF4401FFEFF07F147E00123D789050ED
:101A30002CE0FFEF54FEFFEFF07F01123EC47F0069
:101A4000123EC47F00123EC4124056EF30E1F97FCF
:101A50000F7E00123D7890502CE0FFEF4401FFEF25
:101A6000F07F147E00123D7890502CE0FFEF54FE82
:101A7000FFEFF07F02123EC47F00123EC47F0012CF
:101A80003EC4124056EF30E1F97F0F7E00123D78E0
:101A900090502CE0FFEF4401FFEFF07F147E001226
:101AA0003D7890502CE0FFEF54FEFFEFF07F0312E3
:101AB0003EC49000A4E0FF123EC49000A2E0FEA34A
:101AC000E0FF123EC4124056EF30E1F97F0F7E0076
:101AD000123D7890502CE0FFEF4401FFEFF07F14AF
:101AE0007E00123D7890502CE0FFEF54FEFFEFF0A7
:101AF0007F08123EC47F00123EC47F18123EC412FB
:101B00004056EF30E1F97F0F7E00123D7890502C67
:101B1000E0FFEF4401FFEFF07F147E00123D78906C
:101B2000502CE0FFEF54FEFFEFF07F0F123EC47F1A
:101B300000123EC47F00123EC4124056EF30E1F95D
:101B40007F0F7E00123D7890502CE0FFEF4401FFA4
:101B5000EFF0021CAA90502CE0FFEF54FEFFEFF0D4
:101B60007F00123EC47F00123EC47F00123EC412AA
:101B70004056EF30E1F97F0F7E00123D7890502CF7
:101B8000E0FFEF4401FFEFF07F147E00123D7890FC
:101B9000502CE0FFEF54FEFFEFF07F01123EC47FB8
:101BA00000123EC47F00123EC4124056EF30E1F9ED
:101BB0007F0F7E00123D7890502CE0FFEF4401FF34
:101BC000EFF07F147E00123D7890502CE0FFEF5430
:101BD000FEFFEFF07F02123EC47F00123EC47F0082
:101BE000123EC4124056EF30E1F97F0F7E00123DE5
:101BF0007890502CE0FFEF4401FFEFF07F147E005F
:101C0000123D7890502CE0FFEF54FEFFEFF07F0381
:101C1000123EC47F00123EC47F00123EC4124056E2
:101C2000EF30E1F97F0F7E00123D7890502CE0FFFD
:101C3000EF4401FFEFF07F147E00123D7890502CAE
:101C4000E0FFEF54FEFFEFF07F08123EC47F00126A
:101C50003EC47F00123EC4124056EF30E1F97F0FC0
:101C60007E00123D7890502CE0FFEF4401FFEFF032
:101C70007F147E00123D7890502CE0FFEF54FEFF61
:101C8000EFF07F0F123EC47F00123EC47F00123E71
:101C9000C4124056EF30E1F97F0F7E00123D78907C
:101CA000502CE0FFEF4401FFEFF07F0A7E007D0043
:101CB0007C00123728229000A0EEF0A3EFF09000F5
:101CC000A2E4F0A3E4F09000A0E0FEA3E0FFD3EFD5
:101CD000940FEE648094804003021E6F9000A0E099
:101CE000FEA3E0FF74017E00A807088005C333CE81
:101CF00033CED8F9FF9000A2EEF0A3EFF09000A24F
:101D0000E0FEA3E0FFEEFF7E009000A4EFF0905015
:101D10002CE0FFEF54FEFFEFF07F04123EC4900072
:101D2000A4E0FF123EC49000A2E0FEA3E0FF123E3A
:101D3000C4124056EF30E1F97F0F7E00123D7890DB
:101D4000502CE0FFEF4401FFEFF07F147E00123DC6
:101D50007890502CE0FFEF54FEFFEFF07F05123E2D
:101D6000C47F00123EC47F00123EC4124056EF30C2
:101D7000E1F97F0F7E00123D7890502CE0FFEF4498
:101D800001FFEFF07F147E00123D7890502CE0FFB1
:101D9000EF54FEFFEFF07F06123EC47F00123EC4F8
:101DA0007F00123EC4124056EF30E1F97F0F7E00F3
:101DB000123D7890502CE0FFEF4401FFEFF07F14CC
:101DC0007E00123D7890502CE0FFEF54FEFFEFF0C4
:101DD0007F07123EC47F00123EC47F00123EC41231
:101DE0004056EF30E1F97F0F7E00123D7890502C85
:101DF000E0FFEF4401FFEFF07F147E00123D78908A
:101E0000502CE0FFEF54FEFFEFF07F09123EC47F3D
:101E100000123EC47F11123EC4124056EF30E1F969
:101E20007F0F7E00123D7890502CE0FFEF4401FFC1
:101E3000EFF07F147E00123D7890502CE0FFEF54BD
:101E4000FEFFEFF07F0F123EC47F00123EC47F0002
:101E5000123EC4124056EF30E1F97F0F7E00123D72
:101E60007890502CE0FFEF4401FFEFF00225229024
:101E700000A0E0FEA3E0FFC3EF9410EE6480948026
:101E800050030220399000A0E0FEA3E0FFD3EF94BE
:101E90001FEE6480948040030220399000A074FFFC
:101EA00075F0F01228559000A0E0FEA3E0FF740149
:101EB0007E00A807088005C333CE33CED8F9FF9043
:101EC00000A2EEF0A3EFF09000A2E0FEA3E0FFEE90
:101ED000FF7E009000A4EFF090502CE0FFEF54FE46
:101EE000FFEFF07F04123EC47F00123EC47F001259
:101EF0003EC4124056EF30E1F97F0F7E00123D786C
:101F000090502CE0FFEF4401FFEFF07F147E0012B1
:101F10003D7890502CE0FFEF54FEFFEFF07F05126C
:101F20003EC49000A4E0FF123EC49000A2E0FEA3D5
:101F3000E0FF123EC4124056EF30E1F97F0F7E0001
:101F4000123D7890502CE0FFEF4401FFEFF07F143A
:101F50007E00123D7890502CE0FFEF54FEFFEFF032
:101F60007F06123EC47F00123EC47F00123EC412A0
:101F70004056EF30E1F97F0F7E00123D7890502CF3
:101F8000E0FFEF4401FFEFF07F147E00123D7890F8
:101F9000502CE0FFEF54FEFFEFF07F07123EC47FAE
:101FA00000123EC47F00123EC4124056EF30E1F9E9
:101FB0007F0F7E00123D7890502CE0FFEF4401FF30
:101FC000EFF07F147E00123D7890502CE0FFEF542C
:101FD000FEFFEFF07F09123EC47F00123EC47F1265
:101FE000123EC4124056EF30E1F97F0F7E00123DE1
:101FF0007890502CE0FFEF4401FFEFF07F147E005B
:10200000123D7890502CE0FFEF54FEFFEFF07F0F71
:10201000123EC47F00123EC47F00123EC4124056DE
:10202000EF30E1F97F0F7E00123D7890502CE0FFF9
:10203000EF4401FFEFF00225229000A0E0FEA3E0B4
:10204000FFC3EF9420EE648094805003022203903B
:1020500000A0E0FEA3E0FFD3EF942FEE6480948015
:1020600040030222039000A074FF75F0E01228558F
:102070009000A0E0FEA3E0FF74017E00A8070880A6
:1020800005C333CE33CED8F9FF9000A2EEF0A3EF14
:10209000F09000A2E0FEA3E0FFEEFF7E009000A41F
:1020A000EFF090502CE0FFEF54FEFFEFF07F0412B2
:1020B0003EC47F00123EC47F00123EC4124056EF61
:1020C00030E1F97F0F7E00123D7890502CE0FFEF59
:1020D0004401FFEFF07F147E00123D7890502CE019
:1020E000FFEF54FEFFEFF07F05123EC47F00123E6B
:1020F000C47F00123EC4124056EF30E1F97F0F7EDC
:1021000000123D7890502CE0FFEF4401FFEFF07F8C
:10211000147E00123D7890502CE0FFEF54FEFFEF4C
:10212000F07F06123EC49000A4E0FF123EC490006F
:10213000A2E0FEA3E0FF123EC4124056EF30E1F9E8
:102140007F0F7E00123D7890502CE0FFEF4401FF9E
:10215000EFF07F147E00123D7890502CE0FFEF549A
:10216000FEFFEFF07F07123EC47F00123EC47F00E7
:10217000123EC4124056EF30E1F97F0F7E00123D4F
:102180007890502CE0FFEF4401FFEFF07F147E00C9
:10219000123D7890502CE0FFEF54FEFFEFF07F09E6
:1021A000123EC47F00123EC47F14123EC412405639
:1021B000EF30E1F97F0F7E00123D7890502CE0FF68
:1021C000EF4401FFEFF07F147E00123D7890502C19
:1021D000E0FFEF54FEFFEFF07F0F123EC47F0012CE
:1021E0003EC47F00123EC4124056EF30E1F97F0F2B
:1021F0007E00123D7890502CE0FFEF4401FFEFF09D
:102200000225229000A0E0FEA3E0FFC3EF9430EE91
:102210006480948050030223CD9000A0E0FEA3E0F0
:10222000FFD3EF943FEE6480948040030223CD906F
:1022300000A074FF75F0D01228559000A0E0FEA316
:10224000E0FF74017E00A807088005C333CE33CEBB
:10225000D8F9FF9000A2EEF0A3EFF09000A2E0FE0C
:10226000A3E0FFEEFF7E009000A4EFF090502CE082
:10227000FFEF54FEFFEFF07F04123EC47F00123EDA
:10228000C47F00123EC4124056EF30E1F97F0F7E4A
:1022900000123D7890502CE0FFEF4401FFEFF07FFB
:1022A000147E00123D7890502CE0FFEF54FEFFEFBB
:1022B000F07F05123EC47F00123EC47F00123EC470
:1022C000124056EF30E1F97F0F7E00123D789050BA
:1022D0002CE0FFEF4401FFEFF07F147E00123D7809
:1022E00090502CE0FFEF54FEFFEFF07F06123EC44B
:1022F0007F00123EC47F00123EC4124056EF30E110
:10230000F97F0F7E00123D7890502CE0FFEF4401E2
:10231000FFEFF07F147E00123D7890502CE0FFEF2D
:1023200054FEFFEFF07F07123EC49000A4E0FF12BE
:102330003EC49000A2E0FEA3E0FF123EC41240564D
:10234000EF30E1F97F0F7E00123D7890502CE0FFD6
:10235000EF4401FFEFF07F147E00123D7890502C87
:10236000E0FFEF54FEFFEFF07F09123EC47F001242
:102370003EC47F18123EC4124056EF30E1F97F0F81
:102380007E00123D7890502CE0FFEF4401FFEFF00B
:102390007F147E00123D7890502CE0FFEF54FEFF3A
:1023A000EFF07F0F123EC47F00123EC47F00123E4A
:1023B000C4124056EF30E1F97F0F7E00123D789055
:1023C000502CE0FFEF4401FFEFF002252290502C4B
:1023D000E0FFEF54FEFFEFF07F04123EC47F0012D7
:1023E0003EC47F00123EC4124056EF30E1F97F0F29
:1023F0007E00123D7890502CE0FFEF4401FFEFF09B
:102400007F147E00123D7890502CE0FFEF54FEFFC9
:10241000EFF07F05123EC47F00123EC47F00123EE3
:10242000C4124056EF30E1F97F0F7E00123D7890E4
:10243000502CE0FFEF4401FFEFF07F147E00123DCF
:102440007890502CE0FFEF54FEFFEFF07F06123E35
:10245000C47F00123EC47F00123EC4124056EF30CB
:10246000E1F97F0F7E00123D7890502CE0FFEF44A1
:1024700001FFEFF07F147E00123D7890502CE0FFBA
:10248000EF54FEFFEFF07F07123EC47F00123EC400
:102490007F00123EC4124056EF30E1F97F0F7E00FC
:1024A000123D7890502CE0FFEF4401FFEFF07F14D5
:1024B0007E00123D7890502CE0FFEF54FEFFEFF0CD
:1024C0007F09123EC47F00123EC47F00123EC41238
:1024D0004056EF30E1F97F0F7E00123D7890502C8E
:1024E000E0FFEF4401FFEFF07F147E00123D789093
:1024F000502CE0FFEF54FEFFEFF07F0F123EC47F41
:1025000000123EC47F00123EC4124056EF30E1F983
:102510007F0F7E00123D7890502CE0FFEF4401FFCA
:10252000EFF07F0A7E007D007C0012372822C2AFC8
:1025300080FE32C0E0E5D0541864087003D0E03269
:10254000D0E012253285D00B75D008AAE0EC242209
:10255000F8E6BC050274FFC39581B4140040CF793E
:1025600006781016E608700BC2AFE630E103441897
:10257000F6D2AF08D9EDEA8BD030000122D50DFCA0
:10258000C0E0C0D0C0F0C083C082C000C001C002A3
:10259000C003C004C005C006C007E50C232411F821
:1025A0007440C2AF46F6D2AFD200E50CFF2324112F
:1025B000F80F0808BF06047F007811E630E4F20047
:1025C000E50CC39F5020050C7421250CF8E6FDA6F0
:1025D0008108E6AE0CBE050274FFCDF8E86D60E040
:1025E00008E6C0E080F6E50CD39F4027E50C2422E6
:1025F000F8E6AE0CBE050274FFFD18E6CDF8E581E5
:102600006D6006D0E0F61880F5E50C2421C8F615BB
:102610000C80D3750D05E50C232411F87F04C2AF9F
:10262000E610E61E30E00310E20C7F0030E10730D8
:10263000E3047F0854F4547CC6D2AF54804207C2EE
:102640000022F6D2AFD007D006D005D004D003D0F8
:1026500002D001D000D082D083D0F0D0D0D0E0C260
:1026600000227821A68174056006FF0876FFDFFB53
:102670007F06E47810F608F608DFFA7811763090D5
:102680004184740193C0E0E493C0E0750D05D2AFBE
:102690002205EFD3940540037FFF2274112F2FF8FA
:1026A000E620E5F4C2AFE64430F6D2AFAE0CEEC39E
:1026B0009F50210E74212EF8E6F908E618BE050297
:1026C00074FFFDED69600909E71919F7090980F33D
:1026D000161680DAEED39F400405810581EED39F64
:1026E000402274212EF808E6F9EEB50C02A98118F3
:1026F0000606E6FDED6960091919E70909F7198071
:10270000F31E80D9EF2421F8E604F8EF2F0490415E
:102710008493F608EF2F93F67F0022EFD3940540C1
:10272000037FFF22EF232411F8E630E5F4C2AFE681
:10273000548CF6D2AFE50CB5070A74212FF8E6F5F4
:10274000810225A8502E74222FF8E6BF050274FFDF
:10275000FD18E6F974212FF8FBE6FCE96C6008A887
:1027600005E7F61D1980F4A803A6051FE50CB507BB
:10277000E37F002274222FF8E6FD1886010F7421F2
:102780002FF8A601088604E50CB50702AC81ED6CB4
:1027900060080D09A805E6F780F4E50CB507DE89A9
:1027A000817F0022EFD3940540037FFF22EF232493
:1027B00011F8C2AFE630E50530E002D2E4D2E2C65D
:1027C000D2AF7F0030E2010F02257C8FF0E4FFFEE4
:1027D000E50C232410F8C2A930F70D7F08E6600B42
:1027E0002DF660325030800730F106EDF660277E1E
:1027F000020830F010C2AFE610E7250E30E20CD22E
:10280000AF7F048014C2AFE610E71554EC4EF6D249
:10281000AFD2A90225A87F0808EF4483F4C2AF56BF
:10282000C6D2AFD2A954804FFF22BB010689828A4B
:1028300083E0225002E722BBFE02E32289828A83E0
:10284000E49322BB010689828A83F0225002F72298
:10285000BBFE01F322C5F0F8A3E028F0C5F0F8E5CF
:1028600082158270021583E038F022EF2BFFEE3ADA
:10287000FEED39FDEC38FC22E88FF0A4CC8BF0A4FF
:102880002CFCE98EF0A42CFC8AF0EDA42CFCEA8E42
:10289000F0A4CDA8F08BF0A42DCC3825F0FDE98F65
:1028A000F0A42CCD35F0FCEB8EF0A4FEA9F0EB8F5C
:1028B000F0A4CFC5F02ECD39FEE43CFCEAA42DCE29
:1028C00035F0FDE43CFC2275F008758200EF2FFF27
:1028D000EE33FECD33CDCC33CCC58233C5829BEDF8
:1028E0009AEC99E58298400CF582EE9BFEED9AFDFC
:1028F000EC99FC0FD5F0D6E4CEFBE4CDFAE4CCF9AC
:10290000A88222B800C1B90059BA002DEC8BF0841E
:10291000CFCECDFCE5F0CBF97818EF2FFFEE33FEEC
:10292000ED33FDEC33FCEB33FB10D703994004EBA4
:1029300099FB0FD8E5E4F9FA227818EF2FFFEE3370
:10294000FEED33FDEC33FCC933C910D7059BE99A82
:102950004007EC9BFCE99AF90FD8E0E4C9FAE4CC13
:10296000FB2275F010EF2FFFEE33FEED33FDCC337D
:10297000CCC833C810D7079BEC9AE899400AED9B66
:10298000FDEC9AFCE899F80FD5F0DAE4CDFBE4CC45
:10299000FAE4C8F922EF4BFFEE4AFEED49FDEC48A0
:1029A000FC22E8600FECC313FCED13FDEE13FEEF09
:1029B00013FFD8F122E8600FEFC333FFEE33FEEDD3
:1029C00033FDEC33FCD8F122E0FCA3E0FDA3E0FEF4
:1029D000A3E0FF22E0F8A3E0F9A3E0FAA3E0FB22E2
:1029E000ECF0A3EDF0A3EEF0A3EFF022E0FBA3E008
:1029F000FAA3E0F922EBF0A3EAF0A3E9F022D083F6
:102A0000D082F8E4937012740193700DA3A393F82D
:102A1000740193F5828883E4737402936860EFA372
:102A2000A3A380DFE50F2582F582E50E3583F583CC
:102A3000B50E0485820F2210AF0685820FF50E2297
:102A400085820FF50ED2AF229000A0EEF0A3EFF03A
:102A50009000A2EDF01241C99000A4EFF01241BF26
:102A60009000A5EEF0A3EFF09000A5E0FEA3E0FF3C
:102A70009000A0E0FCA3E0FDED6F7002EC6E70032F
:102A8000022BDC9043A2E0FFEF5401FF9000A3EF84
:102A9000F09000A4E0FFEF705E9000A5E0FEA3E0E0
:102AA000FFEF4E600C9000A0E0FEA3E0FFEF4E7041
:102AB000469000A5E0FEA3E0FFEF4E701D7B027A7A
:102AC0004079809000A0E0FCA3E0FD1241389040E6
:102AD00082E0FFEF54BFFFEFF022904082E0FFEF73
:102AE0004440FFEFF07B027A4079809000A0E0FC48
:102AF000A3E0FD124138229000A3E0FFEF606C904C
:102B00004001E4F09040107401F0904014E4F09023
:102B10004008E0FFEF547FFFEFF0904082E0FFEFCE
:102B20005408FF7E00EF4E600C9000A0E0FEA3E092
:102B3000FFEF4E70367B027A4079029000A5E0FCF0
:102B4000A3E0FD1241389040017407F0904001E08D
:102B5000FFEF5401FF7E00EF4E70F19043A2E0FFC3
:102B6000EF54FEFFEFF0904001E4F09043A2E0FF4D
:102B7000EF5401FF7E00EF4E603A7B027A4079020B
:102B80009000A0E0FCA3E0FD1241389000A2E0FF1D
:102B9000EF60047F0280027F00EF4401FF9040015C
:102BA000EFF0904001E0FFEF5401FF7E00EF4E6038
:102BB0002B80EF227B027A4079809000A0E0FCA37A
:102BC000E0FD1241389043A2C083C082E0FF900034
:102BD000A3E0FEEF4EFFD082D083EFF0227B007A9D
:102BE0004679E8124190EF4401FD7B007A4679E88E
:102BF00012419C12300F7B017A507903124190EF01
:102C00004402FD7B017A50790312419C7B017A508A
:102C10007913124190EF4402FD7B017A507913122F
:102C2000419C9043A0E0FFEF4440FF9043A0EFF0B1
:102C30009043C2E0FFEF4410FF9043C2EFF07C608E
:102C40007D8A7B007A5179007F0A7E00123DCC7C20
:102C5000607D947B007A5179C27F087E00123DCC62
:102C60007C607D9C7B007A5179F27F087E00123D6A
:102C7000CC7C607DA47B007A5179127F087E0012A3
:102C80003DCC7C607DAC7B007A5179227F087E0050
:102C9000123DCC7C607DB47B007A5179307F0A7E16
:102CA00000123DCC7C607DBE7B007A5179407F0A6A
:102CB0007E00123DCC7C607DC87B007A5179507FCC
:102CC0000A7E00123DCC7C607DD27B007A51796215
:102CD0007F087E00123DCC7B017A0A795B7DA412CD
:102CE000419C7B017A0A79DB7D8412419C9044F4FB
:102CF0007401F0904322E0FFEF4408FF904322EF7D
:102D0000F09046ECE0FFEFC39405500690468974BE
:102D10003AF090480074C0F0122D5590480074802D
:102D2000F0123CDA7B007A4379A0C003C002C001F4
:102D30007B007A4379B09000C51229F5D001D0020A
:102D4000D0037F0E7E00123D109043B0E0FFEF54A1
:102D5000FDFFEFF0227B007A4079807D007C00123D
:102D600041369040827458F07B007A4079847D0B24
:102D70007C001241369040867418F07B007A4079CE
:102D8000887D0B7C0012413690408A7418F07B00DD
:102D90007A40798C7D2B7C0112413690408E7419DB
:102DA000F07B007A4079907DDB7C051241369040C3
:102DB000927419F07B007A4079947DDF7C2E124169
:102DC000369040967419F09043007402F0904000E1
:102DD0007408F09042007403F07B0C7A01790812B9
:102DE00041909046A1EFF07B007A4279227D087CE9
:102DF000001241367B007A4279207D517C121241CB
:102E0000369000C4E4F07F197E007D007C009000C5
:102E1000C01229E09000C01229C8D3EF9400EE94AC
:102E200000404E9000C4E0FFEF64036044904225F0
:102E3000E0FFEF5401FF7E009000C4E0FEEE25E0CD
:102E4000FEEE4FFFEF5403FF9000C4EFF07FE07EF3
:102E5000017D007C00123B009000C01229C87BFF5E
:102E60007AFF79FF78FF12286B9000C01229E0806A
:102E7000A39000C01229C8EF4E70057F03124022B4
:102E80007B007A4079047D007C0112413690400439
:102E90007407F0904006E4F09040087448F09040C9
:102EA00004E4F09040017402F09043A2E0FFEF448C
:102EB0003FFF9043A2EFF0227593007800758346A0
:102EC0007582E8E04401F0009046ECE0F99046FAA3
:102ED000E0FAB903225420B40012B8001AEA901F95
:102EE000FFF07401901FFEF09046F6F0901FFEE098
:102EF0006005901FFFE0FA90480074C0F0758126CD
:102F00009076BCE4F0A3F0A3F0A3F0907010F090E2
:102F10007019F0907020F09076007410F0907604A4
:102F2000E4F0A3F0A3F0A3F0907800780008740018
:102F3000F0A37408F0E8B8040274FFA3F0A37422AD
:102F4000F0A374BCF0A37476F0A3E4F0A3E81475C6
:102F5000F008A4F0A3B804D59070107401F090703C
:102F600014F0904880E0904888E09044D87402F0D3
:102F70007E707F18120004907010F0EA90013AF011
:102F8000020011750E1F750FFD122BDD022FCA02F4
:102F90002662E493A3F8E493A34003F68001F208C9
:102FA000DFF48029E493A3F85407240CC8C333C486
:102FB000540F4420C8834004F456800146F6DFE4F1
:102FC000800B0102040810204080903970E47E01DB
:102FD0009360BCA3FF543F30E509541FFEE493A364
:102FE00060010ECF54C025E060A840B8E493A3FA76
:102FF000E493A3F8E493A3C8C582C8CAC583CAF002
:10300000A3C8C582C8CAC583CADFE9DEE780BE7F20
:10301000007E007D007C009001441229E090760043
:103020007410F09070107401F0907019E4F07B024D
:103030007A7879007D887C02124138907802740198
:10304000F090780374A3F07B027A787904C003C00F
:1030500002C0017BFF7A5E7902AF01AE02AD037C54
:1030600000EF54FFFFEE54FFFEED5400FDEC540062
:10307000FCAD07AC06D001D002D0031241387B0270
:103080007A7879067D087C781241387B027A7679E5
:10309000047D107C001241387B027A7679067D002F
:1030A0007C001241389070397407F0907049740FA9
:1030B000F09070597419F09070147401F0907018B9
:1030C000E0FFEF5401FF7E00EF4E70F1907038E0AA
:1030D000FFEF5401FF7E00EF4E70F1907048E0FF6B
:1030E000EF5401FF7E00EF4E70F1907058E0FFEF5B
:1030F0005401FF7E00EF4E70F122C0E0C083C08219
:10310000C085C084C086758600C093759300C0D00A
:1031100075D000C006C0079000C9E4F0A2AFE43348
:10312000FF9000CAEFF0D2AF9044F474FDF09065C8
:1031300067E0FF9000C8EFF09000C8E0FFEF30E5D7
:1031400068906547E0FF900046E0FE74052EF5822A
:10315000E43400F583EFF09000C97401F09000C9E9
:10316000E0FFEF6038900003E0FFEF6006900002A0
:103170007401F0900046E004F0900046E0FFEFC3D9
:1031800094204005900046E4F0900004E0FF900099
:1031900046E0FEEEB507069000037401F090656707
:1031A000E0FF9000C8EFF0808F9000CAE0FFEF24AE
:1031B000FF92AFD007D006D0D0D093D086D084D0A5
:1031C00085D082D083D0E032905015E0FFEF30E41C
:1031D0000B905015E0FFEF54FEFFEFF0905014E01D
:1031E000FFEF30E40B905014E0FFEF54FEFFEFF0E0
:1031F000905012E0FFEF30E40B905012E0FFEF54DC
:10320000FEFFEFF0905013E0FFEF30E40B9050130F
:10321000E0FFEF54FEFFEFF0905011E0FFEF30E4DD
:103220000B905011E0FFEF54FEFFEFF0905016E0CE
:10323000FFEF30E40B905016E0FFEF54FEFFEFF08D
:10324000905017E0FFEF30E40B905017E0FFEF5481
:10325000FEFFEFF0905064E0FFEF30E40B9050641D
:10326000E0FFEF54FEFFEFF0905065E0FFEF30E439
:103270000B905065E0FFEF54FEFFEFF0905034E00C
:10328000FFEF30E40B905034E0FFEF54FEFFEFF01F
:10329000229000B5EFF0900047E0FF9000B6EFF00D
:1032A000900025E0FF9000B7EFF09000B7E0FF90AE
:1032B00000B6E0FEEEC39F50269000B7E0FF7E0010
:1032C000EF24FFFFEE34FFFE9000B6E0FD7C00EF40
:1032D000B50508EEB504047F0180027F00801890D8
:1032E00000B7E0FF9000B6E0FEC3EE9FFFEFB41F13
:1032F000047F0180027F00EF709C9000B6E0FF9099
:1033000000B7E0FEEEB50714906467E0FFEF20E23F
:103310000B9000B5E0FF906447EFF0229000B6E01C
:10332000FFEFC3942040059000B6E4F09000B5E0B4
:10333000FF9000B6E0FE74262EF582E43400F5839B
:10334000EFF09000B6E004F09000B6E0FF90004788
:10335000EFF022C0E0C0F0C083C082C085C084C04E
:1033600086758600C093759300C0D075D000C000EC
:10337000C001C002C003C004C005C006C00790441D
:10338000CB7401F0905101E0FF900128EFF0900123
:1033900028E0FFEF6488FF900128EFF0900128E01B
:1033A000FFEF6021900128E0FFEF5477FFEF600A04
:1033B0007F031227A4123F0E80149044C37401F0BF
:1033C000123F0E8009123F0E9044C37401F0D007E3
:1033D000D006D005D004D003D002D001D000D0D088
:1033E000D093D086D084D085D082D083D0F0D0E066
:1033F00032900092E4F07F011227CB900103E0FFAE
:10340000EF607E9000FEE0FFEF14FF900092EFF07F
:103410009000FEE0FFEF701A7BFF7A3F793C123993
:1034200017124230EF30E1F9900108E0FF1237F453
:1034300080477BFF7A3F793C123917124230EF30D8
:10344000E1F9900093E4F0900092E0FF900093E0A7
:10345000FEEED39F5023900093E0FF74072FF58278
:10346000E43401F583E0FF1237F4124230EF30E12B
:10347000F9900093E004F080CE900103E4F0023371
:10348000F67B017A017929120A930233F62212425D
:103490000B7E337F53123E137F011227CB905101D5
:1034A000E0FF900128EFF0900128E0FFEF6488FF33
:1034B000900128EFF0905101E0FF900140EFF09073
:1034C0000140E0FFEF5477FF900140EFF0900140A2
:1034D000E0FFEF70E0900128E0FF900127EFF0900F
:1034E00044C37401F0900141E0FFEF701890501F49
:1034F000E0FFEF54FEFFEFF090501FE0FFEF4401BC
:10350000FFEFF08093900141E0FFEFB4018A90500B
:103510001EE0FFEF54FEFFEFF090501EE0FFEF447F
:1035200001FFEFF002349822C0E0C083C082C08562
:10353000C084C086758600C093759300C0D075D0D6
:1035400000C006C007A2AFE433FF9000CBEFF0D27B
:10355000AF9044F474FDF0900047E0FF900025E048
:10356000FEEE6F6037906467E0FFEF20E22E900080
:1035700025E0FFEFC394204005900025E4F0900083
:1035800025E0FF74262FF582E43400F583E0FF90F8
:103590006447EFF0900025E004F080BB9000CBE0A2
:1035A000FFEF24FF92AFD007D006D0D0D093D086C3
:1035B000D084D085D082D083D0E0321241DA90001E
:1035C00004E0FF9000B1EFF0900046E0FF9000B201
:1035D000EFF0900003E0FFEF700E9000B2E0FF907C
:1035E00000B1E0FEEE6F60459000B1E0FF74052F82
:1035F000F582E43400F583E0FF9000B0EFF0900036
:10360000B1E004F09000B1E0FFEFC39420400590DA
:1036100000B1E4F09000B1E0FF900004EFF0900002
:1036200003E0FFEF6011900003E4F0800A9065472B
:10363000E0FF9000B0EFF01241D39000B0E0FF2225
:103640009000A0EFF09000A1ECF0A3EDF09000A0AE
:10365000E0FFEFD3941F5003D38001C340057F00E8
:10366000123FA89000A0E0FFEF541FFF7E00EF255F
:10367000E0FFEE33FEEF2400FFEE3444FEAA06A97D
:10368000077B01123AF39000A3EEF0A3EFF0900055
:10369000A0E0FF7E02EF8EF0A4FFAEF0EF2400FF6B
:1036A000EE3444FEAA06A9077B019000A1E0FEA328
:1036B000E0FFAD07AC061241389000A3E0FEA3E0A6
:1036C000FF22123E6E90014FEFF090014EE0FF900E
:1036D000014FE0FEEE6F601690501AE0FFEF54FECF
:1036E000FFEFF090501AE0FFEF4401FFEFF01240BF
:1036F000C6EF20E40D1240D69000BDEFF012404519
:1037000080EC9000BDE0FFEF30E7B790014FE0FFA5
:10371000123EDD1240B6EF30E2F97FF47E017D000B
:103720007C00123728809B2290FFFC122A24122949
:10373000E0850E83850F821229C8D3EF9400EE94A2
:1037400080402F90013B1229C8123B00850E8385D3
:103750000F82C083C0821229C8EF2400FFEE34809C
:10376000FEED34FFFDEC34FFFCD082D0831229E063
:1037700080BF9001311229C8850E83850F821229DE
:10378000D4122878123B00900004122A242290645C
:103790007FE0FFEF54F8FF90008BEFF090008BE09C
:1037A000FF90647FEFF090647FE0FFEF54FCFF90A8
:1037B000008BEFF090008BE0FF90647FEFF0124100
:1037C000537F801241167F801241067F001240F61F
:1037D0001242367F80124126123F9390008CEFF008
:1037E00090649BE0FFEF4410FFEFF090008CE0FF4F
:1037F000123EF6229000BCEFF0900001E0FFEF6077
:10380000551241E8900047E0FF900025E0FEEEB53C
:103810000715906467E0FFEF20E20C9000BCE0FF2A
:10382000906447EFF0802C900047E0FFEFC39420B6
:103830004005900047E4F09000BCE0FF900047E0B6
:10384000FE74262EF582E43400F583EFF0900047F5
:10385000E004F01241E1227F011227CB7F2A1237C8
:10386000F4124230EF30E1F97F2A1237F41242307D
:10387000EF30E1F97F2A1237F4124230EF30E1F9EC
:103880007F2A1237F4124230EF30E1F97F2A1237E3
:10389000F4124230EF30E1F97F2A1237F41242304D
:1038A000EF30E1F97F3F1237F4124230EF30E1F9A7
:1038B0007F0412271B80A0229000A0EFF09000A1AF
:1038C000EDF09000A1E0FFEFD394075003D3800107
:1038D000C340057F00123FA89000A0E0FFEFD39403
:1038E0001F5003D38001C340057F00123FA8900002
:1038F000A1E0FFEF5407FF7E00EF75F020A4FFAEBC
:10390000F09000A0E0FEEE541FFE74802EF582E4DD
:103910003444F583EFF0229000B01229F59000B303
:10392000E4F0A3E4F0900001E0FFEF60429000B00B
:103930001229EC9000B3E0FEA3E0FFE92FF9EA3E84
:10394000FA12282AFFEF60279000B01229EC9000AD
:10395000B3E0FEA3E0FFE92FF9EA3EFA12282AFFBE
:103960001232919000B3E475F00112285580BE2206
:103970004200CF000A4200EC00014100010041007A
:10398000250041004700410004004100460041007D
:10399000030041000200440136016E36004401314B
:1039A00000005DC04101351844013B2EE00000419C
:1039B000014A004101520041014B004101530041C5
:1039C00001540041015500007FE87E037D007C002A
:1039D000123728123D447D017F257E00122A4812AD
:1039E0003FFC12400F123F7E123FBD123E8C7F0003
:1039F000123BC490014EE4F01231C8123A71123CED
:103A00003512404512421212421812421E1242242E
:103A100012422A7F041227A47F0012271B22C0E033
:103A2000C0F0C083C082C085C084C086758600C0D7
:103A300093759300C0D075D000C000C001C002C013
:103A400003C004C005C006C0077F021227A4D00728
:103A5000D006D005D004D003D002D001D000D0D001
:103A6000D093D086D084D085D082D083D0F0D0E0DF
:103A700032123F9390008BEFF0906597E0FFEF4498
:103A800001FFEFF0906597E0FFEF54FEFFEFF0903D
:103A9000008BE0FF123EF61241DA900004E4F09051
:103AA0000046E4F0900003E4F0900002E4F01241DC
:103AB000D3227C307DFA7F031236407D077F0312CC
:103AC00038B890648C7476F09065877420F07C35FB
:103AD0007D287F041236407D077F041238B8906439
:103AE00026740FF09064367490F09064877402F03E
:103AF000228B938A838982E0FFA3E0FE75930022E4
:103B0000EC4D4E700D78FCEF24E950032840FD2267
:103B1000000078C5904800E0C403035403903B477D
:103B20009325E0240FF404FBEF28FF78FFEE38FE26
:103B3000ED38FDEC38FC50D7EF2BFFEE38FEED38BA
:103B4000FDEC38FC40F22205020304123F93900082
:103B5000A0EFF090649CE0FFEF4420FFEFF0906551
:103B600097E0FFEF4410FFEFF09044C07408F0902E
:103B70006497E0FFEF4410FFEFF09044C07410F042
:103B80009000A0E0FF123EF622123F9390008BEFD0
:103B9000F0906599E0FFEF4420FFEFF090659AE028
:103BA000FFEF4410FFEFF0906499E0FFEF4410FF47
:103BB000EFF090008BE0FF123EF6123F25123D76AB
:103BC000123D772290008BEFF090008BE0FFC3EF67
:103BD00064809480401090008BE0FFEF2480FF9081
:103BE000008CEFF0800E90008BE0FFEFF404FF906C
:103BF000008CEFF090008CE0FF12410622123F9300
:103C00009000A0EFF090649CE0FFEF54DFFFEFF036
:103C1000906597E0FFEF54EFFFEFF01241DA906408
:103C200097E0FFEF54EFFFEFF01241E89000A0E0C3
:103C3000FF123EF622123F939000B0EFF09064978F
:103C4000E0FFEF4401FFEFF0906497E0FFEF54FED8
:103C5000FFEFF09000B0E0FF123EF61241E8900056
:103C600025E4F0900047E4F01241E122906469E01D
:103C7000FFEF30E507906459E0FF80F0123F93902A
:103C8000008BEFF0906499E0FFEF4401FFEFF090BC
:103C90006499E0FFEF54FEFFEFF090008BE0FF121D
:103CA0003EF622906576E0FFEF54C0FF9000A0EF53
:103CB000F09000A0E0FFEF4409FF906576EFF090F0
:103CC0006596E0FFEF4401FFEFF07F011240867F31
:103CD000011240967F011240A6227B0C7A0179CF17
:103CE0001241909000C0EFF09000C0E0FFEF540749
:103CF000FF90586EEFF09000C0E0FFEFC4540FFF4C
:103D0000EF540FFF90586FEFF09058767444F02204
:103D1000758600EF4E6027EF60010E7593009000EE
:103D2000C5E0F595A3E0F585A3E0F5848B938A8340
:103D30008982E0A30586F0A31586DFF6DEF4E4F5BC
:103D400093F595229044C87401F07B027A4479007F
:103D5000C003C002C0017BFF7A257933AC02AD01FC
:103D6000D001D002D003124138904480E4F0904456
:103D7000C07401F022322222EEFA900135E0F88F71
:103D8000F0A4FFAEF0E88AF0A42EFEE5F03400FDCA
:103D9000EF24C9FF78FFEE38FEED38FDE438FC5023
:103DA00003023B0022123F939000A0EFF090649931
:103DB000E0FFEF4401FFEFF0906499E0FFEF54FE65
:103DC000FFEFF09000A0E0FF123EF622758600EFB4
:103DD0004E601BEF60010E8C838D828B958A8589E6
:103DE00084E493A30586F0A31586DFF5DEF3E4F5FE
:103DF00095227F0F1240E6123F9390008BEFF090D8
:103E0000649FE0FFEF4410FFEFF090008BE0FF12A3
:103E10003EF6229000B8EEF0A3EFF01242049000BC
:103E2000B8E0FEA3E0FF123E507F01123F6812414E
:103E3000FD2290008BEEF0A3EFF07B027A44790A2A
:103E400090008BE0FEA3E0FFAD07AC0612413822E4
:103E50009000BAEEF0A3EFF07B027A447912900062
:103E6000BAE0FEA3E0FFAD07AC06124138221241D2
:103E7000B49000BFEFF09000BFE0FF7E00EF248021
:103E8000FF9000BEEFF09000BEE0FF22123FE77F00
:103E900080124106900153E0FFEF700912424290F8
:103EA00001537401F0123DF222906589740FF012F3
:103EB0003C6C12405612406690658AE4F09064892A
:103EC0007430F0229000A5EFF090656AE0FFEF30CB
:103ED000E2F79000A5E0FF906449EFF0229000BE69
:103EE000EFF090656BE0FFEF30E1F79000BEE0FF90
:103EF00090644AEFF022EF54016004D2AF8002C216
:103F0000AFEF5402FF9044F4E054FD4FF02290458F
:103F100085E0FFEF5404FF7E00EF7802CEC313CE9E
:103F200013D8F9FF229043A2E0FFEF4402FFEFF025
:103F30009043B2E0FFEF4402FFEFF0222A2A2A2347
:103F4000002A00230053005500430045002A2A2A76
:103F50003F0090008BEFF090008BE0FFEFC43354F4
:103F6000E0FF904485EFF0229000BAEFF09000BAA5
:103F7000E0FFEFC43354E0FF904489EFF02290005B
:103F800001E0FFEF7009123AB29000017401F012E3
:103F90003B4B229044F4E0F84402F0E85402FF1056
:103FA000AF012274014FFF2290FFFF122A24EFF08D
:103FB0009046EA7401F0900001122A242290014AEE
:103FC000E0FFEF7009123EA990014A7401F0123B24
:103FD0008922900152E0FFEF7009123CA390015238
:103FE0007401F012416C22900154E0FFEF7009124D
:103FF000378E9001547401F01241A8221241F67ECE
:104000003A7F1E123E327F02123F521241EF2212BD
:1040100042047E3D7F75123E507F01123F6812417F
:10402000FD229000C5EFF09000C5E0FF9000C5EFC5
:10403000F080FE22906469E0FFEF30E5079064595C
:10404000E0FF80F022906466E0FFEF30E3079064C9
:104050005AE0FF80F02290656AE0FF9000A5EFF043
:104060009000A5E0FF22906469E0FF9000A0EFF0CF
:104070009000A0E0FF22906459E0FF9000A0EFF0D4
:104080009000A0E0FF229000A1EFF09000A1E0FFDF
:10409000906506EFF0229000A1EFF09000A1E0FF04
:1040A000906546EFF0229000A1EFF09000A1E0FFB4
:1040B000906526EFF02290656BE0FF9000BEEFF078
:1040C0009000BEE0FF22906466E0FF9000BEEFF03B
:1040D0009000BEE0FF2290645AE0FF9000BEEFF037
:1040E0009000BEE0FF2290008CEFF090008CE0FF8B
:1040F00090648FEFF02290008DEFF090008DE0FF44
:1041000090648BEFF02290008DEFF090008DE0FF37
:1041100090640FEFF02290008DEFF090008DE0FFA3
:1041200090642FEFF02290008DEFF090008DE0FF73
:1041300090643FEFF0228B938A838982EDF0A3ECA9
:10414000F0759300222A2A2A23002A0023002A2A13
:104150002A3F00124236EF30E60512423C80F4223C
:104160009046F6E0FFEF4401FFEFF022906576E025
:10417000FFEF4480FFEFF022906576E0FFEF547F81
:10418000FFEFF02239C833F1001A348E385736C2A7
:104190008B938A838982E0759300FF228B938A83B5
:1041A0008982EDF07593002290647FE0FFEF4480F8
:1041B000FFEFF02290640FE0FF90644FE0FF227B5E
:1041C000027A407980123AF322904082E0FFEF5465
:1041D00007FF229044C07408F0229044C87408F08D
:1041E000229044C07410F0229044C87410F02290C1
:1041F00044C07420F0229044C87420F0229044C13E
:104200007402F0229044C97402F0229044D97402DE
:10421000F0227F01122692227F02122692227F0331
:10422000122692227F04122692227F0512269222C3
:10423000906467E0FF2290646BE0FF2290644FE09F
:10424000FF22223232000000000F000000000000B8
:104250008400000000000003000060200000060051
:104260000000000000E00000404000008C00000260
:104270000000000000FF3F000000000000000002FE
:104280000000000000200000060400000000000004
:1042900000190002000000000000001700000000EC
:1042A000000C0401000001000019000600000000DD
:1042B00000000000002002200418000701200080F8
:1042C000000000114402000000000051000CFF0F2C
:1042D000FF4020F005080000002000040004040452
:1042E000042020000140A840200000000000000041
:1042F00000000000000000000000000000000000BE
:1043000000000000000000000000000000000000AD
:1043100000020000000000040000000003010C0087
:10432000710014000000DC040200400010000900CD
:10433000F0001000AC0100021F04E00000000000CB
:1043400020000015005402000000E00B0C16FFFFD7
:10435000FF0000F0440C000000010004000404040D
:104360000400000001000000000000C00000004048
:10437000020000000000000000000000000000003B
:10438000000000000000000000003D00C0000C0024
:10439000F300CF00300000000C0008000000C30054
:1043A0003C0042002000C30010000000F3000400A5
:1043B000000000010000700100003F0080000000CC
:1043C00022000000000000000000000000000000CB
:1043D00000000000000000000000000800040400CD
:1043E00004022000010000000000000000000000A6
:1043F00000000000000000000000000000000000BD
:104400000000000000023200C0000400000521008E
:10441000D200960000000002000004019200920009
:104420000402070068009602000200000002FA0081
:10443000050092000401E0021D04000007000000D6
:104440000A000015006201400005BEFD0C1FFFFFC1
:10445000FF2200F0080400000040000000040404F3
:1044600004101100010000C00040011011C0010043
:1044700011400140010000000000000000000000A9
:1044800000000000000000800000000000000000AC
:1044900000000021001000C1000000000100001E0B
:1044A00000C100020000000000C1000400C10008BB
:1044B00000000000001F01800020004000000000FC
:1044C00000000045000506500004DECF0B1FFFFF73
:1044D000FF2200F00C8C10000000000224040424D1
:1044E000243888083100000000000000004001C0AE
:1044F00001000000000000000000000000000000BB
:10450000000000000000080000000100020001009F
:104510000200140000000900020004001000140052
:104520000000000000000300000000000000040084
:104530001000010002001000040003000C028200C1
:104540000000000004000000000000000000000067
:104550000000000000000000000F00000004040044
:10456000040330000500000000000000000000000F
:10457000000000000000000000000000000000003B
:104580000000000000040000004F001000000000C8
:10459000003E0241014D012206000085008001001D
:1045A00002000000000E00100073000400020078FA
:1045B000100001800A78030F10800400080000003A
:1045C00002000010000000000000000000000000D9
:1045D00000000000000000000000000211040400C0
:1045E0000433000001000000000000000000000093
:1045F00000000000000000000000000000000000BB
:104600000000000000F700000000CF003000300084
:10461000C900000800319EC2605400A00F000007CE
:10462000000094006000000000C0003400777300B8
:1046300000A1FD5202F0FF00000F0000000000008A
:104640000000000001000000000000000000000069
:10465000000000000000000000000008000404004A
:104660000403200001000000000000000000000022
:10467000000000000000000000000000000000003A
:104680000000000000000200140700000100040008
:10469000021002600420001F00100220040C00021F
:1046A000001000A0000B000400080001080000003A
:1046B000000C000100301040080F068001000002CD
:1046C00020000000000000000000000000000000CA
:1046D00000000000000000000000000000040400D2
:1046E0000033000001000000000000000000000096
:1046F00000000000000000000000000000000000BA
:1047000000000000001000000C1000240080000ECB
:104710000000000000100848001000000000020027
:104720000100006200810000000000000010000095
:104730000081000003010180027E0800040A0000DD
:10474000000000041523060000003C402E3BFFFF44
:10475000FF00A00001180080000F00040004040402
:10476000043333000140008000404080004000805E
:104770000040208000000000000000000000000059
:104780000000000000000003000400000000000022
:104790000000000000000000000000000000000118
:1047A0000100000000000000000000000000000404
:1047B00000000000000200040001010000000000F1
:1047C0000000000400400500000001020005FFFF9A
:1047D000FF00A00004180080000000000004040492
:1047E00004344400014000C0004040C000C000C08C
:1047F00000C000C000000000000000000000000039
:10480000000000000000000204000104000000F0AD
:104810000300000100000001000100000000000191
:10482000009800600048008004980020001800A054
:10483000000100000080000402030178040000A0D1
:1048400000000001503401060002000EC024FFFFEA
:10485000FF62A0F0410C0000001A000400040404F0
:104860000430000001000000000000400200103091
:1048700010001010120000000000000000000000F6
:104880000000000000000088000FDDF0220050CE84
:104890000000E740183500CA0000900100F323042F
:1048A000DC3F1EC0010001300E2000003F10C6009A
:1048B00039010000D0001F34E0FF000010000000AC
:1048C0000A000010000000000000000000000000CE
:1048D00000000000000000000000000000040400D0
:1048E00000000000010000000000000000000000C7
:1048F00000000000000000000000000000000000B8
:1049000000000000000000000003001C0000380050
:10491000072424DB126D00924000000000E0001C20
:10492000801C5BE32400470038B66D4912B66D4920
:10493000129249493600C00000FF3F00000000000D
:104940000000001000000000000000000000000057
:104950000000000000000000000000022804040025
:104960000400100001000000000000000000000032
:104970000000000000000000000000000000000037
:104980000000000000040000005640090001620021
:1049900014040D0080048D00000A8D1000004200F8
:1049A000086002000D078D380004000000008D042F
:1049B000000411002208807F000270000F08000030
:1049C000A000001101000000000000000000000035
:1049D00000000000000000000009000000040400C6
:1049E00004111000010000000000000000000000A1
:1049F00000000000000000000000000000000000B7
:104A00000000000000000000000000002000302036
:104A100000130004000E00003005093A06000240B1
:104A20000D0003000C000080000405390A0000009E
:104A300000000040000F00000F3010C020020000F6
:104A400008000040500000000000000000000000CE
:104A50000000000000000000004100040004040009
:104A60000411200001000000000000000000000010
:104A70000000000000000000000000000000000036
:104A80000000000000000000000000000000000026
:104A90000000000000000000000000780F00000788
:104AA0006F7600000F000000000000000000000012
:104AB0000000000000000000000000003A000F00AD
:104AC00047000000001F0000000000000000001967
:104AD00000070000000F00000000000000000005BB
:104AE000000F000D000000000000020000000000A8
:104AF0000040000000000000000000100000000066
:104B000000000000000000000000000000000000A5
:104B10000000000000000000000000000000000095
:104B20000000000000000000000000000000000085
:104B300000000000000000800000000000000000F5
:104B40000000000002000000000000020000000061
:104B50000000000000000000000200000000000053
:104B6000000000000000000202000000000002102F
:104B70000000000000000000000000000000000035
:104B80000040000000020080000000000000000063
:104B9000000000000000000800000000000000000D
:104BA00000000000000400010004000000000000FC
:104BB00000000000000000000004000100010000EF
:104BC00000000004000000010000000400000000DC
:104BD00000000001000000000000000000000000D4
:104BE00000000000000000080000000000000000BD
:104BF0000000200000000000000000000000000095
:104C000000000000000000000000000000000000A4
:104C10000000000000000000000000000000000094
:104C20000000000000000000000000000000000084
:104C30000000000000000000000000000000000074
:104C40000000000000000000000000000000000064
:104C50000000000000000000000000000000000054
:104C60000000000000000000000000000000000044
:104C70000000000000000000000000000000000034
:104C80000040000000020080000020000000000042
:104C90000000008000000000000000000000000094
:104CA0000000000000020001000000000000000001
:104CB00000000000000000000000000000000000F4
:104CC00000000000000000000000000000000000E4
:104CD00000000000000000000000000000000000D4
:104CE0000000000000020000000000000040000082
:104CF00000000000000000000000000000000000B4
:104D00000000000000000000000020000000000083
:104D10000000000000000000000020000000000073
:104D20000000000000000000000000000000000083
:104D30000000000000000000000000000000000073
:104D40000000000000000001000000000000000062
:104D50000000000200000000000000000000000051
:104D60000000000000000000000000000000000043
:104D70000000000000000000000000000000000033
:104D80000000000000000000000000000000000023
:104D9000000000000004000000000000010000000E
:104DA0000000000000000000000000000000000003
:104DB00000000000000000000000000000000000F3
:104DC00000000000000000000000000000000002E1
:104DD00000000001000000000000000000000000D2
:104DE00000000000000000000000000000000000C3
:104DF00002040000000000000000000000000000AD
:104E000000000000000000000000000000000000A2
:104E10000000000000000000000000000000000092
:104E20000000000000000000000000000000000082
:104E30000000000000000000000000000000000072
:104E40000000000000000000000000000000000062
:104E50000000000000000000000000000000000052
:104E60000000000000000000000000000000000042
:104E70000000000000000000000000000000000032
:104E80000000000000000000000000000000000022
:104E90000000000000000000000000000000000012
:104EA00000000000000000060000000000000000FC
:104EB00000000000000000000000000000000000F2
:104EC00000000000000000000000000000000000E2
:104ED00000000000000000000000000000000000D2
:104EE00000000000000402000900900000000080A3
:104EF0003200120010280082000002020800004068
:104F00002800520040048011080018401000A20040
:104F1000000000001009801000028080180080044A
:104F2000100004100800000000001008030000003A
:104F3000000000000000000000000000002004420B
:104F4000000004A00020000402000008400000004F
:104F50000000000000000000000000000000000051
:104F600000800001000010000800000061400802FD
:104F7000400000000000A2901204000080032604FC
:104F800002804802002800920440080000008000CF
:104F900000004000281004400000002050000000E5
:104FA0000000000000CF007D00BF00000000004DA9
:104FB00000FF006E000000000000007F00C800003D
:104FC00000000000000000800005008000300000AC
:104FD0000040000000000000000000000000000091
:104FE00000000000000000000000000000002000A1
:104FF0002000000000000000000000000000000091
:105000000000000000000000000020002000200040
:1050100000850000010000000804044000000000BA
:105020000000000000000000000000000000000080
:105030000000000000000000000000000000000070
:10504000000000000000000000000002000000025C
:105050000000000B00000000000000000000000045
:105060000000000000008B00010840084800010219
:105070000400000EA014680000001042150010008B
:1050800000000000280011010400800440140042C8
:105090000000802840401001000000204400600013
:1050A000004010040000000000400100000000006B
:1050B00000000000000000000000000000000000F0
:1050C00000000000000008000000000000288180AF
:1050D000000000000040000102000000000000008D
:1050E000000000000000200002000000002100007D
:1050F000000000000048401012840885800204046B
:105100001D800220400055B30478004400040000D4
:10511000000000000000000000000000000000008F
:105120000000000000F500FB00F70000000000FF99
:10513000007D007C00000000000000000002000074
:10514000000000000000000000000000000000005F
:105150000008000000000000000000000000000047
:10516000000000000022000022080000400028414A
:105170000000000008404004080000001004848182
:1051800000000200180004A00008000000800000D9
:1051900000000000000000000000000010220800D5
:1051A00000000000001028020200020000040000BD
:1051B00000000000880100004000000040002000C6
:1051C00001000000004010804000000000000000CE
:1051D000000000000000000000000000400000008F
:1051E000000000000040000000000000400000003F
:1051F00010000000003040000000008080401006D9
:1052000018008000001000000200002000100000C4
:10521000000000000100000000000000000000008D
:1052200000000000003F004F004F000000000001A0
:1052300000200007008F001400000005000D000092
:10524000000000000000002000000000000000003E
:105250000008000100000000000000000000000045
:105260000000000000200200000000080801088182
:105270000000000000280040000200000010104064
:105280000000001000004182104840210009020087
:105290000000200840280080000000204580020413
:1052A00010400024008C400000000000000044007A
:1052B0001200000000000054000000000000200068
:1052C00010008000001000500002000000000000EC
:1052D00000000000000000000000000000000000CE
:1052E00000000000004000400000000000004000FE
:1052F00000000000000040000040080000008000A6
:105300001D00102000001D1004400064000000017A
:1053100000000000000020005000000042000000DB
:1053200000000000000A000D008E0000000000EDEB
:1053300000FE007F000D000C00000010001E0000A9
:105340000000000000040000000000000010000049
:1053500000000080000000000000000000000000CD
:1053600000000000008000000000805000000008E5
:105370008040002200000200000000042800140009
:1053800001602022080010140800080081408000FD
:1053900028000100008000140000000080000000D0
:1053A0000000000100401000000028A00140810022
:1053B0000000000000800004000000502000058074
:1053C0002000010000800000002000A1000000007B
:1053D00000000000000000000000000000000000CD
:1053E00000000000000040030080000000000000FA
:1053F000000000000020010100000000002000006B
:105400001000000000000100020000200000010068
:10541000000000000000010000000020000000006B
:105420000000000000B100AA002800000000008F6A
:10543000001E0080002500080000008F00F1000021
:105440000000000000000000000000040000000058
:10545000000000010000000000000000000000004B
:105460000000000000800080400000000000008577
:105470000000000000001400000000000000C44410
:1054800000000000010001000000000129000000F0
:10549000000041200000000800000024010000007E
:1054A0000042280000000040000000000000509072
:1054B0000000000000000800500000000000000094
:1054C0000004008012001000000000040400148199
:1054D00000000000000000000000000000000800C4
:1054E000400800000000000008000000000000006C
:1054F0001200000000044100040002000208000441
:1055000014002400600115080600000000000000DF
:10551000000000000000000000000000000000008B
:10552000000000000009000B00060000000000B0B1
:1055300000E200F00001000C000000F00064000038
:105540000000004300000000000000000000000018
:10555000000000000000000000000000000000004B
:105560000000000000000000020000000000000039
:1055700000000000002000010000000000200000EA
:10558000100000000000000000000000000000000B
:10559000000000000000000000000000000000000B
:1055A00000000000000000000000000000000000FB
:1055B00000000000000000000000000000000000EB
:1055C00000000000000000040000000000000000D7
:1055D00000000000000000000000000000000000CB
:1055E00000000000004002000088008000000088E9
:1055F00020020808000604000040201080800208F5
:10560000010029000840000000000214020C1010E4
:1056100001000000094201440000001002082400BB
:1056200020000080000000000000000000000000DA
:105630000000000000000000000000000000240046
:105640004000000020000080180000000000000062
:1056500000006B00000000000001000014000000CA
:105660000000000000000080000000001008028020
:1056700000000000000C208004000208000010045C
:105680008000020000000008020A20000100000063
:1056900002000000000004000020002000000000C4
:1056A0000000000000B9007E00F700000000003C90
:1056B00000AB0016000000000000002E000E0000ED
:1056C00000000000000000000000000000000000DA
:1056D000000000400000000000000000000000008A
:1056E0000000000000200000000000010000000099
:1056F000000000000020000000000000000000008A
:105700001000000000000000000000000010000079
:105710000000000000000000000000001000000079
:105720000000000000000000000000000000000079
:105730000000000000000000000000000000000069
:105740000000000000000008000000040000000449
:105750000000000000000000000000000000000049
:1057600000000000000080002008110000000094EC
:10577000014A000002420000080021010008819453
:1057800000001808210010084944000021200000F2
:1057900000000000010000080000200001002A00B5
:1057A0004000010000000000000028000000000090
:1057B0000000210404000000000000250200000099
:1057C00000400208200000000000000080000000EF
:1057D0000000000000000000000000008000000049
:1057E0000000000000000000000000004000000079
:1057F00000000000000000000000000000000000A9
:105800000000000000000000000000000000000098
:105810000000000000000000000000000000000088
:1058200000000000007500BF00DD00000000001255
:1058300000A2008F00600020000000F00080000047
:105840000000000000000000000000000000000058
:105850000000000000000000000000000000000048
:105860000000000000000000000000000000000038
:105870000000000000000000000000000000000028
:105880000000000000000000000000000000000018
:105890000000000000000000000000000000000008
:1058A00000000000000000000000000000000000F8
:1058B00000000000000000000000000000000000E8
:1058C00000000000000000080000000000000000D0
:1058D00000000000000000000000000000000000C8
:1058E00000000000000000000000000000000000B8
:1058F00000000000000000000000000000000000A8
:105900000000000000000080000000000000000017
:105910000000000000000000000000000000000087
:105920000000000000000000000000000000000077
:105930000000000000000000000000000000000067
:105940000000000000000000000000000000000057
:105950000000000000000000000000000000000047
:10596000000000000000000000000000080000002F
:105970000000000000000000000000000000000027
:10598000000000000000000000000080080000008F
:105990000000000000000000000000000000000007
:1059A00000000000000000000000000000100000E7
:1059B00000000000000000000000000000000000E7
:1059C0000000000000000000000000400000000097
:1059D00000000000000000000000000000000000C7
:1059E00000000000000000000000000000000000B7
:1059F00000000000000000000000000000000000A7
:105A00000000000000000000000000000000000096
:105A10000000000000000000000000000000000086
:105A20000000000000000000000000000000000076
:105A30000000000000000000000000000010000056
:105A40000000000000000000000000000000000056
:105A50000000000000000000000000000000000046
:105A600000000000000000008000000002100000A4
:105A70000000000000000000000000000000000026
:105A8000000000000200000000000080880000000C
:105A90000000000000000000000000000000000006
:105AA00000000000000000000000000000000000F6
:105AB0000000000000000000008000000000000066
:105AC0000000000000000000000000600000000076
:105AD00000000000000000000000000000000000C6
