:10000000023BF9008F828E83E0540100000070F8FB
:100010002278FFE4F6D8FD023CC490009412354EDD
:10002000124893124A3B900094123545123358FF00
:10003000EF12355700C303010806012C0902650AB7
:1000400003040B03870C040A10042611043F1C044C
:10005000F640050F45060D4607324707534807741B
:100060005008EF510074F1008DF200E7FC1108FF19
:10007000000011881244FF7BFF7A3E79401246E966
:10008000125039EF30E10302118880F4221244FF4C
:10009000905015E0FFEF4401FFEFF07F647E001207
:1000A0004B7C905014E0FFEF4401FFEFF07BFF7AB0
:1000B0003E79461246E9125039EF30E103021188C9
:1000C00080F4221244FF905012E0FFEF4401FFEF52
:1000D000F07BFF7A3E794C1246E9125039EF30E15D
:1000E0000302118880F422905011E0FFEF4401FFD9
:1000F000EFF07BFF7A3E79521246E9125039EF3029
:10010000E10302118880F4221244FF905013E0FFB3
:10011000EF4401FFEFF07BFF7A3E79581246E91277
:100120005039EF30E10302118880F42290501CE036
:10013000FFEF4401FFEFF090501DE0FFEF4401FF9F
:10014000EFF09000EDE0FEA3E0FFE4FCFD1243CEF3
:10015000900095E475F001123383900094123545B8
:10016000123358FF7E00121F6C90010AE0FF9000CE
:10017000D2EFF09000EDE0FEA3E0FFE4FCFD1243BF
:10018000CE900095E475F0011233839000941235FF
:1001900045123358FF7E001227E490010BE0FF90D8
:1001A00000D4EFF09000FBE0FF9000D6EFF090015C
:1001B00002E0FF9000D8EFF09000EBE0FF9000DA53
:1001C000EFF09000F3E0FF9000DCEFF09000F8E03B
:1001D000FF9000DEEFF0900106E0FF9000E0EFF00E
:1001E0009000D0E0FEA3E0FFE4FCFD1243CE7BFFD5
:1001F0007A3E795E1246E9125039EF30E1F97BFF21
:100200007A3E79601246E9125039EF30E1F97BFF0E
:100210007A3E79621246E9125039EF30E1F97BFFFC
:100220007A3E79621246E9125039EF30E1F97BFFEC
:100230007A3E79641246E9125039EF30E1F97BFFDA
:100240007A3E795E1246E9125039EF30E1F97BFFD0
:100250007A3E795E1246E9125039EF30E1F91248E0
:1002600093124A3B227BFF7A3E793B1246E91250B9
:1002700039EF30E1F9124BA990502CE0FFEF54FE1A
:10028000FFEFF07F151247E67F151247E67F151244
:1002900047E6124E60EF20E10A124E80900098EF80
:1002A000F080EF7F0E7E00124B7C90502CE0FFEF31
:1002B0004401FFEFF07F057E00124B7C124E70EF81
:1002C0007003021188124E80900098EFF090009811
:1002D000E0FFEFB4150C900098E0FF900097EFF06E
:1002E0008005900097E4F0900097E0FF12456412BB
:1002F0005039EF30E1F9124E4F900097E4F0900042
:1003000098E4F022900095E475F001123383905048
:100310001CE0FFEF4401FFEFF090501DE0FFEF44C1
:1003200001FFEFF09000EDE0FEA3E0FFE4FCFD1222
:1003300043CE900094123545123358FF7E00121FB1
:100340006C7BFF7A3E79661246E9125039EF30E154
:10035000F97BFF7A3E79661246E9125039EF30E1B7
:10036000F97BFF7A3E79661246E9125039EF30E1A7
:10037000F97BFF7A3E79681246E9125039EF30E195
:100380000302118880F422900095E475F001123385
:100390008390501CE0FFEF4401FFEFF090501DE010
:1003A000FFEF4401FFEFF09000EDE0FEA3E0FFE47B
:1003B000FCFD1243CE900094123545123358FF7E57
:1003C000001227E47BFF7A3E79661246E912503923
:1003D000EF30E1F97BFF7A3E79661246E912503937
:1003E000EF30E1F97BFF7A3E79661246E912503927
:1003F000EF30E1F97BFF7A3E79681246E912503915
:10040000EF30E10302118880F422124DB1124F75D2
:100410007BFF7A3E793B1246E9125039EF30E10317
:1004200002118880F422124F817BFF7A3E793B12C1
:1004300046E9125039EF30E10302118880F422902E
:100440000095E475F0011233839000941235451243
:100450003358FFEF600E900094123545123358FF69
:10046000EFB40125900094123545123358FF9001E6
:1004700043EFF07BFF7A3E793B1246E9125039EFA9
:1004800030E10302118880F4229000941235451265
:100490003358FFEFB40F167BFF7A3E793B1246E9E3
:1004A000125039EF30E10302118880F422900100EC
:1004B000E4F0900100E0FFEFD3941F501990010089
:1004C000E0FF74092FF582E43401F583E4F0900134
:1004D00000E004F080DC9000FEE4F09000F9E4F02D
:1004E0007BFF7A3E796A1246E9125039EF30E10318
:1004F00002118880F4221244FF7BFF7A3E793B127E
:1005000046E9125039EF30E10302118880F4227B72
:10051000FF7A3E793B1246E9125039EF30E1F9900B
:1005200000F0E4F0905015E0FFEF30E4109000F0A0
:10053000E0FFEF4401FF9000F0EFF0800E9000F03C
:10054000E0FFEF54FEFF9000F0EFF0905014E0FF5A
:10055000EF30E4109000F0E0FFEF4402FF9000F075
:10056000EFF0800E9000F0E0FFEF54FDFF9000F000
:10057000EFF0905012E0FFEF30E4109000F0E0FF59
:10058000EF4404FF9000F0EFF0800E9000F0E0FFE9
:10059000EF54FBFF9000F0EFF0905013E0FFEF30CE
:1005A000E4109000F0E0FFEF4408FF9000F0EFF05F
:1005B000800E9000F0E0FFEF54F7FF9000F0EFF0B6
:1005C000905011E0FFEF30E4109000F0E0FFEF44B6
:1005D00010FF9000F0EFF0800E9000F0E0FFEF547D
:1005E000EFFF9000F0EFF09000F0E0FFEF541FFFFE
:1005F0009000F0EFF0124A3B9000F0E0FF124564EB
:10060000125039EF30E10302118880F4227BFF7A27
:100610003E793B1246E9125039EF30E1F99000F093
:10062000E4F0905016E0FFEF30E4109000F0E0FFAF
:10063000EF4401FF9000F0EFF0800E9000F0E0FF3B
:10064000EF54FEFF9000F0EFF0905017E0FFEF3016
:10065000E4109000F0E0FFEF4402FF9000F0EFF0B4
:10066000800E9000F0E0FFEF54FDFF9000F0EFF0FF
:10067000905064E0FFEF30E4109000F0E0FFEF44B2
:1006800004FF9000F0EFF0800E9000F0E0FFEF54D8
:10069000FBFF9000F0EFF0905065E0FFEF30E410CA
:1006A0009000F0E0FFEF4408FF9000F0EFF0800EC4
:1006B0009000F0E0FFEF54F7FF9000F0EFF0905063
:1006C00034E0FFEF30E4109000F0E0FFEF4410FF63
:1006D0009000F0EFF0800E9000F0E0FFEF54EFFF9D
:1006E0009000F0EFF0905033E0FFEF30E410900016
:1006F000F0E0FFEF4420FF9000F0EFF0800E90005C
:10070000F0E0FFEF54DFFF9000F0EFF09000F0E03A
:10071000FFEF543FFF9000F0EFF0124A3B9000F0E3
:10072000E0FF124564125039EF30E1030211888076
:10073000F422905033E0FFEF4401FFEFF07BFF7AAB
:100740003E796F1246E9125039EF30E10302118809
:1007500080F422905033E0FFEF54FEFFEFF07BFF78
:100760007A3E79751246E9125039EF30E1030211F1
:100770008880F422900095E475F001123383900094
:1007800094123545123358FFEF64017025124A0365
:100790007D017F9B7E00123789124D5D7BFF7A3E83
:1007A000793B1246E9125039EF30E103021188809B
:1007B000F422900094123545123358FFEF64027012
:1007C00025124A037D017F4D7E00123789124D5D4F
:1007D0007BFF7A3E793B1246E9125039EF30E10354
:1007E00002118880F422900094123545123358FF8C
:1007F000EF64037025124A037D017F257E001237C6
:1008000089124D5D7BFF7A3E793B1246E9125039E1
:10081000EF30E10302118880F422900094123545F4
:10082000123358FFEF64047025124A037D017F19CB
:100830007E00123789124D5D7BFF7A3E793B12466E
:10084000E9125039EF30E10302118880F422900060
:1008500094123545123358FFEF64057025124A0390
:100860007D017F0C7E00123789124D5D7BFF7A3E41
:10087000793B1246E9125039EF30E10302118880CA
:10088000F422900094123545123358FFEFB40F163E
:100890007BFF7A3E793B1246E9125039EF30E10393
:1008A00002118880F422900100E4F0900100E0FF42
:1008B000EFD3941F5019900100E0FF74092FF582C7
:1008C000E43401F583E4F0900100E004F080DC9072
:1008D00000FEE4F09000F9E4F07BFF7A3E796A12C2
:1008E00046E9125039EF30E10302118880F4227F8B
:1008F000F47E01124B7C900095E475F00112338375
:10090000900094123545123358FF9000FFEFF0909D
:100910005033E0FFEF5410FF7E00EF4E60030210F3
:10092000B4900094123545123358FFEF1235570931
:100930007B0009C8010A15020A62030AAF040AFC17
:10094000050B49060B96070BE3080C30090C7D0AD2
:100950000CCA0B0D170C0D640D0DB10E0DFE0F0E14
:100960004B100E98110EE5120F32130F7F140FCC9F
:100970001510191610661700001188905016E0FF28
:10098000EF54FEFFEFF0905017E0FFEF54FEFFEF43
:10099000F0905064E0FFEF54FEFFEFF0905065E000
:1009A000FFEF54FEFFEFF0905034E0FFEF54FEFFF6
:1009B000EFF07BFF7A3E797B1246E9125039EF3037
:1009C000E10302118880F422905016E0FFEF440109
:1009D000FFEFF0905017E0FFEF54FEFFEFF0905064
:1009E00064E0FFEF54FEFFEFF0905065E0FFEF543E
:1009F000FEFFEFF0905034E0FFEF54FEFFEFF07B8E
:100A0000FF7A3E79811246E9125039EF30E1030254
:100A1000118880F422905016E0FFEF54FEFFEFF0B3
:100A2000905017E0FFEF4401FFEFF0905064E0FFBB
:100A3000EF54FEFFEFF0905065E0FFEF54FEFFEF44
:100A4000F0905034E0FFEF54FEFFEFF07BFF7A3E72
:100A500079871246E9125039EF30E103021188809C
:100A6000F422905016E0FFEF4401FFEFF090501792
:100A7000E0FFEF4401FFEFF0905064E0FFEF54FE21
:100A8000FFEFF0905065E0FFEF54FEFFEFF0905065
:100A900034E0FFEF54FEFFEFF07BFF7A3E798D12DA
:100AA00046E9125039EF30E10302118880F42290B8
:100AB0005016E0FFEF54FEFFEFF0905017E0FFEF0D
:100AC00054FEFFEFF0905064E0FFEF4401FFEFF0C1
:100AD000905065E0FFEF54FEFFEFF0905034E0FFE0
:100AE000EF54FEFFEFF07BFF7A3E79931246E91256
:100AF0005039EF30E10302118880F422905016E063
:100B0000FFEF4401FFEFF0905017E0FFEF54FEFFBE
:100B1000EFF0905064E0FFEF4401FFEFF09050657C
:100B2000E0FFEF54FEFFEFF0905034E0FFEF54FE93
:100B3000FFEFF07BFF7A3E79991246E9125039EFC8
:100B400030E10302118880F422905016E0FFEF5448
:100B5000FEFFEFF0905017E0FFEF4401FFEFF09041
:100B60005064E0FFEF4401FFEFF0905065E0FFEFCD
:100B700054FEFFEFF0905034E0FFEF54FEFFEFF033
:100B80007BFF7A3E799F1246E9125039EF30E1033C
:100B900002118880F422905016E0FFEF4401FFEF2D
:100BA000F0905017E0FFEF4401FFEFF0905064E049
:100BB000FFEF4401FFEFF0905065E0FFEF54FEFFC0
:100BC000EFF0905034E0FFEF54FEFFEFF07BFF7A40
:100BD0003E79A51246E9125039EF30E1030211883F
:100BE00080F422905016E0FFEF54FEFFEFF090509B
:100BF00017E0FFEF54FEFFEFF0905064E0FFEF547A
:100C0000FEFFEFF0905065E0FFEF4401FFEFF09042
:100C10005034E0FFEF54FEFFEFF07BFF7A3E79ABFC
:100C20001246E9125039EF30E10302118880F422B4
:100C3000905016E0FFEF4401FFEFF0905017E0FFF7
:100C4000EF54FEFFEFF0905064E0FFEF54FEFFEF33
:100C5000F0905065E0FFEF4401FFEFF0905034E07A
:100C6000FFEF54FEFFEFF07BFF7A3E79B11246E9C9
:100C7000125039EF30E10302118880F422905016AF
:100C8000E0FFEF54FEFFEFF0905017E0FFEF44015C
:100C9000FFEFF0905064E0FFEF54FEFFEFF0905054
:100CA00065E0FFEF4401FFEFF0905034E0FFEF54B8
:100CB000FEFFEFF07BFF7A3E79B71246E91250391A
:100CC000EF30E10302118880F422905016E0FFEF2C
:100CD0004401FFEFF0905017E0FFEF4401FFEFF009
:100CE000905064E0FFEF54FEFFEFF0905065E0FF9E
:100CF000EF4401FFEFF0905034E0FFEF54FEFFEFC0
:100D0000F07BFF7A3E79BD1246E9125039EF30E1AF
:100D10000302118880F422905016E0FFEF54FEFF8A
:100D2000EFF0905017E0FFEF54FEFFEFF0905064AB
:100D3000E0FFEF4401FFEFF0905065E0FFEF44016A
:100D4000FFEFF0905034E0FFEF54FEFFEFF07BFF39
:100D50007A3E79C31246E9125039EF30E1030211AD
:100D60008880F422905016E0FFEF4401FFEFF090EE
:100D70005017E0FFEF54FEFFEFF0905064E0FFEFFC
:100D80004401FFEFF0905065E0FFEF4401FFEFF00A
:100D9000905034E0FFEF54FEFFEFF07BFF7A3E7996
:100DA000C91246E9125039EF30E10302118880F48C
:100DB00022905016E0FFEF54FEFFEFF0905017E046
:100DC000FFEF4401FFEFF0905064E0FFEF4401FFBC
:100DD000EFF0905065E0FFEF4401FFEFF0905034EA
:100DE000E0FFEF54FEFFEFF07BFF7A3E79CF124633
:100DF000E9125039EF30E10302118880F42290505B
:100E000016E0FFEF4401FFEFF0905017E0FFEF44D2
:100E100001FFEFF0905064E0FFEF4401FFEFF0902E
:100E20005065E0FFEF4401FFEFF0905034E0FFEF3A
:100E300054FEFFEFF07BFF7A3E79D51246E912505F
:100E400039EF30E10302118880F422905016E0FF60
:100E5000EF54FEFFEFF0905017E0FFEF54FEFFEF6E
:100E6000F0905064E0FFEF54FEFFEFF0905065E02B
:100E7000FFEF54FEFFEFF0905034E0FFEF4401FF2E
:100E8000EFF07BFF7A3E79DB1246E9125039EF3002
:100E9000E10302118880F422905016E0FFEF440134
:100EA000FFEFF0905017E0FFEF54FEFFEFF090508F
:100EB00064E0FFEF54FEFFEFF0905065E0FFEF5469
:100EC000FEFFEFF0905034E0FFEF4401FFEFF07BC6
:100ED000FF7A3E79E11246E9125039EF30E1030220
:100EE000118880F422905016E0FFEF54FEFFEFF0DF
:100EF000905017E0FFEF4401FFEFF0905064E0FFE7
:100F0000EF54FEFFEFF0905065E0FFEF54FEFFEF6F
:100F1000F0905034E0FFEF4401FFEFF07BFF7A3EAA
:100F200079E71246E9125039EF30E1030211888067
:100F3000F422905016E0FFEF4401FFEFF0905017BD
:100F4000E0FFEF4401FFEFF0905064E0FFEF54FE4C
:100F5000FFEFF0905065E0FFEF54FEFFEFF0905090
:100F600034E0FFEF4401FFEFF07BFF7A3E79ED12B2
:100F700046E9125039EF30E10302118880F42290E3
:100F80005016E0FFEF54FEFFEFF0905017E0FFEF38
:100F900054FEFFEFF0905064E0FFEF4401FFEFF0EC
:100FA000905065E0FFEF54FEFFEFF0905034E0FF0B
:100FB000EF4401FFEFF07BFF7A3E79F31246E9122E
:100FC0005039EF30E10302118880F422905016E08E
:100FD000FFEF4401FFEFF0905017E0FFEF54FEFFEA
:100FE000EFF0905064E0FFEF4401FFEFF0905065A8
:100FF000E0FFEF54FEFFEFF0905034E0FFEF4401CC
:10100000FFEFF07BFF7A3E79F91246E9125039EF93
:1010100030E10302118880F422905016E0FFEF5473
:10102000FEFFEFF0905017E0FFEF4401FFEFF0906C
:101030005064E0FFEF4401FFEFF0905065E0FFEFF8
:1010400054FEFFEFF0905034E0FFEF4401FFEFF06B
:101050007BFF7A3E79FF1246E9125039EF30E10307
:1010600002118880F422905016E0FFEF4401FFEF58
:10107000F0905017E0FFEF4401FFEFF0905064E074
:10108000FFEF4401FFEFF0905065E0FFEF54FEFFEB
:10109000EFF0905034E0FFEF4401FFEFF07BFF7A78
:1010A0003F79051246E9125039EF30E10302118809
:1010B00080F42222900100E4F0900100E0FFEFD3E1
:1010C000941F5019900100E0FF74092FF582E43459
:1010D00001F583E4F0900100E004F080DC7F017E04
:1010E000007D007C001243CE9000FEE4F09000F9F9
:1010F000E4F07BFF7A3F790B1246E9125039EF306A
:10110000E10302118880F422900095E475F0011249
:101110003383900094123545123358FFEFB4FF0427
:10112000124F6922900094123545123358FFEFB4E4
:101130000F137BFF7A3E793B1246E9125039EF20BC
:10114000E14680F722900100E4F0900100E0FFEF1B
:10115000D3941F5019900100E0FF74092FF582E429
:101160003401F583E4F0900100E004F080DC9000AD
:10117000FEE4F09000F9E4F07BFF7A3E796A1246D3
:10118000E9125039EF30E1F9229000A9E4F0900023
:10119000AAE4F09000ABE4F09000AFE4F07F01121D
:1011A00032F91241D09000A8EFF09000A9E0FFEFD3
:1011B0006003021E639000A8E0FFEF64FF7045909B
:1011C0000100E4F09000A8E0FF900100E0FE740947
:1011D0002EF582E43401F583EFF0900100E004F095
:1011E0009000A97401F09000AE7402F07BFF7A4F7A
:1011F000794E1246E9125039EF30E103021EE780C2
:10120000F4021EE79000A8E0FFEF7010124A3B9036
:1012100000AAE4F09000A9E4F0021EE79000A8E024
:10122000FFEF640160030212E4900129E4F09050A2
:1012300003E0FFEF30E410900129E0FFEF54F7FFE7
:10124000900129EFF0800E900129E0FFEF4408FFA4
:10125000900129EFF0905021E0FFEF30E410900171
:1012600029E0FFEF547FFF900129EFF0800E9001FD
:1012700029E0FFEF4480FF900129EFF07FE87E0333
:10128000124B7C7BFF7A4F79531246E9125039EFAB
:1012900030E1F97BFF7A4F79531246E9125039EF6A
:1012A00030E1F97BFF7A4F79531246E9125039EF5A
:1012B00030E1F97BFF7A4F79551246E9125039EF48
:1012C00030E1F9900129E0FF124564125039EF3006
:1012D000E1F9900129E4F09000AAE4F09000A9E47B
:1012E000F0021EE79000A8E0FFEF64F1706C90013F
:1012F00000E4F0900100E0FFEFD394085019900152
:1013000000E0FF74092FF582E43401F583E4F090E6
:101310000100E004F080DC900100E4F09000A8E01F
:10132000FF900100E0FE74092EF582E43401F5839C
:10133000EFF0900100E0FF74092FF582E43401F52D
:1013400083E0FF90012BEFF07F011232D29000AAD0
:10135000E4F09000A9E4F0021EE79000A8E0FFEF9F
:1013600064F2706C900100E4F0900100E0FFEFD3B4
:1013700094085019900100E0FF74092FF582E434BD
:1013800001F583E4F0900100E004F080DC900100BE
:10139000E4F09000A8E0FF900100E0FE74092EF553
:1013A00082E43401F583EFF0900100E0FF74092F2F
:1013B000F582E43401F583E0FF90012BEFF07F012B
:1013C0001232D29000AAE4F09000A9E4F0021EE7E5
:1013D0009000A8E0FFEF6403706C900100E4F090CF
:1013E0000100E0FFEFD394085019900100E0FF7472
:1013F000092FF582E43401F583E4F0900100E00464
:10140000F080DC900100E4F09000A8E0FF90010083
:10141000E0FE74092EF582E43401F583EFF09001CB
:1014200000E0FF74092FF582E43401F583E0FF90BA
:10143000012BEFF07F011232D29000AAE4F090006D
:10144000A9E4F0021EE79000A8E0FFEF64FC706CD6
:10145000900100E4F0900100E0FFEFD394085019F0
:10146000900100E0FF74092FF582E43401F583E474
:10147000F0900100E004F080DC900100E4F09000C6
:10148000A8E0FF900100E0FE74092EF582E434012B
:10149000F583EFF0900100E0FF74092FF582E4344A
:1014A00001F583E0FF90012BEFF07F011232D29023
:1014B00000AAE4F09000A9E4F0021EE79000A8E082
:1014C000FFEF6406706C900100E4F0900100E0FF13
:1014D000EFD394085019900100E0FF74092FF582B2
:1014E000E43401F583E4F0900100E004F080DC9046
:1014F0000100E4F09000A8E0FF900100E0FE740914
:101500002EF582E43401F583EFF0900100E0FF74E2
:10151000092FF582E43401F583E0FF90012BEFF011
:101520007F011232D29000AAE4F09000A9E4F00208
:101530001EE79000A8E0FFEF6408702C7BFF7A4F55
:10154000794E1246E9125039EF30E1F9124A3B7FE9
:1015500027124564125039EF30E1F99000AAE4F007
:101560009000A9E4F0021EE79000A8E0FFEF64D02D
:1015700070387BFF7A4F794E1246E9125039EF30BE
:10158000E1F9124A3B7F03124564125039EF30E112
:10159000F97F01124564125039EF30E1F99000AA49
:1015A000E4F09000A9E4F0021EE79000A8E0FFEF4D
:1015B00064097045900100E4F09000A8E0FF9001FC
:1015C00000E0FE74092EF582E43401F583EFF0901B
:1015D0000100E004F09000A97402F09000AE7403E2
:1015E000F07BFF7A4F794E1246E9125039EF30E125
:1015F00003021EE780F4021EE79000A8E0FFEF64FC
:101600000A7043900100E4F09000A8E0FF90010010
:10161000E0FE74092EF582E43401F583EFF09001C9
:1016200000E0FF74092FF582E43401F583E0FF90B8
:10163000012BEFF07F011232D29000AAE4F090006B
:10164000A9E4F0021EE79000A8E0FFEF640B7045EC
:10165000900100E4F09000A8E0FF900100E0FE742B
:10166000092EF582E43401F583EFF0900100E004E7
:10167000F09000A97401F09000AE7402F07BFF7A44
:101680004F794E1246E9125039EF30E103021EE75E
:1016900080F4021EE79000A8E0FFEF640C70459014
:1016A0000100E4F09000A8E0FF900100E0FE740962
:1016B0002EF582E43401F583EFF0900100E004F0B0
:1016C0009000A97401F09000AE7402F07BFF7A4F95
:1016D000794E1246E9125039EF30E103021EE780DD
:1016E000F4021EE79000A8E0FFEF6410706C900118
:1016F00000E4F0900100E0FFEFD39408501990014E
:1017000000E0FF74092FF582E43401F583E4F090E2
:101710000100E004F080DC900100E4F09000A8E01B
:10172000FF900100E0FE74092EF582E43401F58398
:10173000EFF0900100E0FF74092FF582E43401F529
:1017400083E0FF90012BEFF07F011232D29000AACC
:10175000E4F09000A9E4F0021EE79000A8E0FFEF9B
:101760006411706C900100E4F0900100E0FFEFD391
:1017700094085019900100E0FF74092FF582E434B9
:1017800001F583E4F0900100E004F080DC900100BA
:10179000E4F09000A8E0FF900100E0FE74092EF54F
:1017A00082E43401F583EFF0900100E0FF74092F2B
:1017B000F582E43401F583E0FF90012BEFF07F0127
:1017C0001232D29000AAE4F09000A9E4F0021EE7E1
:1017D0009000A8E0FFEF6418600302199B900107D6
:1017E000E0FFEF600302193F905003E0FFEF30E4A9
:1017F0001090012AE0FFEF4408FF90012AEFF080EB
:101800000E90012AE0FFEF54F7FF90012AEFF090CD
:101810005000E0FFEF30E41090012AE0FFEF4401B8
:10182000FF90012AEFF0800E90012AE0FFEF54FEB6
:10183000FF90012AEFF0905001E0FFEF30E41090AC
:10184000012AE0FFEF4402FF90012AEFF0800E90A2
:10185000012AE0FFEF54FDFF90012AEFF0905002C3
:10186000E0FFEF30E41090012AE0FFEF4404FF9026
:10187000012AEFF0800E90012AE0FFEF54FBFF9069
:10188000012AEFF0905021E0FFEF30E41090012AA0
:10189000E0FFEF4480FF90012AEFF0800E90012AD4
:1018A000E0FFEF547FFF90012AEFF0905020E0FF1F
:1018B000EF30E41090012AE0FFEF4440FF90012A4E
:1018C000EFF0800E90012AE0FFEF54BFFF90012A55
:1018D000EFF0905063E0FFEF30E41090012AE0FF5A
:1018E000EF4420FF90012AEFF0800E90012AE0FFE4
:1018F000EF54DFFF90012AEFF0905062E0FFEF30ED
:10190000E41090012AE0FFEF4410FF90012AEFF06D
:10191000800E90012AE0FFEF54EFFF90012AEFF0D4
:101920007FF47E01124B7C90012AE0FFEF6488FF78
:1019300090012AEFF090012AE0FF900107EFF07B81
:10194000FF7A4F79531246E9125039EF30E1F97BB3
:10195000FF7A4F79531246E9125039EF30E1F97BA3
:10196000FF7A4F79531246E9125039EF30E1F97B93
:10197000FF7A4F79551246E9125039EF30E1F9906C
:101980000107E0FF124564125039EF30E1F9900091
:10199000AAE4F09000A9E4F0021EE79000A8E0FF9E
:1019A000EF641C7045900100E4F09000A8E0FF9007
:1019B0000100E0FE74092EF582E43401F583EFF0B6
:1019C000900100E004F09000A97401F09000AE7462
:1019D00002F07BFF7A4F794E1246E9125039EF3010
:1019E000E103021EE780F4021EE79000A8E0FFEF8B
:1019F0006440706C900100E4F0900100E0FFEFD3D0
:101A000094085019900100E0FF74092FF582E43426
:101A100001F583E4F0900100E004F080DC90010027
:101A2000E4F09000A8E0FF900100E0FE74092EF5BC
:101A300082E43401F583EFF0900100E0FF74092F98
:101A4000F582E43401F583E0FF90012BEFF07F0194
:101A50001232D29000AAE4F09000A9E4F0021EE74E
:101A60009000A8E0FFEF6445706C900100E4F090F6
:101A70000100E0FFEFD394085019900100E0FF74DB
:101A8000092FF582E43401F583E4F0900100E004CD
:101A9000F080DC900100E4F09000A8E0FF900100ED
:101AA000E0FE74092EF582E43401F583EFF0900135
:101AB00000E0FF74092FF582E43401F583E0FF9024
:101AC000012BEFF07F011232D29000AAE4F09000D7
:101AD000A9E4F0021EE79000A8E0FFEF6446706CF6
:101AE000900100E4F0900100E0FFEFD3940850195A
:101AF000900100E0FF74092FF582E43401F583E4DE
:101B0000F0900100E004F080DC900100E4F090002F
:101B1000A8E0FF900100E0FE74092EF582E4340194
:101B2000F583EFF0900100E0FF74092FF582E434B3
:101B300001F583E0FF90012BEFF07F011232D2908C
:101B400000AAE4F09000A9E4F0021EE79000A8E0EB
:101B5000FFEF6447706C900100E4F0900100E0FF3B
:101B6000EFD394085019900100E0FF74092FF5821B
:101B7000E43401F583E4F0900100E004F080DC90AF
:101B80000100E4F09000A8E0FF900100E0FE74097D
:101B90002EF582E43401F583EFF0900100E0FF744C
:101BA000092FF582E43401F583E0FF90012BEFF07B
:101BB0007F011232D29000AAE4F09000A9E4F00272
:101BC0001EE79000A8E0FFEF6448706C900100E40D
:101BD000F0900100E0FFEFD394085019900100E06D
:101BE000FF74092FF582E43401F583E4F0900100DD
:101BF000E004F080DC900100E4F09000A8E0FF90A9
:101C00000100E0FE74092EF582E43401F583EFF063
:101C1000900100E0FF74092FF582E43401F583E0C0
:101C2000FF90012BEFF07F011232D29000AAE4F076
:101C30009000A9E4F0021EE79000A8E0FFEF6450D6
:101C40007045900100E4F09000A8E0FF900100E0F2
:101C5000FE74092EF582E43401F583EFF090010063
:101C6000E004F09000A97401F09000AE7402F07BE3
:101C7000FF7A4F794E1246E9125039EF30E10302F4
:101C80001EE780F4021EE79000A8E0FFEF645170A9
:101C900049900100E4F09000A8E0FF900100E0FE10
:101CA00074092EF582E43401F583EFF0900100E031
:101CB00004F09000A97401F09000AE7402F0124894
:101CC00093124A3B7BFF7A4F794E1246E912503904
:101CD000EF30E1F9124A3B021EE79000A8E0FFEF67
:101CE0006455702F7BFF7A4F794E1246E9125039B6
:101CF000EF30E1F9124A3B9000A8E0FF1245641270
:101D00005039EF30E1F99000AAE4F09000A9E4F036
:101D1000021EE79000A8E0FFEFB40D289000AAE4AF
:101D2000F09000A9E4F09001057401F07BFF7A4F78
:101D3000794E1246E9125039EF30E1F97F01123243
:101D4000D2021EE79000A8E0FFEF64DE706E900103
:101D500000E4F0900100E0FFEFD3940850199001E7
:101D600000E0FF74092FF582E43401F583E4F0907C
:101D70000100E004F080DC900100E4F09000A8E0B5
:101D8000FF900100E0FE74092EF582E43401F58332
:101D9000EFF0900100E004F09000A97402F09000D0
:101DA000AE7403F07BFF7A4F794E1246E912503938
:101DB000EF30E103021EE780F4021EE79000A8E086
:101DC000FFEF64DD70527BFF7A4F794E1246E912C5
:101DD0005039EF30E1F99000D0E0FEA3E0FFEEFFD4
:101DE0007E00900108EFF0124A3B900108E0FF12DC
:101DF0004564125039EF30E1F99000D0E0FEA3E0E5
:101E0000FF124564125039EF30E1F99000AAE4F076
:101E10009000A9E4F0021EE7900100E4F0900100B8
:101E2000E0FFEFD3941F5019900100E0FF74092FD9
:101E3000F582E43401F583E4F0900100E004F080E1
:101E4000DC9000A9E4F09000AAE4F07BFF7A4F79DF
:101E5000571246E9125039EF30E103021EE780F4D1
:101E6000021EE79000A9E0FFEF607C9000A8E0FF71
:101E7000900100E0FE74092EF582E43401F583EF51
:101E8000F0900100E004F09000A9E014F09000A9A7
:101E9000E0FFEF704D9000AA7401F0900109E0FF9F
:101EA000EFB4DE439000D0E4F0A3E4F090010AE048
:101EB000FF7E009000D0EE8FF01233839000D0E0D0
:101EC000FEA3E0FFEF7F00FE9000D0EEF0A3EFF066
:101ED00090010BE0FF7E009000D0EE8FF012338374
:101EE00080059000AAE4F09000AAE0FFEF64016092
:101EF0000302119D900100E014FFF09000ABEFF0A1
:101F00009000AEE0FFEF14FF9000ACEFF09000AE59
:101F1000E0FF9000ADEFF09000ADE0FFEFD3940054
:101F200040369000ABE0FF74092FF582E43401F5F0
:101F300083E0FF9000ACE0FE742B2EF582E43401C8
:101F4000F583EFF09000ABE014F09000ACE014F0FB
:101F50009000ADE014F080BF9000AAE4F07F011281
:101F600032D2900100E004F002119D229000A0EE18
:101F7000F0A3EFF09000A2E4F0A3E4F09000A0E062
:101F8000FEA3E0FFD3EF940FEE6480948040030241
:101F900021259000A0E0FEA3E0FF74017E00A807C9
:101FA000088005C333CE33CED8F9FF9000A2EEF0FF
:101FB000A3EFF09000A2E0FEA3E0FFEEFF7E009012
:101FC00000A4EFF090502CE0FFEF54FEFFEFF07F05
:101FD000001247E69000A4E0FF1247E69000A2E05E
:101FE000FEA3E0FF1247E6124E60EF30E1F97F0FEB
:101FF0007E00124B7C90502CE0FFEF4401FFEFF08D
:102000007F147E00124B7C90502CE0FFEF54FEFFBB
:10201000EFF07F011247E67F001247E67F0012478C
:10202000E6124E60EF30E1F97F0F7E00124B7C909C
:10203000502CE0FFEF4401FFEFF07F147E00124BC5
:102040007C90502CE0FFEF54FEFFEFF07F02124730
:10205000E67F001247E67F001247E6124E60EF303F
:10206000E1F97F0F7E00124B7C90502CE0FFEF4493
:1020700001FFEFF07F147E00124B7C90502CE0FFAC
:10208000EF54FEFFEFF07F031247E67F001247E6B2
:102090007F001247E6124E60EF30E1F97F0F7E00BD
:1020A000124B7C90502CE0FFEF4401FFEFF07F14C7
:1020B0007E00124B7C90502CE0FFEF54FEFFEFF0BF
:1020C0007F081247E67F001247E67F111247E612AB
:1020D0004E60EF30E1F97F0F7E00124B7C90502C68
:1020E000E0FFEF4401FFEFF07F147E00124B7C9085
:1020F000502CE0FFEF54FEFFEFF07F0F1247E67F1A
:10210000001247E67F001247E6124E60EF30E1F919
:102110007F0F7E00124B7C90502CE0FFEF4401FFBC
:10212000EFF00227D89000A0E0FEA3E0FFC3EF94F9
:1021300010EE6480948050030222EF9000A0E0FE35
:10214000A3E0FFD3EF941FEE64809480400302224B
:10215000EF9000A074FF75F0F01233839000A0E0C0
:10216000FEA3E0FF74017E00A807088005C333CEFC
:1021700033CED8F9FF9000A2EEF0A3EFF09000A2CA
:10218000E0FEA3E0FFEEFF7E009000A4EFF0905091
:102190002CE0FFEF54FEFFEFF07F001247E67F00D8
:1021A0001247E67F001247E6124E60EF30E1F97FFA
:1021B0000F7E00124B7C90502CE0FFEF4401FFEFAC
:1021C000F07F147E00124B7C90502CE0FFEF54FE09
:1021D000FFEFF07F011247E69000A4E0FF1247E610
:1021E0009000A2E0FEA3E0FF1247E6124E60EF303F
:1021F000E1F97F0F7E00124B7C90502CE0FFEF4402
:1022000001FFEFF07F147E00124B7C90502CE0FF1A
:10221000EF54FEFFEFF07F021247E67F001247E621
:102220007F001247E6124E60EF30E1F97F0F7E002B
:10223000124B7C90502CE0FFEF4401FFEFF07F1435
:102240007E00124B7C90502CE0FFEF54FEFFEFF02D
:102250007F031247E67F001247E67F001247E6122F
:102260004E60EF30E1F97F0F7E00124B7C90502CD6
:10227000E0FFEF4401FFEFF07F147E00124B7C90F3
:10228000502CE0FFEF54FEFFEFF07F081247E67F8F
:10229000001247E67F121247E6124E60EF30E1F976
:1022A0007F0F7E00124B7C90502CE0FFEF4401FF2B
:1022B000EFF07F147E00124B7C90502CE0FFEF5427
:1022C000FEFFEFF07F0F1247E67F001247E67F0028
:1022D0001247E6124E60EF30E1F97F0F7E00124B9D
:1022E0007C90502CE0FFEF4401FFEFF00227D890E4
:1022F00000A0E0FEA3E0FFC3EF9420EE6480948092
:1023000050030224B99000A0E0FEA3E0FFD3EF94B5
:102310002FEE6480948040030224B99000A074FFE3
:1023200075F0E01233839000A0E0FEA3E0FF74019B
:102330007E00A807088005C333CE33CED8F9FF90BE
:1023400000A2EEF0A3EFF09000A2E0FEA3E0FFEE0B
:10235000FF7E009000A4EFF090502CE0FFEF54FEC1
:10236000FFEFF07F001247E67F001247E67F001282
:1023700047E6124E60EF30E1F97F0F7E00124B7C92
:1023800090502CE0FFEF4401FFEFF07F147E00122D
:102390004B7C90502CE0FFEF54FEFFEFF07F0112DA
:1023A00047E67F001247E67F001247E6124E60EFD5
:1023B00030E1F97F0F7E00124B7C90502CE0FFEF54
:1023C0004401FFEFF07F147E00124B7C90502CE014
:1023D000FFEF54FEFFEFF07F021247E69000A4E00B
:1023E000FF1247E69000A2E0FEA3E0FF1247E612CC
:1023F0004E60EF30E1F97F0F7E00124B7C90502C45
:10240000E0FFEF4401FFEFF07F147E00124B7C9061
:10241000502CE0FFEF54FEFFEFF07F031247E67F02
:10242000001247E67F001247E6124E60EF30E1F9F6
:102430007F0F7E00124B7C90502CE0FFEF4401FF99
:10244000EFF07F147E00124B7C90502CE0FFEF5495
:10245000FEFFEFF07F081247E67F001247E67F1489
:102460001247E6124E60EF30E1F97F0F7E00124B0B
:102470007C90502CE0FFEF4401FFEFF07F147E00D2
:10248000124B7C90502CE0FFEF54FEFFEFF07F0FDB
:102490001247E67F001247E67F001247E6124E60C1
:1024A000EF30E1F97F0F7E00124B7C90502CE0FF63
:1024B000EF4401FFEFF00227D89000A0E0FEA3E078
:1024C000FFC3EF9430EE6480948050030226839023
:1024D00000A0E0FEA3E0FFD3EF943FEE6480948081
:1024E00040030226839000A074FF75F0D01233835E
:1024F0009000A0E0FEA3E0FF74017E00A807088022
:1025000005C333CE33CED8F9FF9000A2EEF0A3EF8F
:10251000F09000A2E0FEA3E0FFEEFF7E009000A49A
:10252000EFF090502CE0FFEF54FEFFEFF07F001231
:1025300047E67F001247E67F001247E6124E60EF43
:1025400030E1F97F0F7E00124B7C90502CE0FFEFC2
:102550004401FFEFF07F147E00124B7C90502CE082
:10256000FFEF54FEFFEFF07F011247E67F001247B6
:10257000E67F001247E6124E60EF30E1F97F0F7EF2
:1025800000124B7C90502CE0FFEF4401FFEFF07FF6
:10259000147E00124B7C90502CE0FFEF54FEFFEFB6
:1025A000F07F021247E67F001247E67F001247E6FF
:1025B000124E60EF30E1F97F0F7E00124B7C90509D
:1025C0002CE0FFEF4401FFEFF07F147E00124B7C04
:1025D00090502CE0FFEF54FEFFEFF07F031247E630
:1025E0009000A4E0FF1247E69000A2E0FEA3E0FF07
:1025F0001247E6124E60EF30E1F97F0F7E00124B7A
:102600007C90502CE0FFEF4401FFEFF07F147E0040
:10261000124B7C90502CE0FFEF54FEFFEFF07F0850
:102620001247E67F001247E67F181247E6124E6017
:10263000EF30E1F97F0F7E00124B7C90502CE0FFD1
:10264000EF4401FFEFF07F147E00124B7C90502C82
:10265000E0FFEF54FEFFEFF07F0F1247E67F00121E
:1026600047E67F001247E6124E60EF30E1F97F0F38
:102670007E00124B7C90502CE0FFEF4401FFEFF006
:102680000227D890502CE0FFEF54FEFFEFF07F00C0
:102690001247E67F001247E67F001247E6124E60BF
:1026A000EF30E1F97F0F7E00124B7C90502CE0FF61
:1026B000EF4401FFEFF07F147E00124B7C90502C12
:1026C000E0FFEF54FEFFEFF07F011247E67F0012BC
:1026D00047E67F001247E6124E60EF30E1F97F0FC8
:1026E0007E00124B7C90502CE0FFEF4401FFEFF096
:1026F0007F147E00124B7C90502CE0FFEF54FEFFC5
:10270000EFF07F021247E67F001247E67F00124794
:10271000E6124E60EF30E1F97F0F7E00124B7C90A5
:10272000502CE0FFEF4401FFEFF07F147E00124BCE
:102730007C90502CE0FFEF54FEFFEFF07F03124738
:10274000E67F001247E67F001247E6124E60EF3048
:10275000E1F97F0F7E00124B7C90502CE0FFEF449C
:1027600001FFEFF07F147E00124B7C90502CE0FFB5
:10277000EF54FEFFEFF07F081247E67F001247E6B6
:102780007F001247E6124E60EF30E1F97F0F7E00C6
:10279000124B7C90502CE0FFEF4401FFEFF07F14D0
:1027A0007E00124B7C90502CE0FFEF54FEFFEFF0C8
:1027B0007F0F1247E67F001247E67F001247E612BE
:1027C0004E60EF30E1F97F0F7E00124B7C90502C71
:1027D000E0FFEF4401FFEFF07F0A7E007D007C0008
:1027E0001243CE229000A0EEF0A3EFF09000A2E4FE
:1027F000F0A3E4F09000A0E0FEA3E0FFD3EF940F7D
:10280000EE64809480400302299D9000A0E0FEA326
:10281000E0FF74017E00A807088005C333CE33CEE5
:10282000D8F9FF9000A2EEF0A3EFF09000A2E0FE36
:10283000A3E0FFEEFF7E009000A4EFF090502CE0AC
:10284000FFEF54FEFFEFF07F041247E69000A4E094
:10285000FF1247E69000A2E0FEA3E0FF1247E61257
:102860004E60EF30E1F97F0F7E00124B7C90502CD0
:10287000E0FFEF4401FFEFF07F147E00124B7C90ED
:10288000502CE0FFEF54FEFFEFF07F051247E67F8C
:10289000001247E67F001247E6124E60EF30E1F982
:1028A0007F0F7E00124B7C90502CE0FFEF4401FF25
:1028B000EFF07F147E00124B7C90502CE0FFEF5421
:1028C000FEFFEFF07F061247E67F001247E67F002B
:1028D0001247E6124E60EF30E1F97F0F7E00124B97
:1028E0007C90502CE0FFEF4401FFEFF07F147E005E
:1028F000124B7C90502CE0FFEF54FEFFEFF07F076F
:102900001247E67F001247E67F001247E6124E604C
:10291000EF30E1F97F0F7E00124B7C90502CE0FFEE
:10292000EF4401FFEFF07F147E00124B7C90502C9F
:10293000E0FFEF54FEFFEFF07F091247E67F001241
:1029400047E67F111247E6124E60EF30E1F97F0F44
:102950007E00124B7C90502CE0FFEF4401FFEFF023
:102960007F147E00124B7C90502CE0FFEF54FEFF52
:10297000EFF07F0F1247E67F001247E67F00124715
:10298000E6124E60EF30E1F97F0F7E00124B7C9033
:10299000502CE0FFEF4401FFEFF00230509000A018
:1029A000E0FEA3E0FFC3EF9410EE64809480500338
:1029B000022B679000A0E0FEA3E0FFD3EF941FEE90
:1029C000648094804003022B679000A074FF75F030
:1029D000F01233839000A0E0FEA3E0FF74017E00BC
:1029E000A807088005C333CE33CED8F9FF9000A2E4
:1029F000EEF0A3EFF09000A2E0FEA3E0FFEEFF7E7A
:102A0000009000A4EFF090502CE0FFEF54FEFFEF99
:102A1000F07F041247E67F001247E67F001247E688
:102A2000124E60EF30E1F97F0F7E00124B7C905028
:102A30002CE0FFEF4401FFEFF07F147E00124B7C8F
:102A400090502CE0FFEF54FEFFEFF07F051247E6B9
:102A50009000A4E0FF1247E69000A2E0FEA3E0FF92
:102A60001247E6124E60EF30E1F97F0F7E00124B05
:102A70007C90502CE0FFEF4401FFEFF07F147E00CC
:102A8000124B7C90502CE0FFEF54FEFFEFF07F06DE
:102A90001247E67F001247E67F001247E6124E60BB
:102AA000EF30E1F97F0F7E00124B7C90502CE0FF5D
:102AB000EF4401FFEFF07F147E00124B7C90502C0E
:102AC000E0FFEF54FEFFEFF07F071247E67F0012B2
:102AD00047E67F001247E6124E60EF30E1F97F0FC4
:102AE0007E00124B7C90502CE0FFEF4401FFEFF092
:102AF0007F147E00124B7C90502CE0FFEF54FEFFC1
:102B0000EFF07F091247E67F001247E67F12124777
:102B1000E6124E60EF30E1F97F0F7E00124B7C90A1
:102B2000502CE0FFEF4401FFEFF07F147E00124BCA
:102B30007C90502CE0FFEF54FEFFEFF07F0F124728
:102B4000E67F001247E67F001247E6124E60EF3044
:102B5000E1F97F0F7E00124B7C90502CE0FFEF4498
:102B600001FFEFF00230509000A0E0FEA3E0FFC3B1
:102B7000EF9420EE648094805003022D319000A0E9
:102B8000E0FEA3E0FFD3EF942FEE64809480400337
:102B9000022D319000A074FF75F0E0123383900095
:102BA000A0E0FEA3E0FF74017E00A807088005C333
:102BB00033CE33CED8F9FF9000A2EEF0A3EFF09021
:102BC00000A2E0FEA3E0FFEEFF7E009000A4EFF085
:102BD00090502CE0FFEF54FEFFEFF07F041247E629
:102BE0007F001247E67F001247E6124E60EF30E1A9
:102BF000F97F0F7E00124B7C90502CE0FFEF4401D8
:102C0000FFEFF07F147E00124B7C90502CE0FFEF22
:102C100054FEFFEFF07F051247E67F001247E67F84
:102C2000001247E6124E60EF30E1F97F0F7E00128E
:102C30004B7C90502CE0FFEF4401FFEFF07F147EBF
:102C400000124B7C90502CE0FFEF54FEFFEFF07F22
:102C5000061247E69000A4E0FF1247E69000A2E0CB
:102C6000FEA3E0FF1247E6124E60EF30E1F97F0F5E
:102C70007E00124B7C90502CE0FFEF4401FFEFF000
:102C80007F147E00124B7C90502CE0FFEF54FEFF2F
:102C9000EFF07F071247E67F001247E67F001247FA
:102CA000E6124E60EF30E1F97F0F7E00124B7C9010
:102CB000502CE0FFEF4401FFEFF07F147E00124B39
:102CC0007C90502CE0FFEF54FEFFEFF07F0912479D
:102CD000E67F001247E67F141247E6124E60EF309F
:102CE000E1F97F0F7E00124B7C90502CE0FFEF4407
:102CF00001FFEFF07F147E00124B7C90502CE0FF20
:102D0000EF54FEFFEFF07F0F1247E67F001247E619
:102D10007F001247E6124E60EF30E1F97F0F7E0030
:102D2000124B7C90502CE0FFEF4401FFEFF002309B
:102D3000509000A0E0FEA3E0FFC3EF9430EE64806B
:102D400094805003022EFB9000A0E0FEA3E0FFD38E
:102D5000EF943FEE648094804003022EFB9000A02D
:102D600074FF75F0D01233839000A0E0FEA3E0FF63
:102D700074017E00A807088005C333CE33CED8F98E
:102D8000FF9000A2EEF0A3EFF09000A2E0FEA3E01F
:102D9000FFEEFF7E009000A4EFF090502CE0FFEFDC
:102DA00054FEFFEFF07F041247E67F001247E67FF4
:102DB000001247E6124E60EF30E1F97F0F7E0012FD
:102DC0004B7C90502CE0FFEF4401FFEFF07F147E2E
:102DD00000124B7C90502CE0FFEF54FEFFEFF07F91
:102DE000051247E67F001247E67F001247E6124EC3
:102DF00060EF30E1F97F0F7E00124B7C90502CE0A9
:102E0000FFEF4401FFEFF07F147E00124B7C9050E7
:102E10002CE0FFEF54FEFFEFF07F061247E67F0045
:102E20001247E67F001247E6124E60EF30E1F97F6D
:102E30000F7E00124B7C90502CE0FFEF4401FFEF1F
:102E4000F07F147E00124B7C90502CE0FFEF54FE7C
:102E5000FFEFF07F071247E69000A4E0FF1247E67D
:102E60009000A2E0FEA3E0FF1247E6124E60EF30B2
:102E7000E1F97F0F7E00124B7C90502CE0FFEF4475
:102E800001FFEFF07F147E00124B7C90502CE0FF8E
:102E9000EF54FEFFEFF07F091247E67F001247E68E
:102EA0007F181247E6124E60EF30E1F97F0F7E0087
:102EB000124B7C90502CE0FFEF4401FFEFF07F14A9
:102EC0007E00124B7C90502CE0FFEF54FEFFEFF0A1
:102ED0007F0F1247E67F001247E67F001247E61297
:102EE0004E60EF30E1F97F0F7E00124B7C90502C4A
:102EF000E0FFEF4401FFEFF002305090502CE0FF74
:102F0000EF54FEFFEFF07F041247E67F001247E622
:102F10007F001247E6124E60EF30E1F97F0F7E002E
:102F2000124B7C90502CE0FFEF4401FFEFF07F1438
:102F30007E00124B7C90502CE0FFEF54FEFFEFF030
:102F40007F051247E67F001247E67F001247E61230
:102F50004E60EF30E1F97F0F7E00124B7C90502CD9
:102F6000E0FFEF4401FFEFF07F147E00124B7C90F6
:102F7000502CE0FFEF54FEFFEFF07F061247E67F94
:102F8000001247E67F001247E6124E60EF30E1F98B
:102F90007F0F7E00124B7C90502CE0FFEF4401FF2E
:102FA000EFF07F147E00124B7C90502CE0FFEF542A
:102FB000FEFFEFF07F071247E67F001247E67F0033
:102FC0001247E6124E60EF30E1F97F0F7E00124BA0
:102FD0007C90502CE0FFEF4401FFEFF07F147E0067
:102FE000124B7C90502CE0FFEF54FEFFEFF07F0976
:102FF0001247E67F001247E67F001247E6124E6056
:10300000EF30E1F97F0F7E00124B7C90502CE0FFF7
:10301000EF4401FFEFF07F147E00124B7C90502CA8
:10302000E0FFEF54FEFFEFF07F0F1247E67F001244
:1030300047E67F001247E6124E60EF30E1F97F0F5E
:103040007E00124B7C90502CE0FFEF4401FFEFF02C
:103050007F0A7E007D007C001243CE22C2AF80FE3C
:1030600032C0E0E5D0541864087003D0E032D0E0FC
:1030700012306085D00B75D008AAE0EC2422F8E667
:10308000BC050274FFC39581B4140040CF79067863
:103090001016E608700BC2AFE630E1034418F6D212
:1030A000AF08D9EDEA8BD030000122D50DFCC0E08D
:1030B000C0D0C0F0C083C082C000C001C002C00345
:1030C000C004C005C006C007E50C232411F87440F5
:1030D000C2AF46F6D2AFD200E50CFF232411F80FA1
:1030E0000808BF06047F007811E630E4F200E50C22
:1030F000C39F5020050C7421250CF8E6FDA681081D
:10310000E6AE0CBE050274FFCDF8E86D60E008E69F
:10311000C0E080F6E50CD39F4027E50C2422F8E6BA
:10312000AE0CBE050274FFFD18E6CDF8E5816D60BA
:1031300006D0E0F61880F5E50C2421C8F6150C80C1
:10314000D3750D05E50C232411F87F04C2AFE610FA
:10315000E61E30E00310E20C7F0030E10730E304AC
:103160007F0854F4547CC6D2AF54804207C2002278
:10317000F6D2AFD007D006D005D004D003D002D00D
:1031800001D000D082D083D0F0D0D0D0E0C20022D5
:103190007821A68174056006FF0876FFDFFB7F06B5
:1031A000E47810F608F608DFFA78117630904F8D43
:1031B000740193C0E0E493C0E0750D05D2AF220521
:1031C000EFD3940540037FFF2274112F2FF8E620E0
:1031D000E5F4C2AFE64430F6D2AFAE0CEEC39F507A
:1031E000210E74212EF8E6F908E618BE050274FFD8
:1031F000FDED69600909E71919F7090980F3161649
:1032000080DAEED39F400405810581EED39F4022F2
:1032100074212EF808E6F9EEB50C02A9811806060D
:10322000E6FDED6960091919E70909F71980F31E30
:1032300080D9EF2421F8E604F8EF2F04904F8D9306
:10324000F608EF2F93F67F0022EFD3940540037F1B
:10325000FF22EF232411F8E630E5F4C2AFE6548CE8
:10326000F6D2AFE50CB5070A74212FF8E6F5810216
:1032700030D6502E74222FF8E6BF050274FFFD18D9
:10328000E6F974212FF8FBE6FCE96C6008A805E775
:10329000F61D1980F4A803A6051FE50CB507E37F0A
:1032A000002274222FF8E6FD1886010F74212FF8F2
:1032B000A601088604E50CB50702AC81ED6C600838
:1032C0000D09A805E6F780F4E50CB507DE89817FD6
:1032D0000022EFD3940540037FFF22EF232411F84F
:1032E000C2AFE630E50530E002D2E4D2E2C6D2AFAA
:1032F0007F0030E2010F0230AA8FF0E4FFFEE50C00
:10330000232410F8C2A930F70D7F08E6600B2DF6D4
:1033100060325030800730F106EDF660277E0208FB
:1033200030F010C2AFE610E7250E30E20CD2AF7FCE
:10333000048014C2AFE610E71554EC4EF6D2AFD2BB
:10334000A90230D67F0808EF4483F4C2AF56C6D234
:10335000AFD2A954804FFF22BB010689828A83E045
:10336000225002E722BBFE02E32289828A83E49391
:1033700022BB010689828A83F0225002F722BBFE1B
:1033800001F322C5F0F8A3E028F0C5F0F8E58215B6
:103390008270021583E038F022BB010A89828A8399
:1033A000E0F5F0A3E022500687F009E71922BBFE02
:1033B00007E3F5F009E3192289828A83E493F5F0A3
:1033C00074019322EF2BFFEE3AFEED39FDEC38FC51
:1033D00022E88FF0A4CC8BF0A42CFCE98EF0A42C76
:1033E000FC8AF0EDA42CFCEA8EF0A4CDA8F08BF0C2
:1033F000A42DCC3825F0FDE98FF0A42CCD35F0FCC0
:10340000EB8EF0A4FEA9F0EB8FF0A4CFC5F02ECD8B
:1034100039FEE43CFCEAA42DCE35F0FDE43CFC2270
:1034200075F008758200EF2FFFEE33FECD33CDCC63
:1034300033CCC58233C5829BED9AEC99E5829840E6
:103440000CF582EE9BFEED9AFDEC99FC0FD5F0D6C3
:10345000E4CEFBE4CDFAE4CCF9A88222B800C1B9ED
:103460000059BA002DEC8BF084CFCECDFCE5F0CB2B
:10347000F97818EF2FFFEE33FEED33FDEC33FCEB64
:1034800033FB10D703994004EB99FB0FD8E5E4F91F
:10349000FA227818EF2FFFEE33FEED33FDEC33FC0C
:1034A000C933C910D7059BE99A4007EC9BFCE99A00
:1034B000F90FD8E0E4C9FAE4CCFB2275F010EF2F45
:1034C000FFEE33FEED33FDCC33CCC833C810D70745
:1034D0009BEC9AE899400AED9BFDEC9AFCE899F880
:1034E0000FD5F0DAE4CDFBE4CCFAE4C8F922EF4BD7
:1034F000FFEE4AFEED49FDEC48FC22E8600FECC30C
:1035000013FCED13FDEE13FEEF13FFD8F122E8607C
:103510000FEFC333FFEE33FEED33FDEC33FCD8F198
:1035200022E0FCA3E0FDA3E0FEA3E0FF22E0F8A37D
:10353000E0F9A3E0FAA3E0FB22ECF0A3EDF0A3EEA8
:10354000F0A3EFF022E0FBA3E0FAA3E0F922EBF016
:10355000A3EAF0A3E9F022D083D082F8E4937012BA
:10356000740193700DA3A393F8740193F58288837B
:10357000E4737402936860EFA3A3A380DFE50F25D3
:1035800082F582E50E3583F583B50E0485820F2220
:1035900010AF0685820FF50E2285820FF50ED2AF91
:1035A00022C0E0C0F0C083C082C085C084C08675E0
:1035B0008600C093759300C0D075D000C000C001D4
:1035C000C002C003C004C005C006C0079044CB744D
:1035D00001F090012AE4F0905003E0FFEF30E41096
:1035E00090012AE0FFEF4408FF90012AEFF0800EDF
:1035F00090012AE0FFEF54F7FF90012AEFF090507E
:1036000000E0FFEF30E41090012AE0FFEF4401FFFB
:1036100090012AEFF0800E90012AE0FFEF54FEFFA8
:1036200090012AEFF0905001E0FFEF30E41090019C
:103630002AE0FFEF4402FF90012AEFF0800E900194
:103640002AE0FFEF54FDFF90012AEFF0905002E0D6
:10365000FFEF30E41090012AE0FFEF4404FF9001F7
:103660002AEFF0800E90012AE0FFEF54FBFF90015B
:103670002AEFF0905021E0FFEF30E41090012AE0B3
:10368000FFEF4480FF90012AEFF0800E90012AE0C6
:10369000FFEF547FFF90012AEFF0905020E0FFEF02
:1036A00030E41090012AE0FFEF4440FF90012AEF40
:1036B000F0800E90012AE0FFEF54BFFF90012AEF47
:1036C000F0905063E0FFEF30E41090012AE0FFEF4C
:1036D0004420FF90012AEFF0800E90012AE0FFEFD6
:1036E00054DFFF90012AEFF0905062E0FFEF30E4EA
:1036F0001090012AE0FFEF4410FF90012AEFF080C4
:103700000E90012AE0FFEF54EFFF90012AEFF07FC7
:10371000F47E01124B7C90012AE0FFEF6488FF9059
:10372000012AEFF090012AE0FF900107EFF090509E
:103730002AE0FFEF5410FF7E00EF4E70030235D7F2
:1037400090501FE0FFEF54FEFFEFF07F017E00126C
:103750004B7C90501FE0FFEF4401FFEFF0124D0350
:103760009044C37401F0D007D006D005D004D00334
:10377000D002D001D000D0D0D093D086D084D085D4
:10378000D082D083D0F0D0E0329000A0EEF0A3EF52
:10379000F09000A2EDF0124FD29000A4EFF0124F83
:1037A000C89000A5EEF0A3EFF09000A5E0FEA3E026
:1037B000FF9000A0E0FCA3E0FDED6F7002EC6E70E6
:1037C0000302391D9043A2E0FFEF5401FF9000A3D4
:1037D000EFF09000A4E0FFEF705E9000A5E0FEA384
:1037E000E0FFEF4E600C9000A0E0FEA3E0FFEF4E84
:1037F00070469000A5E0FEA3E0FFEF4E701D7B0237
:103800007A4079809000A0E0FCA3E0FD124F419047
:103810004082E0FFEF54BFFFEFF022904082E0FFD4
:10382000EF4440FFEFF07B027A4079809000A0E007
:10383000FCA3E0FD124F41229000A3E0FFEF606C7B
:10384000904001E4F09040107401F0904014E4F0D6
:10385000904008E0FFEF547FFFEFF0904082E0FFE0
:10386000EF5408FF7E00EF4E600C9000A0E0FEA336
:10387000E0FFEF4E70367B027A4079029000A5E0BF
:10388000FCA3E0FD124F419040017407F09040010D
:10389000E0FFEF5401FF7E00EF4E70F19043A2E095
:1038A000FFEF54FEFFEFF0904001E4F09043A2E000
:1038B000FFEF5401FF7E00EF4E603A7B027A4079C1
:1038C000029000A0E0FCA3E0FD124F419000A2E0B6
:1038D000FFEF60047F0280027F00EF4401FF904011
:1038E00001EFF0904001E0FFEF5401FF7E00EF4E4A
:1038F000602B80EF227B027A4079809000A0E0FC70
:10390000A3E0FD124F419043A2C083C082E0FF902C
:1039100000A3E0FEEF4EFFD082D083EFF0227B00C9
:103920007A4679E8124F99EF4401FD7B007A467997
:10393000E8124FA5123D507B017A507903124F993E
:10394000EF4402FD7B017A507903124FA57B017A87
:10395000507913124F99EF4402FD7B017A5079138D
:10396000124FA59043A0E0FFEF4440FF9043A0EF2B
:10397000F09043C2E0FFEF4410FF9043C2EFF07CB1
:103980006E7DA47B007A5179007F0A7E00124BD0B5
:103990007C6E7DAE7B007A5179C27F087E00124B2F
:1039A000D07C6E7DB67B007A5179F27F087E001262
:1039B0004BD07C6E7DBE7B007A5179127F087E00F1
:1039C000124BD07C6E7DC67B007A5179227F087EB7
:1039D00000124BD07C6E7DCE7B007A5179307F0A0D
:1039E0007E00124BD07C6E7DD87B007A5179407F6F
:1039F0000A7E00124BD07C6E7DE27B007A517950BA
:103A00007F0A7E00124BD07C6E7DEC7B007A517970
:103A1000627F087E00124BD07B017A0C79DB7D44FB
:103A2000124FA57B017A1A79DB7DA4124FA5904431
:103A3000F47401F0904322E0FFEF4408FF9043222A
:103A4000EFF09046ECE0FFEFC394055006904689F6
:103A5000743AF090480074C0F0123A96904800749E
:103A600080F0124AE07B007A4379A0C003C002C014
:103A7000017B007A4379B09000C612354ED001D058
:103A800002D0037F0E7E00124B169043B0E0FFEF92
:103A900054FDFFEFF0227B007A4079807D007C00AE
:103AA000124F3F9040827458F07B007A4079847DB9
:103AB0000B7C00124F3F9040867418F07B007A40D8
:103AC00079887D647C00124F3F90408A7418F07BA7
:103AD000007A40798C7D2B7C01124F3F90408E7490
:103AE00019F07B007A4079907DDB7C05124F3F9086
:103AF00040927419F07B007A4079947DDF7C2E121D
:103B00004F3F9040967419F09043007402F090403B
:103B1000007408F09042007403F07B0C7A0179087D
:103B2000124F999046A1EFF07B007A4279227D08EE
:103B30007C00124F3F7B007A4279207D517C12122B
:103B40004F3F9000C5E4F07F197E007D007C00901F
:103B500000C11235399000C1123521D3EF9400EE27
:103B60009400404E9000C5E0FFEF64036044904233
:103B700025E0FFEF5401FF7E009000C5E0FEEE253A
:103B8000E0FEEE4FFFEF5403FF9000C5EFF07FE043
:103B90007E017D007C001248009000C11235217B1F
:103BA000FF7AFF79FF78FF1233C49000C1123539D4
:103BB00080A39000C1123521EF4E70057F03124E95
:103BC0003D7B007A4079047D007C01124F3F90409C
:103BD000047407F0904006E4F09040087448F090B8
:103BE0004004E4F09040017402F09043A2E0FFEF43
:103BF000443FFF9043A2EFF0227593007800758355
:103C0000467582E8E04401F0009046ECE0F9904609
:103C1000FAE0FAB903225420B40012B8001AEA906C
:103C20001FFFF07401901FFEF09046F6F0901FFE0B
:103C3000E06005901FFFE0FA90480074C0F07581C5
:103C4000269076BCE4F0A3F0A3F0A3F0907010F0FF
:103C5000907019F0907020F09076007410F09076CB
:103C600004E4F0A3F0A3F0A3F090780078000874C7
:103C700000F0A37408F0E8B8040274FFA3F0A37482
:103C800022F0A374BCF0A37476F0A3E4F0A3E814CC
:103C900075F008A4F0A3B804D59070107401F090EA
:103CA0007014F0904880E0904888E09044D8740206
:103CB000F07E707F18120004907010F0EA90013CC2
:103CC000F0020011750E1F750FFD12391E023D0B1B
:103CD000023190E493A3F8E493A34003F68001F249
:103CE00008DFF48029E493A3F85407240CC8C333F5
:103CF000C4540F4420C8834004F456800146F6DFC4
:103D0000E4800B01020408102040809045C7E47E47
:103D1000019360BCA3FF543F30E509541FFEE493B8
:103D2000A360010ECF54C025E060A840B8E493A37F
:103D3000FAE493A3F8E493A3C8C582C8CAC583CAAA
:103D4000F0A3C8C582C8CAC583CADFE9DEE780BE62
:103D50007F007E007D007C0090014A12353990760C
:103D6000007410F09070107401F0907019E4F07B02
:103D7000027A7879007D987C02124F419078027423
:103D800001F090780374A3F07B027A787904C00381
:103D9000C002C0017BFF7A6C790CAF01AE02AD03AB
:103DA0007C00EF54FFFFEE54FFFEED5400FDEC5499
:103DB00000FCAD07AC06D001D002D003124F417B0E
:103DC000027A7879067D087C78124F417B027A76F8
:103DD00079047D107C00124F417B027A7679067D52
:103DE000007C00124F419070397407F09070497454
:103DF00011F0907059741BF09070147401F0907071
:103E000018E0FFEF5401FF7E00EF4E70F190703824
:103E1000E0FFEF5401FF7E00EF4E70F1907048E03C
:103E2000FFEF5401FF7E00EF4E70F1907058E0FFFD
:103E3000EF5401FF7E00EF4E70F1222A2A2A230060
:103E400056494348310056494348320049434D538F
:103E50004C00464C59434800464753454C005300DC
:103E60005500430045002A0023002A2A2A3F005318
:103E70005243454E0053524344530053524330453E
:103E800000535231304500535232304500535235C1
:103E90003045005331303045005332303045005307
:103EA0003530304500535243314B00535243324B6F
:103EB00000535243354B00535231304B0053523272
:103EC000304B00535235304B00533130304B0053A0
:103ED0003230304B00533530304B00535243314D6C
:103EE0000053524558310053524558320053524501
:103EF00058330053524558340053524558350053F7
:103F000052455836005352455837004641494C00F7
:103F1000C0E0C083C082C085C084C086758600C0F2
:103F200093759300C0D075D000C006C0079000CA3A
:103F3000E4F0A2AFE433FF9000CBEFF0D2AF9044B7
:103F4000F474FDF0906467E0FF9000C9EFF090001A
:103F5000C9E0FFEF30E568906448E0FF900046E07C
:103F6000FE74052EF582E43400F583EFF09000CA6C
:103F70007401F09000CAE0FFEF6038900003E0FFAA
:103F8000EF60069000027401F0900046E004F090AB
:103F90000046E0FFEFC394204005900046E4F09017
:103FA0000004E0FF900046E0FEEEB5070690000337
:103FB0007401F0906467E0FF9000C9EFF0808F908B
:103FC00000CBE0FFEF24FF92AFD007D006D0D0D0D7
:103FD00093D086D084D085D082D083D0E032900038
:103FE000B5EFF0900047E0FF9000B6EFF0900025AD
:103FF000E0FF9000B7EFF09000B7E0FF9000B6E070
:10400000FEEEC39F50269000B7E0FF7E00EF24FF36
:10401000FFEE34FFFE9000B6E0FD7C00EFB5050832
:10402000EEB504047F0180027F0080189000B7E0A5
:10403000FF9000B6E0FEC3EE9FFFEFB41F047F01C8
:1040400080027F00EF709C9000B6E0FF9000B7E028
:10405000FEEEB5071490646CE0FFEF20E20B9000D9
:10406000B5E0FF90644CEFF0229000B6E0FFEFC3A4
:10407000942040059000B6E4F09000B5E0FF900079
:10408000B6E0FE74262EF582E43400F583EFF0905E
:1040900000B6E004F09000B6E0FF900047EFF02299
:1040A000900092E4F07F011232F9900105E0FFEFF9
:1040B000607E900100E0FFEF14FF900092EFF0901F
:1040C0000100E0FFEF701A7BFF7A3E793B1246E970
:1040D000125039EF30E1F990010AE0FF1245648097
:1040E000477BFF7A3E793B1246E9125039EF30E1C7
:1040F000F9900093E4F0900092E0FF900093E0FECE
:10410000EED39F5023900093E0FF74092FF582E4D3
:104110003401F583E0FF124564125039EF30E1F9C4
:10412000900093E004F080CE900105E4F00240A5F9
:104130007B017A01792B12001A0240A522C0E0C04F
:1041400083C082C085C084C086758600C093759385
:1041500000C0D075D000C006C007A2AFE433FF9006
:1041600000CCEFF0D2AF9044F474FDF0900047E043
:10417000FF900025E0FEEE6F603790646CE0FFEF8B
:1041800020E22E900025E0FFEFC394204005900030
:1041900025E4F0900025E0FF74262FF582E434003A
:1041A000F583E0FF90644CEFF0900025E004F08090
:1041B000BB9000CCE0FFEF24FF92AFD007D006D039
:1041C000D0D093D086D084D085D082D083D0E03236
:1041D000124FE3900004E0FF9000B1EFF090004632
:1041E000E0FF9000B2EFF0900003E0FFEF700E9060
:1041F00000B2E0FF9000B1E0FEEE6F60459000B1CC
:10420000E0FF74052FF582E43400F583E0FF9000B1
:10421000B0EFF09000B1E004F09000B1E0FFEFC328
:10422000942040059000B1E4F09000B1E0FF9000D0
:1042300004EFF0900003E0FFEF6011900003E4F062
:10424000800A906448E0FF9000B0EFF0124FDC90DD
:1042500000B0E0FF229000A0EFF09000A1ECF0A3EE
:10426000EDF09000A0E0FFEFD3941F5003D3800146
:10427000C340057F00124D879000A0E0FFEF541F60
:10428000FF7E00EF25E0FFEE33FEEF2400FFEE346B
:1042900044FEAA06A9077B01124F329000A3EEF05C
:1042A000A3EFF09000A0E0FF7E02EF8EF0A4FFAE3F
:1042B000F0EF2400FFEE3444FEAA06A9077B01902C
:1042C00000A1E0FEA3E0FFAD07AC06124F41900055
:1042D000A3E0FEA3E0FF227FE87E037D007C0012C6
:1042E00043CE124B4A7D017F4D7E00123789124E1C
:1042F00005124E18124D5D124D9C124DC6124CB354
:104300007F811249CA900146E4F0A3E4F01244FF11
:1043100012449A905016E0FFEF4401FFEFF09050E6
:1043200017E0FFEF4401FFEFF0905064E0FFEF442F
:1043300001FFEFF0124893124A3B124DDB12501B63
:1043400012502112502712502D1250337F04123276
:10435000D27F00123249227F0A7E007D007C00124B
:1043600043CE124C95EF3395E0FE900148EEF0A35A
:10437000EFF0905037E0FFEF5410FF7E00EF4E70EB
:1043800014900148E0FEA3E0FFEE4401FE900148D6
:10439000EEF0A3EFF090501EE0FFEF54FEFFEFF0C1
:1043A0007F647E00124B7C90501EE0FFEF4401FFC3
:1043B000EFF0900148E0FEA3E0FF124BF6124EC072
:1043C000EF30E2F97F647E00124B7C808A2290FFFE
:1043D000FC12357D123539850E83850F8212352109
:1043E000D3EF9400EE9480402F90013D12352112BE
:1043F0004800850E83850F82C083C082123521EF6D
:104400002400FFEE3480FEED34FFFDEC34FFFCD0E1
:1044100082D08312353980BF900133123521850E49
:1044200083850F8212352D1233D11248009000047B
:1044300012357D2290647EE0FFEF54F8FF90008BF0
:10444000EFF090008BE0FF90647EEFF090647EE0F0
:10445000FFEF54FCFF90008BEFF090008BE0FF909B
:10446000647EEFF0124F5C7F80124F107F80124FFE
:10447000007F00124EF012503F7F80124F20124DED
:104480007290008CEFF090649DE0FFEF4410FFEF1E
:10449000F090008CE0FF124CEB22905016E0FFEF02
:1044A00030E40B905016E0FFEF54FEFFEFF0905019
:1044B00017E0FFEF30E40B905017E0FFEF54FEFFE2
:1044C000EFF0905064E0FFEF30E40B905064E0FFB9
:1044D000EF54FEFFEFF0905065E0FFEF30E40B90FB
:1044E0005065E0FFEF54FEFFEFF0905034E0FFEF37
:1044F00030E40B905034E0FFEF54FEFFEFF02290D9
:104500005015E0FFEF30E40B905015E0FFEF54FE44
:10451000FFEFF0905014E0FFEF30E40B905014E008
:10452000FFEF54FEFFEFF0905012E0FFEF30E40B8E
:10453000905012E0FFEF54FEFFEFF0905013E0FFB9
:10454000EF30E40B905013E0FFEF54FEFFEFF090DC
:104550005011E0FFEF30E40B905011E0FFEF54FEFC
:10456000FFEFF0229000BCEFF0900001E0FFEF6061
:1045700055124FF1900047E0FF900025E0FEEEB5A8
:10458000071590646CE0FFEF20E20C9000BCE0FFA8
:1045900090644CEFF0802C900047E0FFEFC3942034
:1045A0004005900047E4F09000BCE0FF900047E039
:1045B000FE74262EF582E43400F583EFF090004778
:1045C000E004F0124FEA224200D0000A4200ED005F
:1045D0000142014800004201460000410001004143
:1045E0000025004100470041000400410046004111
:1045F00000030041000200440138016E360044010E
:104600003300005DC04101371844013D2EE0000039
:104610004101500041015600410151004101570044
:104620004101580041015900007F011232F97F2AEF
:10463000124564125039EF30E1F97F2A12456412B5
:104640005039EF30E1F97F2A124564125039EF30CA
:10465000E1F97F2A124564125039EF30E1F97F2ADF
:10466000124564125039EF30E1F97F2A1245641285
:104670005039EF30E1F97F3F124564125039EF3085
:10468000E1F97F0412324980A0229000A0EFF0905F
:1046900000A1EDF09000A1E0FFEFD394075003D309
:1046A0008001C340057F00124D879000A0E0FFEF1E
:1046B000D3941F5003D38001C340057F00124D8760
:1046C0009000A1E0FFEF5407FF7E00EF75F020A4FB
:1046D000FFAEF09000A0E0FEEE541FFE74802EF5B9
:1046E00082E43444F583EFF0229000B012354E900E
:1046F00000B3E4F0A3E4F0900001E0FFEF6042902B
:1047000000B01235459000B3E0FEA3E0FFE92FF9B9
:10471000EA3EFA123358FFEF60279000B012354599
:104720009000B3E0FEA3E0FFE92FF9EA3EFA12336E
:1047300058FF123FDE9000B3E475F001123383801E
:10474000BE22C0E0C0F0C083C082C085C084C086E5
:10475000758600C093759300C0D075D000C000C0AE
:1047600001C002C003C004C005C006C0077F02121A
:1047700032D2D007D006D005D004D003D002D00169
:10478000D000D0D0D093D086D084D085D082D083B2
:10479000D0F0D0E03290656AE0FFEF30E30B7B02AF
:1047A0007A65795A124F3280EC124D7290008BEF7D
:1047B000F090659AE0FFEF4403FFEFF090659AE018
:1047C000FFEF54FCFFEFF090659BE0FFEF4403FF29
:1047D000EFF090659BE0FFEF54FCFFEFF090008B53
:1047E000E0FF124CEB229000A5EFF0906568E0FF2F
:1047F000EF30E2F79000A5E0FF906548EFF022323D
:10480000EC4D4E700D78FCEF24E950032840FD225A
:10481000000078C5904800E0C40303540390484763
:104820009325E0240FF404FBEF28FF78FFEE38FE19
:10483000ED38FDEC38FC50D7EF2BFFEE38FEED38AD
:10484000FDEC38FC40F2220502030490658B740FE6
:10485000F09044C87404F07C507D4D7F02124255A4
:104860007D077F0212468A9044C87402F07C507D16
:104870004E7F011242557D077F0112468A124795ED
:10488000124EC0124ED090648F7405F090658A74F9
:1048900018F022124D729000B0EFF0906498E0FF93
:1048A000EF4401FFEFF0906498E0FFEF54FEFFEF5C
:1048B000F09000B0E0FF124CEB124FE3900004E4E4
:1048C000F0900046E4F0900003E4F0900002E4F081
:1048D000124FDC227C3F7D107F031242557D077F03
:1048E0000312468A9064887476F09064877420F08E
:1048F0007C417D3D7F041242557D077F0412468A2C
:1049000090642F740FF090643F7490F090648C74F6
:1049100002F022124D729000A0EFF0906498E0FF38
:10492000EF4420FFEFF0906497E0FFEF4410FFEFBB
:10493000F09044C07408F090649CE0FFEF4410FFD6
:10494000EFF09044C07410F09000A0E0FF124CEB28
:1049500022124D7290008BEFF090659BE0FFEF44C8
:1049600020FFEFF090649FE0FFEF4410FFEFF09026
:10497000659AE0FFEF4410FFEFF090008BE0FF122C
:104980004CEB9044C07404F09044C07402F02212C6
:104990004D7290008BEFF0906597E0FFEF4420FFA1
:1049A000EFF0906598E0FFEF4410FFEFF090659610
:1049B000E0FFEF4410FFEFF090008BE0FF124CEBB4
:1049C000124D1A124B7B12504B2290008BEFF0903D
:1049D000008BE0FFC3EF64809480401090008BE078
:1049E000FFEF2480FF90008CEFF0800E90008BE0B2
:1049F000FFEFF404FF90008CEFF090008CE0FF12CA
:104A00004F0022124D729000A0EFF0906498E0FFEA
:104A1000EF54DFFFEFF0906497E0FFEF54EFFFEF0C
:104A2000F0124FE390649CE0FFEF54EFFFEFF012C1
:104A30004FF19000A0E0FF124CEB22124D7290005B
:104A4000B0EFF090649CE0FFEF4401FFEFF0906462
:104A50009CE0FFEF54FEFFEFF09000B0E0FF124C3F
:104A6000EB124FF1900025E4F0900047E4F0124F74
:104A7000EA22906566E0FFEF30E507906558E0FFB9
:104A800080F0124D7290008BEFF0906598E0FFEF90
:104A90004401FFEFF0906598E0FFEF54FEFFEFF068
:104AA00090008BE0FF124CEB22906476E0FFEF5415
:104AB000C0FF9000A0EFF09000A0E0FFEF4409FFDE
:104AC000906476EFF0906596E0FFEF4401FFEFF021
:104AD0007F01124E907F01124EA07F01124EB02234
:104AE0007B0C7A0179CF124F999000C1EFF09000C2
:104AF000C1E0FFEF5407FF90586EEFF09000C1E067
:104B0000FFEFC4540FFFEF540FFF90586FEFF0907A
:104B100058767444F022758600EF4E6027EF6001EE
:104B20000E7593009000C6E0F595A3E0F585A3E02F
:104B3000F5848B938A838982E0A30586F0A315868A
:104B4000DFF6DEF4E4F593F595229044C87401F0A5
:104B50007B027A447900C003C002C0017BFF7A3037
:104B60007961AC02AD01D001D002D003124F419067
:104B70004480E4F09044C07401F02222EEFA9001E7
:104B800037E0F88FF0A4FFAEF0E88AF0A42EFEE53F
:104B9000F03400FDEF24C9FF78FFEE38FEED38FD5C
:104BA000E438FC500302480022124D729000A0EF3E
:104BB000F0906598E0FFEF4401FFEFF0906598E01A
:104BC000FFEF54FEFFEFF09000A0E0FF124CEB224D
:104BD000758600EF4E601BEF60010E8C838D828B1B
:104BE000958A858984E493A30586F0A31586DFF56D
:104BF000DEF3E4F595229000BFEEF0A3EFF09064B1
:104C00006FE0FFEF30E1F77B027A65794A9000BFF1
:104C1000E0FCA3E0FD124F41227F0F124EE0124D47
:104C20007290008BEFF090649EE0FFEF4410FFEF76
:104C3000F090008BE0FF124CEB229000B8EEF0A356
:104C4000EFF012500D9000B8E0FEA3E0FF124C7799
:104C50007F01124D471250062290008BEEF0A3EF19
:104C6000F07B027A44790A90008BE0FEA3E0FFAD6E
:104C700007AC06124F41229000BAEEF0A3EFF07B92
:104C8000027A4479129000BAE0FEA3E0FFAD07ACCF
:104C900006124F4122124FBD9000C0EFF09000C0AD
:104CA000E0FF7E00EF2480FF9000BFEFF09000BF98
:104CB000E0FF22124DF07F80124F00900157E0FF7D
:104CC000EF700912504C9001577401F0124C1922E8
:104CD000906587740FF0124A72124E60124E7090F7
:104CE0006588E4F09065867430F022EF540160042A
:104CF000D2AF8002C2AFEF5402FF9044F4E054FD03
:104D00004FF022904585E0FFEF5404FF7E00EF78DE
:104D100002CEC313CE13D8F9FF229043A2E0FFEFD7
:104D20004402FFEFF09043B2E0FFEF4402FFEFF0E8
:104D30002290008BEFF090008BE0FFEFC43354E043
:104D4000FF904485EFF0229000BAEFF09000BAE0B7
:104D5000FFEFC43354E0FF904489EFF0229000014C
:104D6000E0FFEF70091248D49000017401F012497D
:104D700013229044F4E0F84402F0E85402FF10AF2C
:104D8000012274014FFF2290FFFF12357DEFF0905A
:104D900046EA7401F090000112357D22900150E046
:104DA000FFEF7009124CD09001507401F012498F3E
:104DB00022900156E0FFEF7009124AA99001567443
:104DC00001F0124F7522900151E0FFEF7009124877
:104DD0004B9001517401F01249512290656AE0FF35
:104DE000EF30E30B7B027A65795A124F3280EC2266
:104DF000900158E0FFEF700912443490015874019B
:104E0000F0124FB122124FFF7E477F42124C597F62
:104E100002124D31124FF82212500D7E477FFF12C1
:104E20004C777F01124D47125006221250147E35E6
:104E30007FA1124C3A7F011232F980F9229000C60C
:104E4000EFF09000C6E0FF9000C6EFF080FE2290E9
:104E50006566E0FFEF30E507906558E0FF80F022DF
:104E6000906568E0FF9000A5EFF09000A5E0FF22BC
:104E7000906566E0FF9000A0EFF09000A0E0FF22B8
:104E8000906558E0FF9000A0EFF09000A0E0FF22B6
:104E90009000A1EFF09000A1E0FF906506EFF022F6
:104EA0009000A1EFF09000A1E0FF906546EFF022A6
:104EB0009000A1EFF09000A1E0FF906526EFF022B6
:104EC00090646FE0FF9000BFEFF09000BFE0FF2222
:104ED00090656AE0FF90008BEFF090008BE0FF227E
:104EE00090008CEFF090008CE0FF90648EEFF02249
:104EF00090008DEFF090008DE0FF90648DEFF02238
:104F000090008DEFF090008DE0FF90640AEFF022AA
:104F100090008DEFF090008DE0FF90642AEFF0227A
:104F200090008DEFF090008DE0FF90643AEFF0225A
:104F30008B938A838982E0FFA3E0FE759300228B26
:104F4000938A838982EDF0A3ECF0759300222A2ADC
:104F50002A23002A0023002A2A2A3F0012503FEF6A
:104F600030E60512504580F4229046F6E0FFEF440B
:104F700001FFEFF022906476E0FFEF4480FFEFF056
:104F800022906476E0FFEF547FFFEFF02242D7409B
:104F9000A011894E2B462943578B938A838982E03F
:104FA000759300FF228B938A838982EDF0759300BD
:104FB0002290647EE0FFEF4480FFEFF02290640ACD
:104FC000E0FF90644AE0FF227B027A407980124F32
:104FD0003222904082E0FFEF5407FF229044C074D9
:104FE00008F0229044C87408F0229044C07410F075
:104FF000229044C87410F0229044C07420F0229093
:1050000044C87420F0229044C17402F0229044C934
:105010007402F0229044D97402F0227F011231C050
:10502000227F021231C0227F031231C0227F04127C
:1050300031C0227F051231C02290646CE0FF2290C3
:10504000646DE0FF2290644AE0FF22222232322087
:105050000000000F00000000000004000000080035
:105060000000000000000000030000200100000616
:10507000000000000000E0000000000000CC00FF85
:105080003F00000000000000000200000000009A45
:10509000000100000000011B0480002000C0009BF4
:1050A00000000304001A009B0000002400C8009BBD
:1050B00000000002006400E4001000000001000095
:1050C000011E040102E0000000880000001004003E
:1050D00000000000000000000000000000000000D0
:1050E00000800000000000040400044140000100B2
:1050F00000000000000000000000000000000000B0
:10510000000000000000000000000000000000019E
:10511000030E10E780180C1E0401002343DC3CDD65
:10512000002233004CD033C64F39300080000000DD
:105130000000009008000050020020007D3F00E0C9
:105140003F1FC01040000000080A020000001000CD
:10515000000000000000000000000000000000004F
:105160000000001A00040004040004000000010014
:10517000000000000000000000000000000000002F
:10518000000000000000000000000000000000001F
:105190000400004762381D4946360000468000245E
:1051A0000F122038420704000040105B4224000028
:1051B0004200046D01125A6D04124200000000000A
:1051C000003F18C0650007000000200000000056E6
:1051D000010300020E0C0005FFFFFF62A0F0410C6E
:1051E0000000000000021304040404100000010089
:1051F00000000000004002001030100010101200EB
:10520000000000000000000000000000000000009E
:105210000100003000C90000000F0000000000FD88
:1052200000020073000000000000009E006000000B
:105230000000000000000094006000CF003003FF79
:10524000020000000100000000000000000110004A
:10525000000000000000000000000000000000004E
:1052600000000000000800040400042020000100E9
:10527000000000000000000000000000000000002E
:10528000000000000000000000000000000000001E
:1052900000000000030000001D00000204000800E0
:1052A0000000100000001C000000000003030000CC
:1052B0000000200010000000040008001C00000195
:1052C00002003C00010200002200000000401062C9
:1052D000030000004EC3021FFFFFFF00A0000118E3
:1052E000000000000000000404040033030001403B
:1052F000008000404080004000800040208000008E
:10530000000000000000000000000000000000009D
:105310000908100020004000000010002000400597
:105320001C00020010000C000C0811008007030094
:105330006000000014010000200040002000400236
:105340000001600480081F000000000000541000ED
:10535000000000000000000000000000000000004D
:105360000000000000080004040004022000010006
:10537000000000000000000000000000000000002D
:10538000000000000000000000000000000000001D
:105390000000000000000023080C000900200000AD
:1053A00058000200322E440032000C1000000000B1
:1053B000000000030024012300046E00000001200F
:1053C00030104C0F01100E000220880000411131F6
:1053D00002000000EC000B13FFFFFF0000F0440C84
:1053E00000000001000400040404040000000100A7
:1053F0000000000000C000000040020000000000AB
:10540000000000000000000000000000000000009C
:1054100000000C0208000400000000000200000070
:105420000000000000000000000300000000030076
:10543000000000000000000000000000000000026A
:1054400001000201080004000000000000015400F7
:10545000000000000000000000000000000000004C
:105460000000000F000000040400043330000500B9
:10547000000000000000000000000000000000002C
:105480000000000000000000000000000000008597
:105490000042000203E40000000008000019008739
:1054A0000620000000000008000000000000006668
:1054B000068100E300000006002000000508000748
:1054C0000008081007E400002000000000040000AD
:1054D00000000000000000000000000000000000CC
:1054E0000080000F000400040400043330000100B9
:1054F00000000000000000000000000000000000AC
:10550000000000000000000000000000000000019A
:10551000000200010006000002000100010002007C
:1055200001000601000A0002010102000000000063
:10553000000000000000000000100000000008044F
:1055400000080803031004000020200000000001F0
:10555000000000001050000AFF0FFF4020F0050877
:105560000000004100040004040404332000014052
:10557000A840200000000000000000000000000023
:10558000000000000000000000000000000000001B
:105590000000000013002C00000000000000001CB0
:1055A00065001A0002000D064909060B00140000F0
:1055B0004000000000000008001300000000001E72
:1055C000000070010F0000020000280000100030F1
:1055D0000500000001020005FFFFFF00A000041805
:1055E0000000004000000004040404111400014005
:1055F00000C0004040C000C000C000C000C00000AB
:10560000000000000000000000000000000000009A
:105610000040000000010000008800101D0060F341
:105620000004750000307D201D00600F00F00001B7
:105630001400213F00C0023510CA400060CE1C009B
:1056400004FF0334700008008000280000040000FC
:10565000000000000000000000000000000000004A
:1056600000000000000224040400040010000100F7
:10567000000000000000000000000000000000002A
:10568000000000000000000000000000000000001A
:1056900060000000560909048000040000000000BA
:1056A000070038000A011000010200000400000495
:1056B00004008004840000008400000084000004D2
:1056C00000087F0300008000080000000011406314
:1056D00004500002CEF0BD3BFFFFFF2200F00804A3
:1056E000000000090000000404040410110001007F
:1056F00000C00040011011C0010011400140010034
:105700000000000000000000000000000000000099
:10571000000000000300FC00770000000000000013
:10572000CC0023030000000085001A00CA00150009
:10573000000000000001000000000000BF00400069
:10574000F002000000010F00000000000044000013
:105750000000000000000000000000000000000049
:1057600000000000000800040400043020000100D4
:105770000000000000000000000000000000000029
:105780000000000000000000000000000000000019
:105790000000000000000000000000000001000008
:1057A00000000000000000000000000000000000F9
:1057B00001000000000000000000000000000000E8
:1057C0000000000000010100000000000000400196
:1057D0000210000600000000FFFFFF0200700C8CAA
:1057E0001000002000040004042404082800210004
:1057F000000000000000004001C0010000000000A7
:105800000000000000000000000000000000000098
:1058100000000003C31C0824C3DB10000000029238
:105820004349A0E0001C001C00E3006D0092000052
:10583000C30004B6004900B60049010000003C0066
:1058400001003E0080FF40000000000000405501C4
:1058500003100002FBE0CD3BFFFFFF2300F00C8CA8
:1058600010000000000228040424240088083100ED
:10587000000000000000004001C001000000000026
:105880000000000000000000000000000000000018
:105890000000000000000000000000000000000008
:1058A0000000000000003A760000000F6F0F470074
:1058B00000000000000000000000000000000000E8
:1058C0000000000000000F0000780F000000001F23
:1058D00000000000000000000013000F0000001F87
:1058E00000000000000000000013000F000D000089
:1058F00000000000020000000000000000010000A5
:105900000040001000000000000000000000000047
:105910000000000000000000000000000000000087
:105920000000000000000000000000000000000077
:105930000000000000000000000000000000000067
:105940000000000000000001000020010000000035
:105950000000000000000000000000000000000047
:105960000000000000000000000000000000000037
:1059700000000000000000100040000002000001D4
:1059800000000000000100010000200000000000F5
:105990000000000000000000000000000001000402
:1059A00000020000000000000000000000000004F1
:1059B0000001000C000000000000000000000000DA
:1059C00000000001000300000000000000000000D3
:1059D00000060000000100000000000100040000BB
:1059E00000000000000000000000000000000000B7
:1059F00000020000000000000000000000000000A5
:105A00000000000000000000000000000000000096
:105A10000000000000000000000000000000000086
:105A20000000000000000000000000000000000076
:105A30000000000000000000000000000000000066
:105A40000000000000000004000000000000000052
:105A50000000000000000000000000000000000046
:105A60000000000000000000000000000000000036
:105A70000000000100000000000000000000000124
:105A800000000000000000000000200000000000F6
:105A90000000000000000000000000000000000006
:105AA00000000000000000000000000000000002F4
:105AB00000000000000000000000000000000000E6
:105AC00000000000000200000000000000000000D4
:105AD00000000000000000000000000000000000C6
