:100000000209F0008F828E83E0540100000070F836
:100010002278FFE4F6D8FD020AAD900051E4F0909A
:100020000052740FF0D2AF9044F474FDF09050027F
:10003000E0FFEF54FEFFEFF0905001E0FFEF54FEC1
:10004000FFEFF0905000E0FFEF54FEFFEFF0905014
:1000500021E0FFEF54FEFFEFF0905020E0FFEF545F
:10006000FEFFEFF0905063E0FFEF54FEFFEFF090E3
:100070005062E0FFEF54FEFFEFF0905001E0FFEF21
:100080004401FFEFF07F0A7E007D007C00120D1C12
:10009000900051E4F090507BE0FFEF5410FF7E00A1
:1000A000EF4E6010900051E0FFEF4401FF900051CF
:1000B000EFF0800E900051E0FFEF4400FF90005100
:1000C000EFF090507AE0FFEF5410FF7E00EF4E60AB
:1000D00010900051E0FFEF4402FF900051EFF080DC
:1000E0000E900051E0FFEF4400FF900051EFF090C0
:1000F000501FE0FFEF5410FF7E00EF4E60109000A5
:1001000051E0FFEF4404FF900051EFF0800E9000AB
:1001100051E0FFEF4400FF900051EFF0900052E0FB
:10012000FF900051E0FEEE6F70030204A7900051B3
:10013000E0FFEF640770030204A7900051E0FF9016
:100140000052EFF0900051E0FFEF1206F00169005D
:1001500001CF01023502029B03030104036705037B
:10016000CD06043E0700000090905002E0FFEF54DF
:10017000FEFFEFF0905000E0FFEF54FEFFEFF09035
:100180005021E0FFEF54FEFFEFF0905020E0FFEF32
:1001900054FEFFEFF0905063E0FFEF54FEFFEFF0EE
:1001A000905062E0FFEF54FEFFEFF07F0A7E007D8B
:1001B000007C00120D1C905001E0FFEF4401FFEFA6
:1001C000F07F0A7E007D007C00120D1C02009090E2
:1001D0005001E0FFEF54FEFFEFF0905000E0FFEF22
:1001E00054FEFFEFF0905021E0FFEF54FEFFEFF0E0
:1001F000905020E0FFEF54FEFFEFF0905063E0FFDF
:10020000EF54FEFFEFF0905062E0FFEF54FEFFEF7F
:10021000F07F0A7E007D007C00120D1C905002E0F1
:10022000FFEF4401FFEFF07F0A7E007D007C0012AB
:100230000D1C020090905002E0FFEF54FEFFEFF023
:10024000905001E0FFEF54FEFFEFF0905000E0FF10
:10025000EF54FEFFEFF0905021E0FFEF54FEFFEF70
:10026000F0905020E0FFEF54FEFFEFF0905062E07E
:10027000FFEF54FEFFEFF07F0A7E007D007C00124E
:100280000D1C905063E0FFEF4401FFEFF07F0A7E0A
:10029000007D007C00120D1C020090905002E0FFD7
:1002A000EF54FEFFEFF0905001E0FFEF54FEFFEF40
:1002B000F0905000E0FFEF54FEFFEFF0905021E08F
:1002C000FFEF54FEFFEFF0905063E0FFEF54FEFFAE
:1002D000EFF0905062E0FFEF54FEFFEFF07F0A7EF8
:1002E000007D007C00120D1C905020E0FFEF4401C7
:1002F000FFEFF07F0A7E007D007C00120D1C0200E3
:1003000090905002E0FFEF54FEFFEFF0905001E0BC
:10031000FFEF54FEFFEFF0905000E0FFEF54FEFFC0
:10032000EFF0905020E0FFEF54FEFFEFF0905063AD
:10033000E0FFEF54FEFFEFF0905062E0FFEF54FE5D
:10034000FFEFF07F0A7E007D007C00120D1C9050B4
:1003500021E0FFEF4401FFEFF07F0A7E007D007C8B
:1003600000120D1C020090905001E0FFEF54FEFFC0
:10037000EFF0905000E0FFEF54FEFFEFF0905021BF
:10038000E0FFEF54FEFFEFF0905020E0FFEF54FE4F
:10039000FFEFF0905063E0FFEF54FEFFEFF090505E
:1003A00062E0FFEF54FEFFEFF07F0A7E007D007CED
:1003B00000120D1C905002E0FFEF4401FFEFF07FB0
:1003C0000A7E007D007C00120D1C020090905001FE
:1003D000E0FFEF54FEFFEFF0905021E0FFEF54FEFE
:1003E000FFEFF0905020E0FFEF54FEFFEFF0905051
:1003F00063E0FFEF54FEFFEFF0905062E0FFEF5438
:10040000FEFFEFF07F0A7E007D007C00120D1C9045
:100410005000E0FFEF4401FFEFF07F0A7E007D0017
:100420007C00120D1C905002E0FFEF4401FFEFF042
:100430007F0A7E007D007C00120D1C02009090500F
:1004400002E0FFEF54FEFFEFF0905001E0FFEF54A9
:10045000FEFFEFF0905000E0FFEF4401FFEFF0905F
:100460005021E0FFEF54FEFFEFF0905020E0FFEF4F
:1004700054FEFFEFF0905063E0FFEF54FEFFEFF00B
:100480007F0A7E007D007C00120D1C905062E0FF10
:10049000EF4401FFEFF07F0A7E007D007C00120D2B
:1004A0001C020090020090900051E0FFEF64076092
:1004B00003020090900052E0FFEF64056003020029
:1004C00090900051E0FF900052EFF0905001E0FF5B
:1004D000EF54FEFFEFF0905000E0FFEF54FEFFEF0F
:1004E000F0905021E0FFEF54FEFFEFF0905020E03D
:1004F000FFEF54FEFFEFF0905063E0FFEF54FEFF7C
:10050000EFF0905062E0FFEF4401FFEFF07F0A7ED2
:10051000007D007C00120D1C02009022BB010689A8
:10052000828A83E0225002E722BBFE02E322898214
:100530008A83E49322BB010689828A83F0225002D7
:10054000F722BBFE01F322C5F0F8A3E028F0C5F0C6
:10055000F8E582158270021583E038F022EF2BFF58
:10056000EE3AFEED39FDEC38FC22E88FF0A4CC8B9E
:10057000F0A42CFCE98EF0A42CFC8AF0EDA42CFC59
:10058000EA8EF0A4CDA8F08BF0A42DCC3825F0FD98
:10059000E98FF0A42CCD35F0FCEB8EF0A4FEA9F091
:1005A000EB8FF0A4CFC5F02ECD39FEE43CFCEAA4DD
:1005B0002DCE35F0FDE43CFC2275F008758200EF8D
:1005C0002FFFEE33FECD33CDCC33CCC58233C58285
:1005D0009BED9AEC99E58298400CF582EE9BFEED3E
:1005E0009AFDEC99FC0FD5F0D6E4CEFBE4CDFAE40D
:1005F000CCF9A88222B800C1B90059BA002DEC8B01
:10060000F084CFCECDFCE5F0CBF97818EF2FFFEEDC
:1006100033FEED33FDEC33FCEB33FB10D703994095
:1006200004EB99FB0FD8E5E4F9FA227818EF2FFFD5
:10063000EE33FEED33FDEC33FCC933C910D7059B17
:10064000E99A4007EC9BFCE99AF90FD8E0E4C9FA73
:10065000E4CCFB2275F010EF2FFFEE33FEED33FDFF
:10066000CC33CCC833C810D7079BEC9AE899400A22
:10067000ED9BFDEC9AFCE899F80FD5F0DAE4CDFBA0
:10068000E4CCFAE4C8F922EF4BFFEE4AFEED49FD57
:10069000EC48FC22E8600FECC313FCED13FDEE13F5
:1006A000FEEF13FFD8F122E8600FEFC333FFEE3304
:1006B000FEED33FDEC33FCD8F122E0FCA3E0FDA31A
:1006C000E0FEA3E0FF22E0F8A3E0F9A3E0FAA3E054
:1006D000FB22ECF0A3EDF0A3EEF0A3EFF022E0FBA1
:1006E000A3E0FAA3E0F922EBF0A3EAF0A3E9F022F9
:1006F000D083D082F8E4937012740193700DA3A399
:1007000093F8740193F5828883E4737402936860AC
:10071000EFA3A3A380DFE5092582F582E5083583F1
:10072000F583B508048582092210AF06858209F594
:100730000822858209F508D2AF22EC8EF0A4CCC540
:10074000F0CCCDF8EFA4CEC5F02DFDE43CFCE8A440
:100750002EC8C5F03DFDE43CFCEFA4FFE5F028FE0B
:10076000E43DFDE43CFC22E709F608DFFA8046E7B9
:1007700009F208DFFA803E88828C83E709F0A3DF64
:10078000FA8032E309F608DFFA806EE309F208DF47
:10079000FA806688828C83E309F0A3DFFA805A89A5
:1007A000828A83E0A3F608DFFA804E89828A83E09A
:1007B000A3F208DFFA804280D280FA80C680D4801B
:1007C0005580F28029801080A680EA809A80A880D7
:1007D000DA80E280CA802988848C8589828A83E4D1
:1007E00093A30586F0A30586DFF5DEF3800B8982EF
:1007F0008A83E493A3F608DFF9ECFAA9F0EDFB2273
:1008000088848C8589828A83E0A30586F0A3058687
:10081000DFF6DEF480E389828A83E493A3F208DFC3
:10082000F980D688F0EF60010E4E60CD88F0ED249F
:1008300002B4040050C3F582EB2402B4040050B9A2
:1008400023234582239007B7737B007A4679E81209
:100850000E6EEF4405FD7B007A4679E8120E7A129F
:100860000B397B017A507903120E6EEF4402FD7B47
:10087000017A507903120E7A7B017A507913120EA5
:100880006EEF4402FD7B017A507913120E7A904389
:10089000A0E0FFEF4440FF9043A0EFF09043C2E0A0
:1008A000FFEF4410FF9043C2EFF07B087A077928EE
:1008B000C003C002C0017B007A5179029000561239
:1008C00006E7D001D002D0037F087E00120DB87B6E
:1008D000087A077930C003C002C0017B007A5179E1
:1008E000C29000561206E7D001D002D0037F087EE6
:1008F00000120DB87B087A077938C003C002C00126
:100900007B007A5179F29000561206E7D001D002AE
:10091000D0037F087E00120DB87B087A077940C0AB
:1009200003C002C0017B007A517932900056120652
:10093000E7D001D002D0037F087E00120DB87B08FB
:100940007A077948C003C002C0017B007A5179421E
:100950009000561206E7D001D002D0037F087E0037
:10096000120DB87B087A077950C003C002C0017B22
:10097000007A5179529000561206E7D001D002D089
:10098000037F087E00120DB89044F47401F0904388
:1009900022E0FFEF4408FF904322EFF09046ECE0A6
:1009A000FFEFC394055006904689743AF0904800D2
:1009B00074F1F0120C3990480074B1F0120D827B82
:1009C000007A4379A0C003C002C0017B007A43795A
:1009D000B09000561206E7D001D002D0037F0E7E01
:1009E00000120DB89043B0E0FFEF54FDFFEFF0228E
:1009F00075930078007583467582E8E04401F00045
:100A00009046ECE0F99046FAE0FAB903225420B49B
:100A10000012B8001AEA901FFFF07401901FFEF058
:100A20009046F6F0901FFEE06005901FFFE0FA9000
:100A3000480074C0F07581099076BCE4F0A3F0A37F
:100A4000F0A3F0907010F0907019F0907020F0907A
:100A500076007410F0907604E4F0A3F0A3F0A3F015
:100A60009078007800087400F0A37408F0E8B804E7
:100A70000274FFA3F0A37422F0A374BCF0A37476F5
:100A8000F0A3E4F0A3E81475F008A4F0A3B804D52B
:100A90009070107401F0907014F07E707F18120046
:100AA00004907010F0EA90004CF002001175081FDD
:100AB0007509FD120849020AF402001AE493A3F82A
:100AC000E493A34003F68001F208DFF48029E49365
:100AD000A3F85407240CC8C333C4540F4420C8835C
:100AE0004004F456800146F6DFE4800B010204085E
:100AF00010204080900E3BE47E019360BCA3FF5425
:100B00003F30E509541FFEE493A360010ECF54C0AB
:100B100025E060A840B8E493A3FAE493A3F8E49333
:100B2000A3C8C582C8CAC583CAF0A3C8C582C8CA3B
:100B3000C583CADFE9DEE780BE7F007E007D007CE2
:100B40000090005E1206D29076007410F090701043
:100B50007401F0907019E4F07B027A7879007D409E
:100B60007C01120E619078027401F090780374A3F6
:100B7000F07B027A787904C003C002C0017BFF7A5F
:100B80000E79ABAF01AE02AD037C00EF54FFFFEE78
:100B900054FFFEED5400FDEC5400FCAD07AC06D054
:100BA00001D002D003120E617B027A7879067D08AB
:100BB0007C78120E617B027A7679047D107C0012BB
:100BC0000E617B027A7679067D007C00120E6190C0
:100BD00070297409F0907039740CF0907069741673
:100BE000F0907079741AF09070147401F09070188D
:100BF000E0FFEF5401FF7E00EF4E70F1907028E0AF
:100C0000FFEF5401FF7E00EF4E70F1907038E0FF6F
:100C1000EF5401FF7E00EF4E70F1907068E0FFEF3F
:100C20005401FF7E00EF4E70F1907078E0FFEF54BA
:100C300001FF7E00EF4E70F1229043007402F090AD
:100C400040007408F09042007403F07B0C7A017944
:100C500008120E6E9046A1EFF07B007A4279227D59
:100C6000087C00120E5F7B007A4279207D517C1255
:100C7000120E5F900055E4F07F197E007D007C002D
:100C80009000511206D29000511206BAD3EF940090
:100C9000EE9400404E900055E0FFEF6403604490F6
:100CA0004225E0FFEF5401FF7E00900055E0FEEE8C
:100CB00025E0FEEE4FFFEF5403FF900055EFF07F6D
:100CC000E07E017D007C00120E009000511206BAF9
:100CD0007BFF7AFF79FF78FF12055D9000511206C5
:100CE000D280A39000511206BAEF4E70057F031216
:100CF0000DEC7B007A4079047D007C01120E5F9040
:100D000040047407F0904006E4F09040087448F006
:100D1000904004E4F09040017402F02290FFFC1235
:100D200007161206D28508838509821206BAD3EF08
:100D30009400EE9480402F90004D1206BA120E00DF
:100D4000850883850982C083C0821206BAEF240019
:100D5000FFEE3480FEED34FFFDEC34FFFCD082D09A
:100D6000831206D280BF9000431206BA850883859D
:100D700009821206C612056A120E009000041207BC
:100D800016227B0C7A0179CF120E6E900051EFF093
:100D9000900051E0FFEF5407FF90586EEFF0900085
:100DA00051E0FFEFC4540FFFEF540FFF90586FEF67
:100DB000F09058767444F022758600EF4E6027EF6D
:100DC00060010E759300900056E0F595A3E0F5855F
:100DD000A3E0F5848B938A838982E0A30586F0A340
:100DE0001586DFF6DEF4E4F593F59522900056EFD4
:0E0DF000F0900056E0FF900056EFF080FE22DB
:100E0000EC4D4E700D78FCEF24E950032840FD2294
:100E100000007BF178DA0000EF28FF78FFEE38FE63
:100E2000ED38FDEC38FC50E7EF2BFFEE38FEED38E7
:100E3000FDEC38FC40F22205020304440048016E38
:100E4000360044004300005DC04100471844004D97
:100E50002EE0000043005900000041006200008BBA
:100E6000938A838982EDF0A3ECF0759300228B9333
:100E70008A838982E0759300FF228B938A8389821B
:100E8000EDF0759300220100000000000000010059
:100E90000000000001000100000008000000010047
:100EA0000000080001000100000001000823020EFC
:100EB000867608000823030E8E7610000823040EA1
:100EC000967628000823050E9E7630000523060E30
:100ED000A67020000523070EA67030000523080E1B
:100EE000A67060000523FE0EA670700015220A0091
:100EF0005E49C80020220B005E5110001022FE0047
:100F00005E51600FFF220D005E00000001220E0006
:100F10005E0F800180220F005E140001802210000D
:100F20005E160001802211005E180001802212006E
:100F30005E1A0002002213005E40000080221400AE
:100F40005E430004802215005E4400002022FE0063
:100F50005E500000072317000052180007231800F6
:100F60000852280006231900105260000723FE00D3
:100F70001852780008231B002051000080231C0019
:100F8000284D000080231D00A84D800080231E01F5
:100F9000284C000080231F01A84C800080232002E1
:100FA000281B800080232102A815800080232203B3
:100FB0002819800080232303A8178000802324049D
:100FC0002849000080232504A849800080232605A5
:100FD0002848800080232705A84380008023280616
:0B0FE000284200008023FE06A842808B
:00000001FF
