:10000000021184008F828E83E0540100000070F89A
:100010002278FFE4F6D8FD0211E2900043E4F0A359
:10002000E4F0900045E4F0A3E4F01215D1905027DD
:10003000E0FFEF54FEFFEFF0905026E0FFEF54FE9C
:10004000FFEFF0905025E0FFEF54FEFFEFF09050EF
:1000500024E0FFEF54FEFFEFF0905023E0FFEF5459
:10006000FEFFEFF0905022E0FFEF54FEFFEFF09024
:100070005007E0FFEF54FEFFEFF0905006E0FFEF77
:1000800054FEFFEFF0905005E0FFEF54FEFFEFF05D
:10009000905003E0FFEF54FEFFEFF0905002E0FFBE
:1000A000EF54FEFFEFF0905001E0FFEF54FEFFEF42
:1000B000F0905000E0FFEF54FEFFEFF0905021E091
:1000C000FFEF54FEFFEFF0905020E0FFEF54FEFFF3
:1000D000EFF0905063E0FFEF54FEFFEFF0905062BE
:1000E000E0FFEF54FEFFEFF0905004E0FFEF54FE0E
:1000F000FFEFF0905030E0FFEF54FEFFEFF0905034
:1001000031E0FFEF54FEFFEFF0D2AF9044F474FD06
:10011000F01215E690500AE0FFEF5410FF7E00EF5A
:100120004E60F1121647EF20E4101215869000433E
:10013000EEF0A3EFF01215E680E9900043E0FEA395
:10014000E0FFEE20E70302052C900043E0FEA3E071
:10015000FFEE5460FE7F00EF8EF0120D2F016D0058
:1001600000039C0001040F00020000050F900043F3
:10017000E0FEA3E0FF7E00EF5460FFEF4E6003025D
:100180000252905025E0FFEF5410FF7E00EF4E60CA
:100190000B900055E4F0A37480F08008900055E4C3
:1001A000F0A3E4F0905027E0FFEF5410FF7E00EF43
:1001B0004E600B90004FE4F0A37410F080089000A4
:1001C0004FE4F0A3E4F0905026E0FFEF5410FF7EE0
:1001D00000EF4E600B90004DE4F0A37408F080082F
:1001E00090004DE4F0A3E4F0905003E0FFEF5410D2
:1001F000FF7E00EF4E600B90004BE4F0A37404F020
:10020000800890004BE4F0A3E4F0905002E0FFEF90
:100210005410FF7E00EF4E600B900049E4F0A37491
:1002200002F08008900049E4F0A3E4F0905006E06A
:10023000FFEF5410FF7E00EF4E600C900047E4F09B
:10024000A37401F0020335900047E4F0A3E4F00248
:100250000335900043E0FEA3E0FF7E00EF5460FF13
:10026000EF64014E6003020335905022E0FFEF542B
:1002700010FF7E00EF4E600B900055E4F0A37480F9
:10028000F08008900055E4F0A3E4F0905024E0FFE3
:10029000EF5410FF7E00EF4E600B90004FE4F0A390
:1002A0007410F0800890004FE4F0A3E4F090502325
:1002B000E0FFEF5410FF7E00EF4E600B90004DE426
:1002C000F0A37408F0800890004DE4F0A3E4F090EF
:1002D0005001E0FFEF5410FF7E00EF4E600B9000E6
:1002E0004BE4F0A37404F0800890004BE4F0A3E426
:1002F000F0905000E0FFEF5410FF7E00EF4E600BD7
:10030000900049E4F0A37402F08008900049E4F002
:10031000A3E4F0905005E0FFEF5410FF7E00EF4E95
:10032000600B900047E4F0A37401F0800890004750
:10033000E4F0A3E4F0900055E0FEA3E0FF90004558
:10034000E0FCA3E0FDEC4EFEED4FFF90004FE0FC23
:10035000A3E0FDEE4CFEEF4DFF90004DE0FCA3E06E
:10036000FDEE4CFEEF4DFF90004BE0FCA3E0FDEEF8
:100370004CFEEF4DFF900049E0FCA3E0FDEE4CFE8B
:10038000EF4DFF900047E0FCA3E0FDEE4CFEEF4D8B
:10039000FF900045EEF0A3EFF002050F905030E023
:1003A000FFEF5410FF7E00EF4E600B900049E4F029
:1003B000A37402F08008900049E4F0A3E4F09050A8
:1003C00031E0FFEF5410FF7E00EF4E600B900047CE
:1003D000E4F0A37401F08008900047E4F0A3E4F097
:1003E000900049E0FEA3E0FF900045E0FCA3E0FDA3
:1003F000EC4EFEED4FFF900047E0FCA3E0FDEE4C1D
:10040000FEEF4DFF900045EEF0A3EFF002050F90D8
:100410005004E0FFEF5410FF7E00EF4E600B9000A1
:100420004FE4F0A37410F0800890004FE4F0A3E4D0
:10043000F0905021E0FFEF5410FF7E00EF4E600B74
:1004400090004DE4F0A37408F0800890004DE4F0B3
:10045000A3E4F0905020E0FFEF5410FF7E00EF4E39
:10046000600B90004BE4F0A37404F0800890004B04
:10047000E4F0A3E4F0905063E0FFEF5410FF7E003F
:10048000EF4E600B900049E4F0A37402F0800890F6
:100490000049E4F0A3E4F0905062E0FFEF5410FF55
:1004A0007E00EF4E600B900047E4F0A37401F080F3
:1004B00008900047E4F0A3E4F090004FE0FEA3E0D2
:1004C000FF900045E0FCA3E0FDEC4EFEED4FFF90F9
:1004D000004DE0FCA3E0FDEE4CFEEF4DFF90004B25
:1004E000E0FCA3E0FDEE4CFEEF4DFF900049E0FC88
:1004F000A3E0FDEE4CFEEF4DFF900047E0FCA3E0D3
:10050000FDEE4CFEEF4DFF900045EEF0A3EFF01234
:100510001426900045E0FEA3E0FF12156312163783
:10052000EF30E20302011480F4020114900043E072
:10053000FEA3E0FFEE5460FE7F00EF8EF0120D2F61
:100540000550000008A70001092F00020000011457
:10055000900043E0FEA3E0FF7E00EF5480FFEF64D5
:10056000014E7040900043E0FEA3E0FF7E00EF5498
:1005700060FFEF4E700D905025E0FFEF4401FFEF5C
:10058000F0806B900043E0FEA3E0FF7E00EF54603C
:10059000FFEF64014E7057905022E0FFEF4401FFDF
:1005A000EFF0804A900043E0FEA3E0FFEF20E73E3B
:1005B000900043E0FEA3E0FF7E00EF5460FFEF4EAB
:1005C000700D905025E0FFEF54FEFFEFF0801F907C
:1005D0000043E0FEA3E0FF7E00EF5460FFEF640104
:1005E0004E700B905022E0FFEF54FEFFEFF09000B2
:1005F00043E0FEA3E0FF7E00EF5418FFEF4E705B78
:10060000900043E0FEA3E0FF7E00EF5460FFEF4E5A
:100610007019905027E0FFEF54FEFFEFF090502646
:10062000E0FFEF54FEFFEFF002075A900043E0FEB8
:10063000A3E0FF7E00EF5460FFEF64014E60030211
:10064000075A905024E0FFEF54FEFFEFF090502344
:10065000E0FFEF54FEFFEFF002075A900043E0FE88
:10066000A3E0FF7E00EF5418FFEF64014E705B9033
:100670000043E0FEA3E0FF7E00EF5460FFEF4E700A
:1006800019905027E0FFEF54FEFFEFF0905026E066
:10069000FFEF4401FFEFF002075A900043E0FEA392
:1006A000E0FF7E00EF5460FFEF64014E600302073D
:1006B0005A905024E0FFEF54FEFFEFF0905023E0FB
:1006C000FFEF4401FFEFF002075A900043E0FEA362
:1006D000E0FF7E00EF5418FFEF4E7016900043E0ED
:1006E000FEA3E0FF7E00EF5460FFEF64024E706AED
:1006F0008068900043E0FEA3E0FF7E00EF5418FF07
:10070000EF64024E7054900043E0FEA3E0FF7E00D1
:10071000EF5460FFEF4E7018905027E0FFEF440158
:10072000FFEFF0905026E0FFEF54FEFFEFF0802A3D
:10073000900043E0FEA3E0FF7E00EF5460FFEF6413
:10074000014E7016905024E0FFEF4401FFEFF0904F
:100750005023E0FFEF54FEFFEFF0900043E0FEA3D4
:10076000E0FF7E00EF5406FFEF4E705A900043E02A
:10077000FEA3E0FF7E00EF5460FFEF4E7019905033
:1007800003E0FFEF54FEFFEFF0905002E0FFEF5464
:10079000FEFFEFF002082E900043E0FEA3E0FF7E94
:1007A00000EF5460FFEF64014E600302082E90508A
:1007B00001E0FFEF54FEFFEFF0905000E0FFEF5438
:1007C000FEFFEFF08068900043E0FEA3E0FF7E00B4
:1007D000EF5406FFEF64014E7054900043E0FEA317
:1007E000E0FF7E00EF5460FFEF4E7018905003E082
:1007F000FFEF54FEFFEFF0905002E0FFEF4401FFE7
:10080000EFF0802A900043E0FEA3E0FF7E00EF546B
:1008100060FFEF64014E7016905001E0FFEF54FE50
:10082000FFEFF0905000E0FFEF4401FFEFF0900089
:1008300043E0FEA3E0FFEF30E02F900043E0FEA393
:10084000E0FF7E00EF5460FFEF4E70030201149052
:100850000043E0FEA3E0FF7E00EF5460FFEF640181
:100860004E6003020114020114900043E0FEA3E075
:10087000FFEF30E003020114900043E0FEA3E0FF2D
:100880007E00EF5460FFEF4E7003020114900043AE
:10089000E0FEA3E0FF7E00EF5460FFEF64014E60D6
:1008A00003020114020114900043E0FEA3E0FF7E66
:1008B00000EF5403FFEF4E6019905030E0FFEF540B
:1008C000FEFFEFF0905031E0FFEF54FEFFEFF0023B
:1008D0000114900043E0FEA3E0FF7E00EF5403FF0D
:1008E000EF64014E7019905030E0FFEF54FEFFEFBF
:1008F000F0905031E0FFEF4401FFEFF0020114905F
:100900000043E0FEA3E0FF7E00EF5403FFEF64022C
:100910004E6003020114905030E0FFEF4401FFEFFE
:10092000F0905031E0FFEF54FEFFEFF00201149021
:100930000043E0FEA3E0FF7E00EF540FFFEF4E7098
:100940002F905021E0FFEF54FEFFEFF0905020E099
:10095000FFEF54FEFFEFF0905063E0FFEF54FEFF17
:10096000EFF0905062E0FFEF54FEFFEFF0020ABBA1
:10097000900043E0FEA3E0FF7E00EF540FFFEF6422
:100980000C4E702F905021E0FFEF4401FFEFF090EC
:100990005020E0FFEF4401FFEFF0905063E0FFEFE5
:1009A00054FEFFEFF0905062E0FFEF54FEFFEFF0D7
:1009B000020ABB900043E0FEA3E0FF7E00EF540F6D
:1009C000FFEF64064E702F905021E0FFEF54FEFFC2
:1009D000EFF0905020E0FFEF4401FFEFF090506304
:1009E000E0FFEF4401FFEFF0905062E0FFEF54FEB4
:1009F000FFEFF0020ABB900043E0FEA3E0FF7E00A1
:100A0000EF540FFFEF64094E702F905021E0FFEF7D
:100A10004401FFEFF0905020E0FFEF54FEFFEFF0B5
:100A2000905063E0FFEF54FEFFEFF0905062E0FF64
:100A3000EF4401FFEFF0020ABB900043E0FEA3E0A9
:100A4000FF7E00EF540FFFEF64034E702E90502195
:100A5000E0FFEF54FEFFEFF0905020E0FFEF54FE78
:100A6000FFEFF0905063E0FFEF4401FFEFF0905094
:100A700062E0FFEF4401FFEFF08040900043E0FEB2
:100A8000A3E0FF7E00EF540FFFEF640F4E702C9039
:100A90005021E0FFEF4401FFEFF0905020E0FFEF26
:100AA0004401FFEFF0905063E0FFEF4401FFEFF0EF
:100AB000905062E0FFEF4401FFEFF0900043E0FE52
:100AC000A3E0FFEF20E40E905004E0FFEF54FEFFA0
:100AD000EFF0020114900043E0FEA3E0FF7E00EF80
:100AE0005410FFEF64014E6003020114905004E0C3
:100AF000FFEF4401FFEFF002011402011422BB01D9
:100B00000689828A83E0225002E722BBFE02E322AA
:100B100089828A83E49322BB010689828A83F02238
:100B20005002F722BBFE01F322C5F0F8A3E028F043
:100B3000C5F0F8E582158270021583E038F022BB1B
:100B4000010A89828A83E0F5F0A3E022500687F04B
:100B500009E71922BBFE07E3F5F009E319228982B0
:100B60008A83E493F5F074019322EF2BFFEE3AFEB3
:100B7000ED39FDEC38FC22E88FF0A4CC8BF0A42CEE
:100B8000FCE98EF0A42CFC8AF0EDA42CFCEA8EF09B
:100B9000A4CDA8F08BF0A42DCC3825F0FDE98FF082
:100BA000A42CCD35F0FCEB8EF0A4FEA9F0EB8FF079
:100BB000A4CFC5F02ECD39FEE43CFCEAA42DCE3501
:100BC000F0FDE43CFC2275F008758200EF2FFFEE8B
:100BD00033FECD33CDCC33CCC58233C5829BED9A69
:100BE000EC99E58298400CF582EE9BFEED9AFDECC7
:100BF00099FC0FD5F0D6E4CEFBE4CDFAE4CCF9A80D
:100C00008222B800C1B90059BA002DEC8BF084CF14
:100C1000CECDFCE5F0CBF97818EF2FFFEE33FEEDEB
:100C200033FDEC33FCEB33FB10D703994004EB9915
:100C3000FB0FD8E5E4F9FA227818EF2FFFEE33FE28
:100C4000ED33FDEC33FCC933C910D7059BE99A405D
:100C500007EC9BFCE99AF90FD8E0E4C9FAE4CCFB75
:100C60002275F010EF2FFFEE33FEED33FDCC33CCC9
:100C7000C833C810D7079BEC9AE899400AED9BFD52
:100C8000EC9AFCE899F80FD5F0DAE4CDFBE4CCFA65
:100C9000E4C8F922EF4BFFEE4AFEED49FDEC48FCBB
:100CA00022E8600FECC313FCED13FDEE13FEEF130F
:100CB000FFD8F122E8600FEFC333FFEE33FEED33D0
:100CC000FDEC33FCD8F122E0FCA3E0FDA3E0FEA3A1
:100CD000E0FF22E0F8A3E0F9A3E0FAA3E0FB22ECB6
:100CE000F0A3EDF0A3EEF0A3EFF022E0FBA3E0FA17
:100CF000A3E0F922EBF0A3EAF0A3E9F022E493FBEE
:100D0000740193FA740293F922D083D082F8E493A9
:100D10007012740193700DA3A393F8740193F5827C
:100D20008883E4737402936860EFA3A3A380DFD089
:100D300083D082F8E4937012740193700DA3A3938F
:100D4000F8740193F5828883E473740293B5F00616
:100D50007403936860E9A3A3A3A380D8E50C25825C
:100D6000F582E50B3583F583B50B0485820C2210E3
:100D7000AF0685820CF50B2285820CF50BD2AF22D3
:100D8000EC8EF0A4CCC5F0CCCDF8EFA4CEC5F02D00
:100D9000FDE43CFCE8A42EC8C5F03DFDE43CFCEFBE
:100DA000A4FFE5F028FEE43DFDE43CFC22E709F663
:100DB00008DFFA8046E709F208DFFA803E88828C75
:100DC00083E709F0A3DFFA8032E309F608DFFA804F
:100DD0006EE309F208DFFA806688828C83E309F00B
:100DE000A3DFFA805A89828A83E0A3F608DFFA80BB
:100DF0004E89828A83E0A3F208DFFA804280D280A3
:100E0000FA80C680D4805580F28029801080A68028
:100E1000EA809A80A880DA80E280CA802988848C5F
:100E20008589828A83E493A30586F0A30586DFF58E
:100E3000DEF3800B89828A83E493A3F608DFF9EC62
:100E4000FAA9F0EDFB2288848C8589828A83E0A34D
:100E50000586F0A30586DFF6DEF480E389828A83C7
:100E6000E493A3F208DFF980D688F0EF60010E4E1C
:100E700060CD88F0ED2402B4040050C3F582EB2469
:100E800002B4040050B92323458223900DFD737BE7
:100E9000007A4679E8121675EF4405FD7B007A4624
:100EA00079E8121681750A00E50AC39407503AAF33
:100EB0000AEF75F005A4248DF582E43416F583AFAE
:100EC00082AE838E088F09AE08AF098F828E83129F
:100ED0000CFDAE08AF098F828E83740393FC7404FB
:100EE00093FD1215A0050A80BF7B087A00790012D5
:100EF00014CD7B017A507903121675EF4402FD7B05
:100F0000017A5079031216817B017A5079131216F7
:100F100075EF4402FD7B017A5079131216819043DC
:100F2000A0E0FFEF4440FF9043A0EFF09043C2E009
:100F3000FFEF4410FF9043C2EFF07B087A03792063
:100F4000C003C002C0017B007A51790290004812B0
:100F50000CF4D001D002D0037F087E001214997BDC
:100F6000087A037928C003C002C0017B007A517956
:100F7000C2900048120CF4D001D002D0037F087E4A
:100F8000001214997B087A037930C003C002C001B3
:100F90007B007A517912900048120CF4D001D002F3
:100FA000D0037F087E001214997B087A037938C039
:100FB00003C002C0017B007A517942900048120CB4
:100FC000F4D001D002D0037F087E001214997B0870
:100FD0007A037940C003C002C0017B007A51795284
:100FE000900048120CF4D001D002D0037F087E009C
:100FF0001214997B087A037948C003C002C0017BB0
:10100000007A517962900048120CF4D001D002D0DD
:10101000037F087E001214999044F47401F0904309
:1010200022E0FFEF4408FF904322EFF09046ECE00F
:10103000FFEFC394055006904689743AF09048003B
:1010400074F1F012108090480074B1F01214637BB8
:10105000007A4379A0C003C002C0017B007A4379C3
:10106000B0900048120CF4D001D002D0037F0E7E65
:10107000001214999043B0E0FFEF54FDFFEFF0220F
:101080007B007A4079807D177C0012166690408242
:101090007418F09043007402F09040007408F090CF
:1010A00042007403F07B0C7A0179081216759046A1
:1010B000A1EFF07B007A4279227D087C001216664F
:1010C0007B007A4279207D517C121216669000478F
:1010D000E4F07F197E007D007C00900043120CDF5D
:1010E000900043120CC7D3EF9400EE9400404E9052
:1010F0000047E0FFEF64036044904225E0FFEF54B7
:1011000001FF7E00900047E0FEEE25E0FEEE4FFF7F
:10111000EF5403FF900047EFF07FE07E017D007CFD
:1011200000121500900043120CC77BFF7AFF79FF75
:1011300078FF120B6A900043120CDF80A3900043EB
:10114000120CC7EF4E70057F031216257B007A4004
:1011500079047D007C011216669040047407F090BB
:101160004006E4F09040087448F0904004E4F090A9
:1011700040017402F09043A2E0FFEF4401FF90436E
:10118000A2EFF02275930078007583467582E8E03F
:101190004401F0009046ECE0F99046FAE0FAB90319
:1011A000225420B40012B8001AEA901FFFF0740114
:1011B000901FFEF09046F6F0901FFEE06005901F35
:1011C000FFE0FA90480074C0F075810C9000007840
:1011D000007920E4F0A3D8FCD9FAEA900075F00277
:1011E0000011750B1F750CFD120E8F0212290200E3
:1011F0001AE493A3F8E493A34003F68001F208DF16
:10120000F48029E493A3F85407240CC8C333C454CE
:101210000F4420C8834004F456800146F6DFE48082
:101220000B010204081020408090153BE47E0193DE
:1012300060BCA3FF543F30E509541FFEE493A36054
:10124000010ECF54C025E060A840B8E493A3FAE4AF
:1012500093A3F8E493A3C8C582C8CAC583CAF0A300
:10126000C8C582C8CAC583CADFE9DEE780BE900070
:1012700067EFF0900068ECF0A3EDF0900067E0FFFE
:10128000EFD3941F5003D38001C340057F00121693
:1012900010900067E0FFEF541FFF7E00EF25E0FF96
:1012A000EE33FEEF2400FFEE3444FEAA06A9077BCE
:1012B0000112165990006AEEF0A3EFF0900067E07B
:1012C000FF7E02EF8EF0A4FFAEF0EF2400FFEE34BD
:1012D00044FEAA06A9077B01900068E0FEA3E0FF98
:1012E000AD07AC0612166890006AE0FEA3E0FF228C
:1012F000900067EFF0900068EDF0900068E0FFEF7D
:10130000D394075003D38001C340057F0012161009
:10131000900067E0FFEFD3941F5003D38001C340D8
:10132000057F00121610900068E0FFEF5407FF7E63
:1013300000EF75F020A4FFAEF0900067E0FEEE54E1
:101340001FFE74802EF582E43444F583EFF0229082
:101350006468E0FFEF30E30B7B027A64795A12167F
:101360005980EC1215FB900067EFF090649AE0FF53
:10137000EF4403FFEFF090649AE0FFEF54FCFFEFBF
:10138000F090649BE0FFEF4403FFEFF090649BE07C
:10139000FFEF54FCFFEFF0900067E0FF1215B92259
:1013A00090648D740FF09044C87402F07C147DFA40
:1013B0007F0112126E7D077F011212F09044C874F3
:1013C00001F07C147DFB7F0012126E7D077F0012FE
:1013D00012F012134F12163712164790648A7405D2
:1013E000F09064887418F0221215FB900067EFF0FB
:1013F00090649DE0FFEF4420FFEFF090649AE0FFDF
:10140000EF4410FFEFF0906498E0FFEF4410FFEF1F
:10141000F0900067E0FF1215B99044C07402F0909C
:1014200044C07401F0221215FB900067EFF0906445
:101430009AE0FFEF4403FFEFF090649AE0FFEF546F
:10144000FCFFEFF090649BE0FFEF4403FFEFF090B0
:10145000649BE0FFEF54FCFFEFF0900067E0FF12A9
:1014600015B9227B0C7A0179CF121675900043EFE3
:10147000F0900043E0FFEF5407FF90586EEFF090BC
:101480000043E0FFEFC4540FFFEF540FFF90586F7D
:10149000EFF09058767444F022758600EF4E602786
:1014A000EF60010E759300900048E0F595A3E0F51C
:1014B00085A3E0F5848B938A838982E0A30586F077
:1014C000A31586DFF6DEF4E4F593F59522ACEAADDC
:1014D000A08B938A838982E0F96017A3E0F5EAA3E1
:1014E000E0F5A0A3E060F4FAA3E0F8A3E0F2DAF8F4
:0C14F000D9E98DA08CEAE4F59322323299
:10150000EC4D4E700D78FCEF24E950032840FD228D
:1015100000007BF178DA0000EF28FF78FFEE38FE5C
:10152000ED38FDEC38FC50E7EF2BFFEE38FEED38E0
:10153000FDEC38FC40F2220502030441007F004428
:101540000071016E360044006C00005DC041007007
:10155000184400762EE0000043007A0000004100AD
:10156000820000900067EEF0A3EFF090646AE0FF65
:10157000EF30E1F77B027A64794A900067E0FCA3E0
:10158000E0FD121668227B027A64795A121659908D
:101590000067EEF0A3EFF0900067E0FEA3E0FF220B
:1015A000EC4D6011ED60010C8B938A838982E4F02D
:1015B000A3DDFCDCFA75930022EF54016004D2AF86
:1015C0008002C2AFEF5402FF9044F4E054FD4FF0AC
:1015D0002290007FE0FFEF70091213A090007F744B
:1015E00001F01213E822906468E0FFEF30E30B7B18
:1015F000027A64795A12165980EC229044F4E0F889
:101600004402F0E85402FF10AF012274014FFF22A0
:1016100090FFFF120D5CEFF09046EA7401F090002D
:1016200001120D5C22900048EFF0900048E0FF901E
:101630000048EFF080FE2290646AE0FF900067EFC0
:10164000F0900067E0FF22906468E0FF900067EF91
:10165000F0900067E0FF228B938A838982E0FFA3EA
:10166000E0FE759300228B938A838982EDF0A3ECD0
:10167000F0759300228B938A838982E0759300FF33
:10168000228B938A838982EDF0759300220051208A
:1016900000200051F00010010000100001140008AB
:1016A000000140000A00014C00020001500000202F
:00000001FF
