:100000000206CF008F828E83E0540100000070F85A
:100010002278FFE4F6D8FD02078CBB010689828AAC
:1000200083E0225002E722BBFE02E32289828A8318
:10003000E49322BB010689828A83F0225002F722D0
:10004000BBFE01F322EF8DF0A4A8F0CF8CF0A42822
:10005000CE8DF0A42EFE22BC000BBE0029EF8DF049
:1000600084FFADF022E4CCF875F008EF2FFFEE33FB
:10007000FEEC33FCEE9DEC984005FCEE9DFE0FD5AA
:10008000F0E9E4CEFD22EDF8F5F0EE8420D21CFE7E
:10009000ADF075F008EF2FFFED33FD4007985006E7
:1000A000D5F0F222C398FD0FD5F0EA22C5F0F8A3EF
:1000B000E028F0C5F0F8E582158270021583E0387B
:1000C000F022BB010A89828A83E0F5F0A3E0225086
:1000D0000687F009E71922BBFE07E3F5F009E319EB
:1000E0002289828A83E493F5F074019322BB010A8A
:1000F00089828A83F0E5F0A3F0225006F709A7F081
:100100001922BBFE06F3E5F009F31922EF2BFFEEEF
:100110003AFEED39FDEC38FC22E88FF0A4CC8BF0F0
:10012000A42CFCE98EF0A42CFC8AF0EDA42CFCEAB3
:100130008EF0A4CDA8F08BF0A42DCC3825F0FDE9ED
:100140008FF0A42CCD35F0FCEB8EF0A4FEA9F0EBE3
:100150008FF0A4CFC5F02ECD39FEE43CFCEAA42DEF
:10016000CE35F0FDE43CFC2275F008758200EF2FDF
:10017000FFEE33FECD33CDCC33CCC58233C5829B6D
:10018000ED9AEC99E58298400CF582EE9BFEED9A93
:10019000FDEC99FC0FD5F0D6E4CEFBE4CDFAE4CC2F
:1001A000F9A88222B800C1B90059BA002DEC8BF031
:1001B00084CFCECDFCE5F0CBF97818EF2FFFEE33EE
:1001C000FEED33FDEC33FCEB33FB10D70399400419
:1001D000EB99FB0FD8E5E4F9FA227818EF2FFFEE40
:1001E00033FEED33FDEC33FCC933C910D7059BE971
:1001F0009A4007EC9BFCE99AF90FD8E0E4C9FAE4CD
:10020000CCFB2275F010EF2FFFEE33FEED33FDCC6B
:1002100033CCC833C810D7079BEC9AE899400AED55
:100220009BFDEC9AFCE899F80FD5F0DAE4CDFBE4FD
:10023000CCFAE4C8F922EF5BFFEE5AFEED59FDEC73
:1002400058FC22EF4BFFEE4AFEED49FDEC48FC2244
:10025000EB9FF5F0EA9E42F0E99D42F0E89C45F004
:1002600022E8600FEFC333FFEE33FEED33FDEC33D6
:10027000FCD8F122BB010789828A830202945005CF
:10028000E9F802051BBBFE05E9F802052789828A09
:1002900083020533E0FCA3E0FDA3E0FEA3E0FF2220
:1002A000E0F8A3E0F9A3E0FAA3E0FB22ECF0A3ED71
:1002B000F0A3EEF0A3EFF022A42582F582E5F0355D
:1002C00083F58322E0FBA3E0FAA3E0F922F8E0FB48
:1002D000A3A3E0F925F0F0E582158270021583E012
:1002E000FA38F022EBF0A3EAF0A3E9F022D083D0B1
:1002F00082F8E4937012740193700DA3A393F874C1
:100300000193F5828883E4737402936860EFA3A37A
:10031000A380DFE5092582F582E5083583F583B5FD
:1003200008048582092210AF06858209F508228516
:100330008209F508D2AF22EC8EF0A4CCC5F0CCCD6A
:10034000F8EFA4CEC5F02DFDE43CFCE8A42EC8C512
:10035000F03DFDE43CFCEFA4FFE5F028FEE43DFDAC
:10036000E43CFC22E709F608DFFA8046E709F208D8
:10037000DFFA803E88828C83E709F0A3DFFA8032BF
:10038000E309F608DFFA806EE309F208DFFA806617
:1003900088828C83E309F0A3DFFA805A89828A83FA
:1003A000E0A3F608DFFA804E89828A83E0A3F20890
:1003B000DFFA804280D280FA80C680D4805580F2F5
:1003C0008029801080A680EA809A80A880DA80E266
:1003D00080CA802988848C8589828A83E493A305D6
:1003E00086F0A30586DFF5DEF3800B89828A83E43D
:1003F00093A3F608DFF9ECFAA9F0EDFB2288848CD0
:100400008589828A83E0A30586F0A30586DFF6DE70
:10041000F480E389828A83E493A3F208DFF980D62B
:1004200088F0EF60010E4E60CD88F0ED2402B40438
:100430000050C3F582EB2402B4040050B9232345D5
:1004400082239003B473E709F60870FA8046E7093F
:10045000F20870FA803E88828C83E709F0A370FA74
:100460008074E309F60870FA806CE309F20870FA08
:10047000806488828C83E309F0A370FA80588982B3
:100480008A83E0A3F60870FA804C89828A83E0A30D
:10049000F20870FA804080D280FA80C680D4805101
:1004A00080F28027801080A680EA809A80A880DA77
:1004B00080E280CA802788848C8589828A83E4933D
:1004C000A30586F0A3058670F5800B89828A83E4F4
:1004D00093A3F60870F9ECFAA9F0EDFB2288848C5E
:1004E0008589828A83E0A30586F0A3058670F6805D
:1004F000E589828A83E493A3F20870F980D888F0B2
:10050000ED2402B4040050CEF582EB2402B40400C2
:1005100050C4232345822390049673E6FC08E6FD2D
:1005200008E6FE08E6FF22E2FC08E2FD08E2FE081B
:10053000E2FF22E493FC740193FD740293FE7403C2
:1005400093FF2290480074F1F01209337B017A5036
:100550007903121065EF4402FD7B017A5079031292
:1005600010717B017A507913121065EF4402FD7B04
:10057000017A5079131210719043A0E0FFEF4440CC
:10058000FF9043A0EFF09043C2E0FFEF4410FF90D4
:1005900043C2EFF07B087A0B7900C003C002C001B0
:1005A0007B007A5179029000501202E4D001D0020F
:1005B000D0037F087E00120F3B7B087A0B7908C0BE
:1005C00003C002C0017B007A5179C2900050120230
:1005D000E4D001D002D0037F087E00120F3B7B08DD
:1005E0007A0B7910C003C002C0017B007A5179F206
:1005F0009000501202E4D001D002D0037F087E00A8
:10060000120F3B7B087A0B7918C003C002C0017B34
:10061000007A5179329000501202E4D001D002D019
:10062000037F087E00120F3B7B087A0B7920C00302
:10063000C002C0017B007A5179429000501202E45E
:10064000D001D002D0037F087E00120F3B7B087AD6
:100650000B7928C003C002C0017B007A5179509009
:1006600000501202E4D001D002D0037F0A7E0012B3
:100670000F3B7B017A1479DB7D441210719044F4B6
:100680007401F0904689743AF09048007431F01289
:10069000081B90480074B1F0120EB07B007A4379C9
:1006A000A0C003C002C0017B007A4379B090005023
:1006B0001202E4D001D002D0037F0E7E00120F3B65
:1006C0009043B0E0FFEF54FDFF9043B0EFF0227590
:1006D000930078007583467582E8E04401F000904D
:1006E00046ECE0F99046FAE0FAB903225420B4004F
:1006F00012B8001AEA901FFFF07401901FFEF090EC
:1007000046F6F0901FFEE06005901FFFE0FA90486B
:100710000074C0F07581099076BCE4F0A3F0A3F0FA
:10072000A3F0907010F0907019F0907020F0907617
:10073000007410F0907604E4F0A3F0A3F0A3F0901E
:1007400078007800087400F0A37408F0E8B8040298
:1007500074FFA3F0A37422F0A374BCF0A37476F02A
:10076000A3E4F0A3E81475F008A4F0A3B804D590AE
:1007700070107401F0907014F07E707F18120004F5
:10078000907010F0EA900065F00200117508207575
:100790000900120543120DA50207D60209FDE493D4
:1007A000A3F8E493A34003F68001F208DFF4802964
:1007B000E493A3F85407240CC8C333C4540F442053
:1007C000C8834004F456800146F6DFE4800B010242
:1007D000040810204080900E79E47E019360BCA351
:1007E000FF543F30E509541FFEE493A360010ECF90
:1007F00054C025E060A840B8E493A3FAE493A3F8BA
:10080000E493A3C8C582C8CAC583CAF0A3C8C58279
:10081000C8CAC583CADFE9DEE780BE7E007F4B9091
:10082000004FEEF0A3EFF07B007A4079807F017EED
:10083000007D187C001210357B007A4079847F1788
:100840007E007D187C001210359043007402F090F9
:1008500040007408F09042007403F07B0C7A017938
:10086000081210659046A1EFF07B007A4279227D54
:10087000087C001210567B007A4279207D517C1052
:10088000121056900051E4F07F197E007D007C002C
:1008900090004B1202AC90004FE0FEA3E0FF8F826D
:1008A0008E83120294EC4D4E4F604E900051E0FF4B
:1008B000EF64036044904225E0FFEF5401FF7E00A7
:1008C000900051E0FEEE25E0FEEE4FFFEF5403FFF7
:1008D000900051EFF07FE07E017D007C00120F0060
:1008E00090004B1202947BFF7AFF79FF78FF120190
:1008F0000C90004B1202AC809D7B007A4079047D05
:10090000037C01121056904004E4F09040047407F8
:10091000F0904006E4F09040087448F0904004E401
:10092000F09040017402F09043A2E0FFEF4403FF17
:10093000EFF0227F007E007D007C009000751202A7
:10094000AC9076007410F09070107401F0907019F3
:10095000E4F09078027401F090780374A3F07B02C5
:100960007A7879007D687C011210587B027A787958
:1009700004C003C002C0017BFF7A1079A2AC02ADB3
:1009800001D001D002D0031210587B027A78790688
:100990007D087C781210587B027A7679047D107C71
:1009A000001210587B027A7679067D007C001210C6
:1009B000589070297409F0907039740BF090706938
:1009C0007411F09070797416F09070147401F090B6
:1009D0007018E0FFEF20E0F7907028E0FFEF20E0D4
:1009E000F7907038E0FFEF20E0F7907068E0FFEFDD
:1009F00020E0F7907078E0FFEF20E0F72290004BC6
:100A0000E4F090004CE4F0900054E4F0900055E4E1
:100A1000F0900056E4F0120FE1905002E0FFEF5426
:100A2000FEFFEFF0905001E0FFEF54FEFFEFF0907B
:100A30005000E0FFEF54FEFFEFF0905021E0FFEF99
:100A400054FEFFEFF0905020E0FFEF54FEFFEFF078
:100A5000905063E0FFEF54FEFFEFF0905062E0FF34
:100A6000EF54FEFFEFF0905001E0FFEF4401FFEF85
:100A7000F0D2AF9044F4E0FFEF54FDFFEFF0120F1F
:100A8000BD90507BE0FFEF5410FF7E00EF4E60F111
:100A900090004CE4F090004CE0FFEFC3940A50E16A
:100AA00090004CE0FF7E00120F6F120FF67E00EFF9
:100AB00030E2F790004CE004F080DA2290FFFF1261
:100AC0000313EFF090FFFE1203138508838509825C
:100AD000A3A3E0FFEFD3941F5003D38001C34025AD
:100AE000850883850982A3A3E0FFEFD3941F500AF2
:100AF0007F017E007D007C0080087F007E007D00FD
:100B00007C00120F98850883850982A3A3E0FFEF7C
:100B1000541FFF7E00EF7803CEC313CE13D8F9FF26
:100B2000EF24C0FFEE3444FE850883850982EEF091
:100B3000A3EFF0850883850982A3A3E0FFEF5407A4
:100B4000FF7401A807088002C333D8FCFF8508831F
:100B5000850982E0FCA3E0FD8D828C83EFF090009C
:100B6000031203132290FFFF120313EFF090FFFE16
:100B7000120313850883850982A3A3E0FFEFD394B2
:100B80001F5003D38001C34025850883850982A3B4
:100B9000A3E0FFEFD3941F500A7F017E007D007C0D
:100BA0000080087F007E007D007C00120F98850881
:100BB00083850982A3A3E0FFEF541FFF7E00EF7837
:100BC00003CEC313CE13D8F9FFEF24C8FFEE34448D
:100BD000FE850883850982EEF0A3EFF08508838502
:100BE0000982A3A3E0FFEF5407FF7401A807088060
:100BF00002C333D8FCFF850883850982E0FCA3E0AB
:100C0000FD8D828C83EFF09000031203132290007D
:100C100057EFF0900058ECF0A3EDF0900057E0FF94
:100C2000EFD3941F5003D38001C34020900057E0BE
:100C3000FFEFD3941F500A7F017E007D007C00806F
:100C4000087F007E007D007C00120F98900057E026
:100C5000FFEF541FFF7E00EF25E0FFEE33FEEF2491
:100C600000FFEE3444FEAA06A9077B01121049904A
:100C7000005AEEF0A3EFF0900057E0FF7E02EF8EF7
:100C8000F0A4FFAEF0EF2400FFEE3444FEAA06A964
:100C9000077B01900058E0FEA3E0FFAD07AC061211
:100CA000105890005AE0FEA3E0FF22900057EFF0AA
:100CB000900058EDF0900058E0FFEFD394075003F8
:100CC000D38001C34020900058E0FFEFD394075039
:100CD0000A7F017E007D007C0080087F007E007D11
:100CE000007C00120F98900057E0FFEFD3941F5044
:100CF00003D38001C34020900057E0FFEFD3941F3F
:100D0000500A7F017E007D007C0080087F007E000D
:100D10007D007C00120F98900058E0FFEF5407FF11
:100D20007E00EF75F020A4FFAEF0900057E0FEEEDD
:100D3000541FFE74802EF582E43444F583EFF022D4
:100D4000900057E4F0906566E0FFEF5408FF7E00E6
:100D5000EF4E70047F0180027F00EF700B7B027A00
:100D600065795612104980DD121020900057EFF07F
:100D7000906596E0FFEF4403FFEFF0906596E0FF8B
:100D8000EF54FCFFEFF0906597E0FFEF4403FFEFB7
:100D9000F0906597E0FFEF54FCFFEFF0900057E014
:100DA000FF120EE62290006E747FF090006F748048
:100DB000F090004B747FF090004BE0FFEF602190CB
:100DC000004BE0FFEF14FF90004BE0FE75F008EEE3
:100DD0009078001202B8EFF090004BE014F080D74A
:100DE00090004BE0FF75F008EF9078001202B8E435
:100DF000F0229065857408F07F16120B657C0E7DDD
:100E0000FE7F16120C0E7D077F16120CAB7F171299
:100E10000B657C0E7DFF7F17120C0E7D077F17126E
:100E20000CAB120D40120FF612100B906487740574
:100E3000F09065867418F022900057E4F0121020AC
:100E4000900057EFF0906595E0FFEF4420FFEFF042
:100E5000906497E0FFEF4410FFEFF0906596E0FF9D
:100E6000EF4410FFEFF0900057E0FF120EE67F1600
:100E7000120ABC7F17120ABC2241007B0044006AA0
:100E800000000000440061016E360044005C000078
:100E90005DC0410060184400662EE0000041007A09
:100EA000004100790043007000000041004900004B
:100EB0007B0C7A0179CF12106590004BEFF0900017
:100EC0004BE0FFEF5407FF90586EEFF090004BE0BF
:100ED000FFEFC4540FFFEF540FFF90586FEFF090E7
:100EE00058767444F022EF54016004D2AF8002C2FD
:100EF000AFEF5402FF9044F4E054FD4FF022323241
:100F0000EC4D4E700D78FCEF24E950032840FD2293
:100F100000007BF178DA0000EF28FF78FFEE38FE62
:100F2000ED38FDEC38FC50E7EF2BFFEE38FEED38E6
:100F3000FDEC38FC40F22205020304758600EF4EFA
:100F40006027EF60010E759300900050E0F595A3C7
:100F5000E0F585A3E0F5848B938A838982E0A3057D
:100F600086F0A31586DFF6DEF4E4F593F59522907E
:100F70000057EEF0A3EFF0906467E0FFEF5402FF3C
:100F80007E00EF4E60F17B027A657946900057E073
:100F9000FCA3E0FD1210582290FFFF120313EFF0A4
:100FA000850883850982E0FF850883850982EFF043
:100FB0009046EA7401F090000112031322906566D6
:100FC000E0FFEF5408FF7E00EF4E70047F018002C7
:100FD0007F00EF700B7B027A65795612104980DD35
:100FE0002290007BE0FFEF7009120DF290007B74FD
:100FF00001F0120E3822900057E4F0906467E0FF91
:10100000900057EFF0900057E0FF22900057E4F077
:10101000906566E0FF900057EFF0900057E0FF22E8
:101020009044F4E0F84402F0E85402FF10AF0122CB
:1010300074014FFF228B938A838982EFF0A3EEF035
:10104000A3EDF0759300228B938A838982E0FFA33E
:10105000E0FE759300228B938A838982EDF0A3ECE6
:10106000F0759300228B938A838982E0759300FF49
:10107000228B938A838982EDF07593002201000010
:10108000000000000001000000000001000100005D
:10109000000800000001000000080001000100003D
:1010A000000100082302107D760800082303108544
:1010B000761000082304108D76280008230510956B
:1010C000763000052306109D702000052307109D33
:1010D000703000052308109D7060000523FE109DF0
:1010E00070700020220A00755110001022FE007559
:1010F00051600600220C007500000800220D0075EA
:1011000008000380220E007518000300220F0075EE
:1011100040000400221000754400010022FE00750A
:101120004C00000723120000521800072313000888
:1011300052280007231400105278002023150320A2
:101140006470002023FE0340657000082317001818
:10115000510000802318002006000080231900A001
:1011600006800080231A012014000080231B01A0A8
:1011700014800080231C022016000080231D02A082
:1011800016800080231E03604D000080231F03E0B3
:101190004D800080232004601B800080232104E018
:1011A000150000802322056015800080232305E0C0
:1011B000170000802324066017800080232506E0A6
:1011C000070000802326076007800080232707E0B0
:1011D000490000802328086049800080232908E016
:1011E00048000080232A096048800080232B09E002
:1011F00043000080232C0A6043800010232D0AE066
:0A1200005010001023FE0AF0500009
:00000001FF
