:40000000029CD3008F828E83E0540100000070F82278FFE4F6D8FD029D9E9000C31294E19000C31294C1129242FFEF1294EA014103017204038C0503B20603D8070C5109C0
:400040000D730A0E4E0B0EB50C0F1C100F3A110F551211EB13146C143E611547CA16513E177204185AB21C5B6F405B8A4161E142654A436BA1446F0A456FF7500089F100F7
:40008000E5F27180FF0000720412992D905014E0FFEF4401FFEFF07BFF7AAF79BB12AE4812B2227E00EF30E1F77BFF7AAF79BB12AE4812B2227E00EF30E1F77BFF7AAF79B6
:4000C000BB12AE4812B2227E00EF30E1F77BFF7AAF79BD12AE4812B2227E00EF30E10302720480F22212992D905015E0FFEF4401FFEFF07BFF7AAF79BB12AE4812B2227E8D
:4001000000EF30E1F77BFF7AAF79BB12AE4812B2227E00EF30E1F77BFF7AAF79BB12AE4812B2227E00EF30E1F77BFF7AAF79BD12AE4812B2227E00EF30E10302720480F222
:400140002212992D905010E0FFEF4401FFEFF0905015E0FFEF4401FFEFF07BFF7AAF79B612AE4812B2227E00EF30E10302720480F2229000C4E475F0011292D49000C312F6
:4001800094C1129242FFEF703C12992D905034E0FFEF4401FFEFF0905013E0FFEF4401FFEFF0905017E0FFEF4401FFEFF07BFF7AAF79B612AE4812B2227E00EF30E103027E
:4001C000720480F2229000C31294C1129242FFEF6401703C12992D90507CE0FFEF4401FFEFF0905013E0FFEF4401FFEFF0905017E0FFEF4401FFEFF07BFF7AAF79B612AED3
:400200004812B2227E00EF30E10302720480F2229000C31294C1129242FFEF6402703C12992D905065E0FFEF4401FFEFF0905013E0FFEF4401FFEFF0905017E0FFEF440167
:40024000FFEFF07BFF7AAF79B612AE4812B2227E00EF30E10302720480F2229000C31294C1129242FFEF6403703112992D905035E0FFEF4401FFEFF0905012E0FFEF4401DA
:40028000FFEFF07BFF7AAF79B612AE4812B2227E00EF30E10302720480F2229000C31294C1129242FFEF6404703112992D905036E0FFEF4401FFEFF0905012E0FFEF440198
:4002C000FFEFF07BFF7AAF79B612AE4812B2227E00EF30E10302720480F2229000C31294C1129242FFEF6405703112992D905037E0FFEF4401FFEFF0905012E0FFEF440156
:40030000FFEFF07BFF7AAF79B612AE4812B2227E00EF30E10302720480F2229000C31294C1129242FFEFB40F187BFF7AAF79B612AE4812B2227E00EF30E10302720480F2FE
:400340002290007AE4F090007AE0FFEFD3941F501990007AE0FF74F32FF582E43400F583E4F090007AE004F080DC900079E4F0900074E4F07BFF7AAF79BF12AE4812B222A4
:400380007E00EF30E10302720480F22212992D905015E0FFEF4401FFEFF07BFF7AAF79B612AE4812B2227E00EF30E10302720480F22212992D905011E0FFEF4401FFEFF0EB
:4003C0007BFF7AAF79B612AE4812B2227E00EF30E10302720480F2229000C4E475F0011292D49000C31294C1129242FFEF703C12992D905016E0FFEF4401FFEFF09050249D
:40040000E0FFEF4401FFEFF0905062E0FFEF4401FFEFF07BFF7AAF79B612AE4812B2227E00EF30E10302720480F2229000C31294C1129242FFEF6401703C12992D905016DE
:40044000E0FFEF4401FFEFF0905024E0FFEF4401FFEFF0905062E0FFEF4401FFEFF07BFF7AAF79B612AE4812B2227E00EF30E10302720480F2229000C31294C1129242FF77
:40048000EF6402704712992D905016E0FFEF4401FFEFF090507DE0FFEF4401FFEFF0905024E0FFEF4401FFEFF0905062E0FFEF4401FFEFF07BFF7AAF79B612AE4812B2223B
:4004C0007E00EF30E10302720480F2229000C31294C1129242FFEF6403704712992D905016E0FFEF4401FFEFF090507DE0FFEF4401FFEFF0905025E0FFEF4401FFEFF09030
:400500005062E0FFEF4401FFEFF07BFF7AAF79B612AE4812B2227E00EF30E10302720480F2229000C31294C1129242FFEF6404704712992D905016E0FFEF4401FFEFF090CF
:40054000507DE0FFEF4401FFEFF0905026E0FFEF4401FFEFF0905062E0FFEF4401FFEFF07BFF7AAF79B612AE4812B2227E00EF30E10302720480F2229000C31294C11292E8
:4005800042FFEF6410705212992D905016E0FFEF4401FFEFF0905020E0FFEF4401FFEFF0905031E0FFEF4401FFEFF0905026E0FFEF4401FFEFF0905062E0FFEF4401FFEFE9
:4005C000F07BFF7AAF79B612AE4812B2227E00EF30E10302720480F2229000C31294C1129242FFEF6411705212992D905016E0FFEF4401FFEFF0905021E0FFEF4401FFEF38
:40060000F0905031E0FFEF4401FFEFF0905026E0FFEF4401FFEFF0905062E0FFEF4401FFEFF07BFF7AAF79B612AE4812B2227E00EF30E10302720480F2229000C31294C197
:40064000129242FFEF6412705212992D905016E0FFEF4401FFEFF0905022E0FFEF4401FFEFF0905031E0FFEF4401FFEFF0905025E0FFEF4401FFEFF0905062E0FFEF44016F
:40068000FFEFF07BFF7AAF79B612AE4812B2227E00EF30E10302720480F2229000C31294C1129242FFEF6413705212992D905016E0FFEF4401FFEFF0905022E0FFEF440174
:4006C000FFEFF0905031E0FFEF4401FFEFF0905026E0FFEF4401FFEFF0905062E0FFEF4401FFEFF07BFF7AAF79B612AE4812B2227E00EF30E10302720480F2229000C3123E
:4007000094C1129242FFEF6420705212992D905017E0FFEF4401FFEFF0905016E0FFEF4401FFEFF090507DE0FFEF4401FFEFF0905027E0FFEF4401FFEFF0905062E0FFEF4D
:400740004401FFEFF07BFF7AAF79B612AE4812B2227E00EF30E10302720480F2229000C31294C1129242FFEF6421705212992D905017E0FFEF4401FFEFF0905016E0FFEFB0
:400780004401FFEFF090507DE0FFEF4401FFEFF0905027E0FFEF4401FFEFF0905062E0FFEF4401FFEFF07BFF7AAF79B612AE4812B2227E00EF30E10302720480F2229000C0
:4007C000C31294C1129242FFEF6422705212992D905017E0FFEF4401FFEFF0905016E0FFEF4401FFEFF090507DE0FFEF4401FFEFF0905027E0FFEF4401FFEFF0905062E0A4
:40080000FFEF4401FFEFF07BFF7AAF79B612AE4812B2227E00EF30E10302720480F2229000C31294C1129242FFEF6423705212992D905017E0FFEF4401FFEFF0905016E0ED
:40084000FFEF4401FFEFF090507DE0FFEF4401FFEFF0905027E0FFEF4401FFEFF0905062E0FFEF4401FFEFF07BFF7AAF79B612AE4812B2227E00EF30E10302720480F222A1
:400880009000C31294C1129242FFEF6424705212992D905017E0FFEF4401FFEFF0905016E0FFEF4401FFEFF090507DE0FFEF4401FFEFF0905027E0FFEF4401FFEFF0905093
:4008C00062E0FFEF4401FFEFF07BFF7AAF79B612AE4812B2227E00EF30E10302720480F2229000C31294C1129242FFEF6425705D12992D905017E0FFEF4401FFEFF09050D4
:4009000016E0FFEF4401FFEFF090507DE0FFEF4401FFEFF0905027E0FFEF4401FFEFF0905062E0FFEF4401FFEFF0905030E0FFEF4401FFEFF07BFF7AAF79B612AE4812B298
:40094000227E00EF30E10302720480F2229000C31294C1129242FFEF6430705D12992D905017E0FFEF4401FFEFF0905016E0FFEF4401FFEFF0905027E0FFEF4401FFEFF03A
:4009800090507DE0FFEF4401FFEFF0905063E0FFEF4401FFEFF0905062E0FFEF4401FFEFF07BFF7AAF79B612AE4812B2227E00EF30E10302720480F2229000C31294C11269
:4009C0009242FFEF6431705D12992D905017E0FFEF4401FFEFF0905016E0FFEF4401FFEFF0905027E0FFEF4401FFEFF090507DE0FFEF4401FFEFF0905063E0FFEF4401FF91
:400A0000EFF0905062E0FFEF4401FFEFF07BFF7AAF79B612AE4812B2227E00EF30E10302720480F2229000C31294C1129242FFEF6432705D12992D905017E0FFEF4401FF85
:400A4000EFF0905016E0FFEF4401FFEFF0905027E0FFEF4401FFEFF090507DE0FFEF4401FFEFF0905063E0FFEF4401FFEFF0905062E0FFEF4401FFEFF07BFF7AAF79B6121F
:400A8000AE4812B2227E00EF30E10302720480F2229000C31294C1129242FFEF6433705D12992D905017E0FFEF4401FFEFF0905016E0FFEF4401FFEFF0905027E0FFEF441B
:400AC00001FFEFF090507DE0FFEF4401FFEFF0905063E0FFEF4401FFEFF0905062E0FFEF4401FFEFF07BFF7AAF79B612AE4812B2227E00EF30E10302720480F2229000C3C2
:400B00001294C1129242FFEF6434705D12992D905017E0FFEF4401FFEFF0905016E0FFEF4401FFEFF0905027E0FFEF4401FFEFF090507DE0FFEF4401FFEFF0905063E0FF06
:400B4000EF4401FFEFF0905062E0FFEF4401FFEFF07BFF7AAF79B612AE4812B2227E00EF30E10302720480F2229000C31294C1129242FFEF6435706812992D905017E0FF36
:400B8000EF4401FFEFF0905016E0FFEF4401FFEFF0905027E0FFEF4401FFEFF090507DE0FFEF4401FFEFF0905063E0FFEF4401FFEFF0905062E0FFEF4401FFEFF09050307F
:400BC000E0FFEF4401FFEFF07BFF7AAF79B612AE4812B2227E00EF30E10302720480F2229000C31294C1129242FFEFB40F187BFF7AAF79B612AE4812B2227E00EF30E1030D
:400C000002720480F22290007AE4F090007AE0FFEFD3941F501990007AE0FF74F32FF582E43400F583E4F090007AE004F080DC900079E4F0900074E4F07BFF7AAF79BF12CD
:400C4000AE4812B2227E00EF30E10302720480F2229000C4E475F0011292D49000C31294C1129242FF7E001280DA9000F4E0FF90004DEFF0900068E0FEA3E0FFE4FCFD1206
:400C8000A9549000C4E475F0011292D49000C31294C1129242FF7E0012898E9000F5E0FF90004FEFF0900076E0FF900051EFF090007CE0FF900053EFF0900066E0FF900002
:400CC00055EFF090006EE0FF900057EFF0900073E0FF900059EFF0900080E0FF90005BEFF090004BE0FEA3E0FFE4FCFD12A9547BFF7AAF79C412AE4812B2227E00EF30E147
:400D0000F77BFF7AAF79C612AE4812B2227E00EF30E1F77BFF7AAF79C812AE4812B2227E00EF30E1F77BFF7AAF79C812AE4812B2227E00EF30E1F77BFF7AAF79CA12AE48FB
:400D400012B2227E00EF30E1F77BFF7AAF79C412AE4812B2227E00EF30E1F77BFF7AAF79C412AE4812B2227E00EF30E10302720480F2227BFF7AAF79BB12AE4812B2227E37
:400D800000EF30E1F77BFF7AAF79BB12AE4812B2227E00EF30E1F77BFF7AAF79BB12AE4812B2227E00EF30E1F77BFF7AAF79BD12AE4812B2227E00EF30E1F712AEA5905047
:400DC0002CE0FFEF54FEFFEFF07F1512AF5B7F1512AF5B7F1512AF5B12B0867E00EF20E10A12B0B09000C7EFF080ED7F0E7E0012AE7890502CE0FFEF4401FFEFF07F057EA2
:400E00000012AE7812B09BEF700302720412B0B09000C7EFF09000C7E0FFEFB4150C9000C7E0FF9000C6EFF080059000C6E4F09000C6E0FF12A9C012B2227E00EF30E1F77C
:400E400012AF1C9000C6E4F09000C7E4F0229000C4E475F0011292D49000C31294C1129242FF7E001280DA7BFF7AAF79BB12AE4812B2227E00EF30E1F77BFF7AAF79BB125C
:400E8000AE4812B2227E00EF30E1F77BFF7AAF79BB12AE4812B2227E00EF30E1F77BFF7AAF79BD12AE4812B2227E00EF30E10302720480F2229000C4E475F0011292D490AD
:400EC00000C31294C1129242FF7E0012898E7BFF7AAF79BB12AE4812B2227E00EF30E1F77BFF7AAF79BB12AE4812B2227E00EF30E1F77BFF7AAF79BB12AE4812B2227E0085
:400F0000EF30E1F77BFF7AAF79BD12AE4812B2227E00EF30E10302720480F22212B0C512B16E7BFF7AAF79B612AE4812B2227E00EF30E10302720480F22212B17A7BFF7A30
:400F4000AF79B612AE4812B2227E00EF30E10302720480F2229000C4E475F0011292D49000C31294C1129242FFEFB4F121905014E0FFEF4401FFEFF0905015E0FFEF54FEB4
:400F8000FFEFF012A09190006A7401F0807D9000C31294C1129242FFEFB4F221905015E0FFEF4401FFEFF0905014E0FFEF54FEFFEFF012A09190006A7401F0804E9000C3C4
:400FC0001294C1129242FFEFB40F0890006A7401F0803890007AE4F090007AE0FFEFD3941F501990007AE0FF74F32FF582E43400F583E4F090007AE004F080DC900079E4AE
:40100000F0900074E4F090006AE4F09000C4E475F0011292D49000C31294C1129242FFEF64037038905035E0FFEF4401FFEFF0905012E0FFEF4401FFEFF0905036E0FFEF9A
:4010400054FEFFEFF0905037E0FFEF54FEFFEFF012A0919000727401F00211379000C31294C1129242FFEF64047038905036E0FFEF4401FFEFF0905012E0FFEF4401FFEF9F
:40108000F0905035E0FFEF54FEFFEFF0905037E0FFEF54FEFFEFF012A0919000727401F00211379000C31294C1129242FFEF64057037905037E0FFEF4401FFEFF09050128C
:4010C000E0FFEF4401FFEFF0905035E0FFEF54FEFFEFF0905036E0FFEF54FEFFEFF012A0919000727401F0804E9000C31294C1129242FFEFB40F089000727401F080389058
:40110000007AE4F090007AE0FFEFD3941F501990007AE0FF74F32FF582E43400F583E4F090007AE004F080DC900079E4F0900074E4F0900072E4F0900072E0FFEFB40104F2
:401140007F0180027F0090006AE0FEEF5EFFEF601D7BFF7AAF79B612AE4812B2227E00EF30E1F790006AE4F0900072E4F02290006AE0FFEF70167BFF7AAF79CC12AE481213
:40118000B2227E00EF20E11680F580127BFF7AAF79BB12AE4812B2227E00EF30E1F7900072E0FFEF70167BFF7AAF79CC12AE4812B2227E00EF20E11680F580127BFF7AAF3C
:4011C00079BB12AE4812B2227E00EF30E1F77BFF7AAF79CE12AE4812B2227E00EF30E1F790006AE4F0900072E4F0229000C4E475F0011292D49000C31294C1129242FFEFA1
:40120000B4011F905015E0FFEF4401FFEFF0905014E0FFEF54FEFFEFF012A0919000487401F09000C31294C1129242FFEF7021905015E0FFEF54FEFFEFF0905014E0FFEFAE
:4012400054FEFFEFF012A0919000487401F0803B9000487401F0803390007AE0FFEFD3941F501990007AE0FF74F32FF582E43400F583E4F090007AE004F080DC900079E4CB
:40128000F0900074E4F0900048E4F09000C4E475F0011292D49000C31294C1129242FFEF64037038905035E0FFEF4401FFEFF0905012E0FFEF4401FFEFF0905036E0FFEF3A
:4012C00054FEFFEFF0905037E0FFEF54FEFFEFF012A0919000727401F00213B89000C31294C1129242FFEF64047038905036E0FFEF4401FFEFF0905012E0FFEF4401FFEF9A
:40130000F0905035E0FFEF54FEFFEFF0905037E0FFEF54FEFFEFF012A0919000727401F00213B89000C31294C1129242FFEF64057037905037E0FFEF4401FFEFF090501286
:40134000E0FFEF4401FFEFF0905035E0FFEF54FEFFEFF0905036E0FFEF54FEFFEFF012A0919000727401F0804F9000C31294C1129242FFEFB40F089000727401F0803990D3
:40138000007AE4F090007AE0FFEFD3941F501990007AE0FF74F32FF582E43400F583E4F090007AE004F080DC900079E4F0900074E4F09000727401F0900072E0FFEFB401E3
:4013C000047F0180027F00900048E0FEEF5EFFEF601D7BFF7AAF79B612AE4812B2227E00EF30E1F7900048E4F0900072E4F022900048E0FFEF70167BFF7AAF79CC12AE4805
:4014000012B2227E00EF20E11680F580127BFF7AAF79BB12AE4812B2227E00EF30E1F7900072E0FFEF70167BFF7AAF79CC12AE4812B2227E00EF20E11680F580127BFF7A56
:40144000AF79BB12AE4812B2227E00EF30E1F77BFF7AAF79CE12AE4812B2227E00EF30E1F7900048E4F0900072E4F0229000C4E475F0011292D49000C31294C1129242FF80
:40148000EF6003021597905024E0FFEF4401FFEFF0905016E0FFEF4401FFEFF0905062E0FFEF4401FFEFF0905017E0FFEF54FEFFEFF0905063E0FFEF54FEFFEFF090507D8A
:4014C000E0FFEF54FEFFEFF0905027E0FFEF54FEFFEFF0905026E0FFEF54FEFFEFF0905025E0FFEF54FEFFEFF0905031E0FFEF54FEFFEFF0905020E0FFEF54FEFFEFF09045
:401500005021E0FFEF54FEFFEFF0905022E0FFEF54FEFFEFF0905030E0FFEF54FEFFEFF0905010E0FFEF54FEFFEFF0905033E0FFEF54FEFFEFF0905032E0FFEF54FEFFEF0F
:40154000F0905014E0FFEF54FEFFEFF0905015E0FFEF54FEFFEFF0905011E0FFEF54FEFFEFF0905013E0FFEF54FEFFEFF090507CE0FFEF54FEFFEFF0905034E0FFEF54FE28
:40158000FFEFF0905065E0FFEF54FEFFEFF09000777401F0022CA09000C31294C1129242FFEF640160030216BA905024E0FFEF4401FFEFF0905016E0FFEF4401FFEFF0903C
:4015C0005062E0FFEF4401FFEFF0905017E0FFEF54FEFFEFF0905063E0FFEF54FEFFEFF090507DE0FFEF54FEFFEFF0905027E0FFEF54FEFFEFF0905026E0FFEF54FEFFEF9E
:40160000F0905025E0FFEF54FEFFEFF0905031E0FFEF54FEFFEFF0905020E0FFEF54FEFFEFF0905021E0FFEF54FEFFEFF0905022E0FFEF54FEFFEFF0905030E0FFEF54FE7B
:40164000FFEFF0905010E0FFEF54FEFFEFF0905033E0FFEF54FEFFEFF0905032E0FFEF54FEFFEFF0905014E0FFEF54FEFFEFF0905015E0FFEF54FEFFEFF0905011E0FFEFD9
:4016800054FEFFEFF0905013E0FFEF54FEFFEFF090507CE0FFEF54FEFFEFF0905034E0FFEF54FEFFEFF0905065E0FFEF54FEFFEFF09000777401F0022CA09000C31294C166
:4016C000129242FFEF640260030217DD905016E0FFEF4401FFEFF090507DE0FFEF4401FFEFF0905024E0FFEF4401FFEFF0905062E0FFEF4401FFEFF0905017E0FFEF54FEE3
:40170000FFEFF0905063E0FFEF54FEFFEFF0905027E0FFEF54FEFFEFF0905026E0FFEF54FEFFEFF0905025E0FFEF54FEFFEFF0905031E0FFEF54FEFFEFF0905020E0FFEFA1
:4017400054FEFFEFF0905021E0FFEF54FEFFEFF0905022E0FFEF54FEFFEFF0905030E0FFEF54FEFFEFF0905010E0FFEF54FEFFEFF0905033E0FFEF54FEFFEFF0905032E03B
:40178000FFEF54FEFFEFF0905014E0FFEF54FEFFEFF0905015E0FFEF54FEFFEFF0905011E0FFEF54FEFFEFF0905013E0FFEF54FEFFEFF090507CE0FFEF54FEFFEFF090500C
:4017C00034E0FFEF54FEFFEFF0905065E0FFEF54FEFFEFF09000777401F0022CA09000C31294C1129242FFEF64036003021900905016E0FFEF4401FFEFF090507DE0FFEFB5
:401800004401FFEFF0905025E0FFEF4401FFEFF0905062E0FFEF4401FFEFF0905017E0FFEF54FEFFEFF0905063E0FFEF54FEFFEFF0905027E0FFEF54FEFFEFF0905026E03B
:40184000FFEF54FEFFEFF0905024E0FFEF54FEFFEFF0905031E0FFEF54FEFFEFF0905020E0FFEF54FEFFEFF0905021E0FFEF54FEFFEFF0905022E0FFEF54FEFFEFF090505C
:4018800030E0FFEF54FEFFEFF0905010E0FFEF54FEFFEFF0905033E0FFEF54FEFFEFF0905032E0FFEF54FEFFEFF0905014E0FFEF54FEFFEFF0905015E0FFEF54FEFFEFF006
:4018C000905011E0FFEF54FEFFEFF0905013E0FFEF54FEFFEFF090507CE0FFEF54FEFFEFF0905034E0FFEF54FEFFEFF0905065E0FFEF54FEFFEFF09000777401F0022CA01F
:401900009000C31294C1129242FFEF64046003021A23905016E0FFEF4401FFEFF090507DE0FFEF4401FFEFF0905026E0FFEF4401FFEFF0905062E0FFEF4401FFEFF09050D0
:4019400017E0FFEF54FEFFEFF0905063E0FFEF54FEFFEFF0905027E0FFEF54FEFFEFF0905025E0FFEF54FEFFEFF0905024E0FFEF54FEFFEFF0905031E0FFEF54FEFFEFF0F8
:40198000905020E0FFEF54FEFFEFF0905021E0FFEF54FEFFEFF0905022E0FFEF54FEFFEFF0905030E0FFEF54FEFFEFF0905010E0FFEF54FEFFEFF0905033E0FFEF54FEFFFC
:4019C000EFF0905032E0FFEF54FEFFEFF0905014E0FFEF54FEFFEFF0905015E0FFEF54FEFFEFF0905011E0FFEF54FEFFEFF0905013E0FFEF54FEFFEFF090507CE0FFEF54B5
:401A0000FEFFEFF0905034E0FFEF54FEFFEFF0905065E0FFEF54FEFFEFF09000777401F0022CA09000C31294C1129242FFEF64106003021B46905016E0FFEF4401FFEFF08C
:401A4000905020E0FFEF4401FFEFF0905031E0FFEF4401FFEFF0905026E0FFEF4401FFEFF0905062E0FFEF4401FFEFF0905017E0FFEF54FEFFEFF0905063E0FFEF54FEFFF2
:401A8000EFF090507DE0FFEF54FEFFEFF0905027E0FFEF54FEFFEFF0905025E0FFEF54FEFFEFF0905024E0FFEF54FEFFEFF0905021E0FFEF54FEFFEFF0905022E0FFEF54BF
:401AC000FEFFEFF0905030E0FFEF54FEFFEFF0905010E0FFEF54FEFFEFF0905033E0FFEF54FEFFEFF0905032E0FFEF54FEFFEFF0905014E0FFEF54FEFFEFF0905015E0FF27
:401B0000EF54FEFFEFF0905011E0FFEF54FEFFEFF0905013E0FFEF54FEFFEFF090507CE0FFEF54FEFFEFF0905034E0FFEF54FEFFEFF0905065E0FFEF54FEFFEFF0900077F0
:401B40007401F0022CA09000C31294C1129242FFEF64116003021C69905016E0FFEF4401FFEFF0905021E0FFEF4401FFEFF0905031E0FFEF4401FFEFF0905026E0FFEF4452
:401B800001FFEFF0905062E0FFEF4401FFEFF0905017E0FFEF54FEFFEFF0905063E0FFEF54FEFFEFF090507DE0FFEF54FEFFEFF0905027E0FFEF54FEFFEFF0905025E0FF99
:401BC000EF54FEFFEFF0905024E0FFEF54FEFFEFF0905020E0FFEF54FEFFEFF0905022E0FFEF54FEFFEFF0905030E0FFEF54FEFFEFF0905010E0FFEF54FEFFEFF0905033B7
:401C0000E0FFEF54FEFFEFF0905032E0FFEF54FEFFEFF0905014E0FFEF54FEFFEFF0905015E0FFEF54FEFFEFF0905011E0FFEF54FEFFEFF0905013E0FFEF54FEFFEFF09041
:401C4000507CE0FFEF54FEFFEFF0905034E0FFEF54FEFFEFF0905065E0FFEF54FEFFEFF09000777401F0022CA09000C31294C1129242FFEF64126003021D8C905016E0FF24
:401C8000EF4401FFEFF0905022E0FFEF4401FFEFF0905031E0FFEF4401FFEFF0905025E0FFEF4401FFEFF0905062E0FFEF4401FFEFF0905017E0FFEF54FEFFEFF0905063BC
:401CC000E0FFEF54FEFFEFF090507DE0FFEF54FEFFEFF0905027E0FFEF54FEFFEFF0905026E0FFEF54FEFFEFF0905024E0FFEF54FEFFEFF0905020E0FFEF54FEFFEFF090F2
:401D00005021E0FFEF54FEFFEFF0905030E0FFEF54FEFFEFF0905010E0FFEF54FEFFEFF0905033E0FFEF54FEFFEFF0905032E0FFEF54FEFFEFF0905014E0FFEF54FEFFEF15
:401D4000F0905015E0FFEF54FEFFEFF0905011E0FFEF54FEFFEFF0905013E0FFEF54FEFFEFF090507CE0FFEF54FEFFEFF0905034E0FFEF54FEFFEFF0905065E0FFEF54FECF
:401D8000FFEFF09000777401F0022CA09000C31294C1129242FFEF64136003021EAF905016E0FFEF4401FFEFF0905022E0FFEF4401FFEFF0905031E0FFEF4401FFEFF09068
:401DC0005026E0FFEF4401FFEFF0905062E0FFEF4401FFEFF0905017E0FFEF54FEFFEFF0905063E0FFEF54FEFFEFF090507DE0FFEF54FEFFEFF0905027E0FFEF54FEFFEFA3
:401E0000F0905025E0FFEF54FEFFEFF0905024E0FFEF54FEFFEFF0905020E0FFEF54FEFFEFF0905021E0FFEF54FEFFEFF0905030E0FFEF54FEFFEFF0905010E0FFEF54FE92
:401E4000FFEFF0905033E0FFEF54FEFFEFF0905032E0FFEF54FEFFEFF0905014E0FFEF54FEFFEFF0905015E0FFEF54FEFFEFF0905011E0FFEF54FEFFEFF0905013E0FFEFCE
:401E800054FEFFEFF090507CE0FFEF54FEFFEFF0905034E0FFEF54FEFFEFF0905065E0FFEF54FEFFEFF09000777401F0022CA09000C31294C1129242FFEF64206003021F73
:401EC000D2905017E0FFEF4401FFEFF0905016E0FFEF4401FFEFF090507DE0FFEF4401FFEFF0905027E0FFEF4401FFEFF0905062E0FFEF4401FFEFF0905063E0FFEF54FE65
:401F0000FFEFF0905026E0FFEF54FEFFEFF0905025E0FFEF54FEFFEFF0905024E0FFEF54FEFFEFF0905031E0FFEF54FEFFEFF0905020E0FFEF54FEFFEFF0905021E0FFEFDE
:401F400054FEFFEFF0905022E0FFEF54FEFFEFF0905030E0FFEF54FEFFEFF0905010E0FFEF54FEFFEFF0905033E0FFEF54FEFFEFF0905032E0FFEF54FEFFEFF0905014E040
:401F8000FFEF54FEFFEFF0905015E0FFEF54FEFFEFF0905011E0FFEF54FEFFEFF0905013E0FFEF54FEFFEFF090507CE0FFEF54FEFFEFF0905034E0FFEF54FEFFEFF09050E4
:401FC00065E0FFEF54FEFFEFF09000777401F0022CA09000C31294C1129242FFEF642160030220F5905017E0FFEF4401FFEFF0905016E0FFEF4401FFEFF090507DE0FFEFBD
:402000004401FFEFF0905027E0FFEF4401FFEFF0905062E0FFEF4401FFEFF0905063E0FFEF54FEFFEFF0905026E0FFEF54FEFFEFF0905025E0FFEF54FEFFEFF0905024E026
:40204000FFEF54FEFFEFF0905031E0FFEF54FEFFEFF0905020E0FFEF54FEFFEFF0905021E0FFEF54FEFFEFF0905022E0FFEF54FEFFEFF0905030E0FFEF54FEFFEFF0905048
:4020800010E0FFEF54FEFFEFF0905033E0FFEF54FEFFEFF0905032E0FFEF54FEFFEFF0905014E0FFEF54FEFFEFF0905015E0FFEF54FEFFEFF0905011E0FFEF54FEFFEFF01D
:4020C000905013E0FFEF54FEFFEFF090507CE0FFEF54FEFFEFF0905034E0FFEF54FEFFEFF0905065E0FFEF54FEFFEFF09000777401F0022CA09000C31294C1129242FFEF78
:4021000064226003022218905017E0FFEF4401FFEFF0905016E0FFEF4401FFEFF090507DE0FFEF4401FFEFF0905027E0FFEF4401FFEFF0905062E0FFEF4401FFEFF0905052
:4021400063E0FFEF54FEFFEFF0905026E0FFEF54FEFFEFF0905025E0FFEF54FEFFEFF0905024E0FFEF54FEFFEFF0905031E0FFEF54FEFFEFF0905020E0FFEF54FEFFEFF0E8
:40218000905021E0FFEF54FEFFEFF0905022E0FFEF54FEFFEFF0905030E0FFEF54FEFFEFF0905010E0FFEF54FEFFEFF0905033E0FFEF54FEFFEFF0905032E0FFEF54FEFFE2
:4021C000EFF0905014E0FFEF54FEFFEFF0905015E0FFEF54FEFFEFF0905011E0FFEF54FEFFEFF0905013E0FFEF54FEFFEFF090507CE0FFEF54FEFFEFF0905034E0FFEF54AB
:40220000FEFFEFF0905065E0FFEF54FEFFEFF09000777401F0022CA09000C31294C1129242FFEF6423600302233B905017E0FFEF4401FFEFF0905016E0FFEF4401FFEFF09E
:4022400090507DE0FFEF4401FFEFF0905027E0FFEF4401FFEFF0905062E0FFEF4401FFEFF0905063E0FFEF54FEFFEFF0905026E0FFEF54FEFFEFF0905025E0FFEF54FEFF7C
:40228000EFF0905024E0FFEF54FEFFEFF0905031E0FFEF54FEFFEFF0905020E0FFEF54FEFFEFF0905021E0FFEF54FEFFEFF0905022E0FFEF54FEFFEFF0905030E0FFEF54FF
:4022C000FEFFEFF0905010E0FFEF54FEFFEFF0905033E0FFEF54FEFFEFF0905032E0FFEF54FEFFEFF0905014E0FFEF54FEFFEFF0905015E0FFEF54FEFFEFF0905011E0FF3E
:40230000EF54FEFFEFF0905013E0FFEF54FEFFEFF090507CE0FFEF54FEFFEFF0905034E0FFEF54FEFFEFF0905065E0FFEF54FEFFEFF09000777401F0022CA09000C31294AB
:40234000C1129242FFEF6424600302245E905017E0FFEF4401FFEFF0905016E0FFEF4401FFEFF090507DE0FFEF4401FFEFF0905027E0FFEF4401FFEFF0905062E0FFEF44F0
:4023800001FFEFF0905063E0FFEF54FEFFEFF0905026E0FFEF54FEFFEFF0905025E0FFEF54FEFFEFF0905024E0FFEF54FEFFEFF0905031E0FFEF54FEFFEFF0905020E0FF06
:4023C000EF54FEFFEFF0905021E0FFEF54FEFFEFF0905022E0FFEF54FEFFEFF0905030E0FFEF54FEFFEFF0905010E0FFEF54FEFFEFF0905033E0FFEF54FEFFEFF0905032A0
:40240000E0FFEF54FEFFEFF0905014E0FFEF54FEFFEFF0905015E0FFEF54FEFFEFF0905011E0FFEF54FEFFEFF0905013E0FFEF54FEFFEFF090507CE0FFEF54FEFFEFF090EF
:402440005034E0FFEF54FEFFEFF0905065E0FFEF54FEFFEFF09000777401F0022CA09000C31294C1129242FFEF64256003022581905017E0FFEF4401FFEFF0905016E0FF7E
:40248000EF4401FFEFF090507DE0FFEF4401FFEFF0905027E0FFEF4401FFEFF0905062E0FFEF4401FFEFF0905030E0FFEF4401FFEFF0905063E0FFEF54FEFFEFF090502649
:4024C000E0FFEF54FEFFEFF0905025E0FFEF54FEFFEFF0905024E0FFEF54FEFFEFF0905031E0FFEF54FEFFEFF0905020E0FFEF54FEFFEFF0905021E0FFEF54FEFFEFF0903D
:402500005022E0FFEF54FEFFEFF0905010E0FFEF54FEFFEFF0905033E0FFEF54FEFFEFF0905032E0FFEF54FEFFEFF0905014E0FFEF54FEFFEFF0905015E0FFEF54FEFFEF27
:40254000F0905011E0FFEF54FEFFEFF0905013E0FFEF54FEFFEFF090507CE0FFEF54FEFFEFF0905034E0FFEF54FEFFEFF0905065E0FFEF54FEFFEFF09000777401F0022C42
:40258000A09000C31294C1129242FFEF643060030226A4905017E0FFEF4401FFEFF0905016E0FFEF4401FFEFF0905027E0FFEF4401FFEFF090507DE0FFEF4401FFEFF09085
:4025C0005063E0FFEF4401FFEFF0905062E0FFEF4401FFEFF0905026E0FFEF54FEFFEFF0905025E0FFEF54FEFFEFF0905024E0FFEF54FEFFEFF0905031E0FFEF54FEFFEFDC
:40260000F0905020E0FFEF54FEFFEFF0905021E0FFEF54FEFFEFF0905022E0FFEF54FEFFEFF0905030E0FFEF54FEFFEFF0905010E0FFEF54FEFFEFF0905033E0FFEF54FE7E
:40264000FFEFF0905032E0FFEF54FEFFEFF0905014E0FFEF54FEFFEFF0905015E0FFEF54FEFFEFF0905011E0FFEF54FEFFEFF0905013E0FFEF54FEFFEFF090507CE0FFEF7D
:4026800054FEFFEFF0905034E0FFEF54FEFFEFF0905065E0FFEF54FEFFEFF09000777401F0022CA09000C31294C1129242FFEF643160030227C7905017E0FFEF4401FFEFED
:4026C000F0905016E0FFEF4401FFEFF0905027E0FFEF4401FFEFF090507DE0FFEF4401FFEFF0905063E0FFEF4401FFEFF0905062E0FFEF4401FFEFF0905026E0FFEF54FE30
:40270000FFEFF0905025E0FFEF54FEFFEFF0905024E0FFEF54FEFFEFF0905031E0FFEF54FEFFEFF0905020E0FFEF54FEFFEFF0905021E0FFEF54FEFFEFF0905022E0FFEFDA
:4027400054FEFFEFF0905030E0FFEF54FEFFEFF0905010E0FFEF54FEFFEFF0905033E0FFEF54FEFFEFF0905032E0FFEF54FEFFEFF0905014E0FFEF54FEFFEFF0905015E045
:40278000FFEF54FEFFEFF0905011E0FFEF54FEFFEFF0905013E0FFEF54FEFFEFF090507CE0FFEF54FEFFEFF0905034E0FFEF54FEFFEFF0905065E0FFEF54FEFFEFF09000DC
:4027C000777401F0022CA09000C31294C1129242FFEF643260030228EA905017E0FFEF4401FFEFF0905016E0FFEF4401FFEFF0905027E0FFEF4401FFEFF090507DE0FFEFA2
:402800004401FFEFF0905063E0FFEF4401FFEFF0905062E0FFEF4401FFEFF0905026E0FFEF54FEFFEFF0905025E0FFEF54FEFFEFF0905024E0FFEF54FEFFEFF0905031E014
:40284000FFEF54FEFFEFF0905020E0FFEF54FEFFEFF0905021E0FFEF54FEFFEFF0905022E0FFEF54FEFFEFF0905030E0FFEF54FEFFEFF0905010E0FFEF54FEFFEFF0905061
:4028800033E0FFEF54FEFFEFF0905032E0FFEF54FEFFEFF0905014E0FFEF54FEFFEFF0905015E0FFEF54FEFFEFF0905011E0FFEF54FEFFEFF0905013E0FFEF54FEFFEFF012
:4028C00090507CE0FFEF54FEFFEFF0905034E0FFEF54FEFFEFF0905065E0FFEF54FEFFEFF09000777401F0022CA09000C31294C1129242FFEF64336003022A0D905017E057
:40290000FFEF4401FFEFF0905016E0FFEF4401FFEFF0905027E0FFEF4401FFEFF090507DE0FFEF4401FFEFF0905063E0FFEF4401FFEFF0905062E0FFEF4401FFEFF0905012
:4029400026E0FFEF54FEFFEFF0905025E0FFEF54FEFFEFF0905024E0FFEF54FEFFEFF0905031E0FFEF54FEFFEFF0905020E0FFEF54FEFFEFF0905021E0FFEF54FEFFEFF022
:40298000905022E0FFEF54FEFFEFF0905030E0FFEF54FEFFEFF0905010E0FFEF54FEFFEFF0905033E0FFEF54FEFFEFF0905032E0FFEF54FEFFEFF0905014E0FFEF54FEFFE7
:4029C000EFF0905015E0FFEF54FEFFEFF0905011E0FFEF54FEFFEFF0905013E0FFEF54FEFFEFF090507CE0FFEF54FEFFEFF0905034E0FFEF54FEFFEFF0905065E0FFEF5452
:402A0000FEFFEFF09000777401F0022CA09000C31294C1129242FFEF64346003022B30905017E0FFEF4401FFEFF0905016E0FFEF4401FFEFF0905027E0FFEF4401FFEFF0D3
:402A400090507DE0FFEF4401FFEFF0905063E0FFEF4401FFEFF0905062E0FFEF4401FFEFF0905026E0FFEF54FEFFEFF0905025E0FFEF54FEFFEFF0905024E0FFEF54FEFF77
:402A8000EFF0905031E0FFEF54FEFFEFF0905020E0FFEF54FEFFEFF0905021E0FFEF54FEFFEFF0905022E0FFEF54FEFFEFF0905030E0FFEF54FEFFEFF0905010E0FFEF540B
:402AC000FEFFEFF0905033E0FFEF54FEFFEFF0905032E0FFEF54FEFFEFF0905014E0FFEF54FEFFEFF0905015E0FFEF54FEFFEFF0905011E0FFEF54FEFFEFF0905013E0FF33
:402B0000EF54FEFFEFF090507CE0FFEF54FEFFEFF0905034E0FFEF54FEFFEFF0905065E0FFEF54FEFFEFF09000777401F0022CA09000C31294C1129242FFEF643560030201
:402B40002C52905017E0FFEF4401FFEFF0905016E0FFEF4401FFEFF0905027E0FFEF4401FFEFF090507DE0FFEF4401FFEFF0905063E0FFEF4401FFEFF0905062E0FFEF443A
:402B800001FFEFF0905030E0FFEF4401FFEFF0905026E0FFEF54FEFFEFF0905025E0FFEF54FEFFEFF0905024E0FFEF54FEFFEFF0905031E0FFEF54FEFFEFF0905020E0FF3E
:402BC000EF54FEFFEFF0905021E0FFEF54FEFFEFF0905022E0FFEF54FEFFEFF0905010E0FFEF54FEFFEFF0905033E0FFEF54FEFFEFF0905032E0FFEF54FEFFEFF0905014B4
:402C0000E0FFEF54FEFFEFF0905015E0FFEF54FEFFEFF0905011E0FFEF54FEFFEFF0905013E0FFEF54FEFFEFF090507CE0FFEF54FEFFEFF0905034E0FFEF54FEFFEFF090C7
:402C40005065E0FFEF54FEFFEFF09000777401F0804E9000C31294C1129242FFEFB40F089000777401F0803890007AE4F090007AE0FFEFD3941F501990007AE0FF74F32FC6
:402C8000F582E43400F583E4F090007AE004F080DC900079E4F0900074E4F0900077E4F09000C4E475F0011292D49000C31294C1129242FFEF6403600302323C9000C474C9
:402CC000FF75F0FF1292D4905035E0FFEF4401FFEFF0905012E0FFEF4401FFEFF0905036E0FFEF54FEFFEFF0905037E0FFEF54FEFFEFF09000727401F09000C31294C112B4
:402D00009242FFEF603F9000C31294C1129242FFEF640160309000C31294C1129242FFEF640260219000C31294C1129242FFEF640360129000C31294C1129242FFEF6404DD
:402D40006003022EF79000C31294C1129242FFEF702490507DE0FFEF54FEFFEFF0905026E0FFEF54FEFFEFF0905025E0FFEF54FEFFEFF0022E399000C31294C1129242FF3D
:402D8000EFB4012490507DE0FFEF54FEFFEFF0905026E0FFEF54FEFFEFF0905025E0FFEF54FEFFEFF0022E399000C31294C1129242FFEFB40223905016E0FFEF54FEFFEF15
:402DC000F0905026E0FFEF54FEFFEFF0905025E0FFEF54FEFFEFF080609000C31294C1129242FFEFB40323905016E0FFEF54FEFFEFF0905026E0FFEF54FEFFEFF090502498
:402E0000E0FFEF54FEFFEFF0802F9000C31294C1129242FFEFB40421905016E0FFEF54FEFFEFF0905025E0FFEF54FEFFEFF0905024E0FFEF54FEFFEFF0905027E0FFEF545C
:402E4000FEFFEFF0905017E0FFEF54FEFFEFF0905063E0FFEF54FEFFEFF0905031E0FFEF54FEFFEFF0905022E0FFEF54FEFFEFF0905021E0FFEF54FEFFEFF0905020E0FF53
:402E8000EF54FEFFEFF0905030E0FFEF54FEFFEFF0905034E0FFEF54FEFFEFF090507CE0FFEF54FEFFEFF0905010E0FFEF54FEFFEFF0905033E0FFEF54FEFFEFF090503268
:402EC000E0FFEF54FEFFEFF0905014E0FFEF54FEFFEFF0905015E0FFEF54FEFFEFF0905013E0FFEF54FEFFEFF0905011E0FFEF54FEFFEFF0023DAD9000C31294C112924283
:402F0000FFEF641060309000C31294C1129242FFEF641160219000C31294C1129242FFEF641260129000C31294C1129242FFEF641360030230AC9000C31294C1129242FFC0
:402F4000EFB41024905021E0FFEF54FEFFEFF0905022E0FFEF54FEFFEFF0905025E0FFEF54FEFFEFF0022FF99000C31294C1129242FFEFB41123905022E0FFEF54FEFFEFC8
:402F8000F0905020E0FFEF54FEFFEFF0905025E0FFEF54FEFFEFF080609000C31294C1129242FFEFB41223905021E0FFEF54FEFFEFF0905020E0FFEF54FEFFEFF0905026C6
:402FC000E0FFEF54FEFFEFF0802F9000C31294C1129242FFEFB41321905021E0FFEF54FEFFEFF0905020E0FFEF54FEFFEFF0905025E0FFEF54FEFFEFF090507DE0FFEF542F
:40300000FEFFEFF0905063E0FFEF54FEFFEFF0905017E0FFEF54FEFFEFF0905016E0FFEF54FEFFEFF0905030E0FFEF54FEFFEFF0905027E0FFEF54FEFFEFF0905024E0FF94
:40304000EF54FEFFEFF0905034E0FFEF54FEFFEFF090507CE0FFEF54FEFFEFF0905010E0FFEF54FEFFEFF0905033E0FFEF54FEFFEFF0905032E0FFEF54FEFFEFF0905014C2
:40308000E0FFEF54FEFFEFF0905015E0FFEF54FEFFEFF0905013E0FFEF54FEFFEFF0905011E0FFEF54FEFFEFF0023DAD9000C31294C1129242FFEF6420603B9000C31294AD
:4030C000C1129242FFEF6421602C9000C31294C1129242FFEF6422601D9000C31294C1129242FFEF6423600E9000C31294C1129242FFEFB42418905063E0FFEF54FEFFEF47
:40310000F0905030E0FFEF54FEFFEFF080709000C31294C1129242FFEFB4250D905063E0FFEF54FEFFEFF080559000C31294C1129242FFEF6430603B9000C31294C11292FC
:4031400042FFEF6431602C9000C31294C1129242FFEF6432601D9000C31294C1129242FFEF6433600E9000C31294C1129242FFEFB4340B905030E0FFEF54FEFFEFF090505B
:4031800031E0FFEF54FEFFEFF0905022E0FFEF54FEFFEFF0905021E0FFEF54FEFFEFF0905020E0FFEF54FEFFEFF0905016E0FFEF54FEFFEFF0905026E0FFEF54FEFFEFF0EB
:4031C000905025E0FFEF54FEFFEFF0905024E0FFEF54FEFFEFF0905034E0FFEF54FEFFEFF090507CE0FFEF54FEFFEFF0905010E0FFEF54FEFFEFF0905033E0FFEF54FEFF3E
:40320000EFF0905032E0FFEF54FEFFEFF0905014E0FFEF54FEFFEFF0905015E0FFEF54FEFFEFF0905013E0FFEF54FEFFEFF0905011E0FFEF54FEFFEFF0023DAD9000C31289
:4032400094C1129242FFEF640460030237CE9000C474FF75F0FF1292D4905036E0FFEF4401FFEFF0905012E0FFEF4401FFEFF0905035E0FFEF54FEFFEFF0905037E0FFEFCE
:4032800054FEFFEFF09000727401F09000C31294C1129242FFEF603F9000C31294C1129242FFEF640160309000C31294C1129242FFEF640260219000C31294C1129242FFB3
:4032C000EF640360129000C31294C1129242FFEF640460030234899000C31294C1129242FFEF702490507DE0FFEF54FEFFEFF0905026E0FFEF54FEFFEFF0905025E0FFEF9A
:4033000054FEFFEFF00233CB9000C31294C1129242FFEFB4012490507DE0FFEF54FEFFEFF0905026E0FFEF54FEFFEFF0905025E0FFEF54FEFFEFF00233CB9000C31294C1DA
:40334000129242FFEFB40223905016E0FFEF54FEFFEFF0905026E0FFEF54FEFFEFF0905025E0FFEF54FEFFEFF080609000C31294C1129242FFEFB40323905016E0FFEF5445
:40338000FEFFEFF0905026E0FFEF54FEFFEFF0905024E0FFEF54FEFFEFF0802F9000C31294C1129242FFEFB40421905016E0FFEF54FEFFEFF0905025E0FFEF54FEFFEFF01E
:4033C000905024E0FFEF54FEFFEFF0905027E0FFEF54FEFFEFF0905017E0FFEF54FEFFEFF0905063E0FFEF54FEFFEFF0905031E0FFEF54FEFFEFF0905022E0FFEF54FEFF60
:40340000EFF0905021E0FFEF54FEFFEFF0905020E0FFEF54FEFFEFF0905030E0FFEF54FEFFEFF0905034E0FFEF54FEFFEFF090507CE0FFEF54FEFFEFF0905010E0FFEF5424
:40344000FEFFEFF0905033E0FFEF54FEFFEFF0905032E0FFEF54FEFFEFF0905014E0FFEF54FEFFEFF0905015E0FFEF54FEFFEFF0905013E0FFEF54FEFFEFF0905011E0FFA9
:40348000EF54FEFFEFF0023DAD9000C31294C1129242FFEF641060309000C31294C1129242FFEF641160219000C31294C1129242FFEF641260129000C31294C1129242FFD6
:4034C000EF6413600302363E9000C31294C1129242FFEFB41024905021E0FFEF54FEFFEFF0905022E0FFEF54FEFFEFF0905025E0FFEF54FEFFEFF002358B9000C31294C199
:40350000129242FFEFB41123905022E0FFEF54FEFFEFF0905020E0FFEF54FEFFEFF0905025E0FFEF54FEFFEFF080609000C31294C1129242FFEFB41223905021E0FFEF5454
:40354000FEFFEFF0905020E0FFEF54FEFFEFF0905026E0FFEF54FEFFEFF0802F9000C31294C1129242FFEFB41321905021E0FFEF54FEFFEFF0905020E0FFEF54FEFFEFF04B
:40358000905025E0FFEF54FEFFEFF090507DE0FFEF54FEFFEFF0905063E0FFEF54FEFFEFF0905017E0FFEF54FEFFEFF0905016E0FFEF54FEFFEFF0905030E0FFEF54FEFF54
:4035C000EFF0905027E0FFEF54FEFFEFF0905024E0FFEF54FEFFEFF0905034E0FFEF54FEFFEFF090507CE0FFEF54FEFFEFF0905010E0FFEF54FEFFEFF0905033E0FFEF5456
:40360000FEFFEFF0905032E0FFEF54FEFFEFF0905014E0FFEF54FEFFEFF0905015E0FFEF54FEFFEFF0905013E0FFEF54FEFFEFF0905011E0FFEF54FEFFEFF0023DAD90005D
:40364000C31294C1129242FFEF6420603B9000C31294C1129242FFEF6421602C9000C31294C1129242FFEF6422601D9000C31294C1129242FFEF6423600E9000C31294C1C0
:40368000129242FFEFB42418905063E0FFEF54FEFFEFF0905030E0FFEF54FEFFEFF080709000C31294C1129242FFEFB4250D905063E0FFEF54FEFFEFF080559000C3129484
:4036C000C1129242FFEF6430603B9000C31294C1129242FFEF6431602C9000C31294C1129242FFEF6432601D9000C31294C1129242FFEF6433600E9000C31294C112924283
:40370000FFEFB4340B905030E0FFEF54FEFFEFF0905031E0FFEF54FEFFEFF0905022E0FFEF54FEFFEFF0905021E0FFEF54FEFFEFF0905020E0FFEF54FEFFEFF0905016E0B8
:40374000FFEF54FEFFEFF0905026E0FFEF54FEFFEFF0905025E0FFEF54FEFFEFF0905024E0FFEF54FEFFEFF0905034E0FFEF54FEFFEFF090507CE0FFEF54FEFFEFF09050D6
:4037800010E0FFEF54FEFFEFF0905033E0FFEF54FEFFEFF0905032E0FFEF54FEFFEFF0905014E0FFEF54FEFFEFF0905015E0FFEF54FEFFEFF0905013E0FFEF54FEFFEFF004
:4037C000905011E0FFEF54FEFFEFF0023DAD9000C31294C1129242FFEF64056003023D5F9000C474FF75F0FF1292D4905037E0FFEF4401FFEFF0905012E0FFEF4401FFEF58
:40380000F0905035E0FFEF54FEFFEFF0905036E0FFEF54FEFFEFF09000727401F09000C31294C1129242FFEF603F9000C31294C1129242FFEF640160309000C31294C1128E
:403840009242FFEF640260219000C31294C1129242FFEF640360129000C31294C1129242FFEF64046003023A1B9000C31294C1129242FFEF702490507DE0FFEF54FEFFEFFB
:40388000F0905026E0FFEF54FEFFEFF0905025E0FFEF54FEFFEFF002395D9000C31294C1129242FFEFB4012490507DE0FFEF54FEFFEFF0905026E0FFEF54FEFFEFF09050D3
:4038C00025E0FFEF54FEFFEFF002395D9000C31294C1129242FFEFB40223905016E0FFEF54FEFFEFF0905026E0FFEF54FEFFEFF0905025E0FFEF54FEFFEFF080609000C378
:403900001294C1129242FFEFB40323905016E0FFEF54FEFFEFF0905026E0FFEF54FEFFEFF0905024E0FFEF54FEFFEFF0802F9000C31294C1129242FFEFB40421905016E08C
:40394000FFEF54FEFFEFF0905025E0FFEF54FEFFEFF0905024E0FFEF54FEFFEFF0905027E0FFEF54FEFFEFF0905017E0FFEF54FEFFEFF0905063E0FFEF54FEFFEFF0905009
:4039800031E0FFEF54FEFFEFF0905022E0FFEF54FEFFEFF0905021E0FFEF54FEFFEFF0905020E0FFEF54FEFFEFF0905030E0FFEF54FEFFEFF0905034E0FFEF54FEFFEFF0BB
:4039C00090507CE0FFEF54FEFFEFF0905010E0FFEF54FEFFEFF0905033E0FFEF54FEFFEFF0905032E0FFEF54FEFFEFF0905014E0FFEF54FEFFEFF0905015E0FFEF54FEFF58
:403A0000EFF0905013E0FFEF54FEFFEFF0905011E0FFEF54FEFFEFF0023DAD9000C31294C1129242FFEF641060309000C31294C1129242FFEF641160219000C31294C112F9
:403A40009242FFEF641260129000C31294C1129242FFEF64136003023BD09000C31294C1129242FFEFB41024905021E0FFEF54FEFFEFF0905022E0FFEF54FEFFEFF09050D2
:403A800025E0FFEF54FEFFEFF0023B1D9000C31294C1129242FFEFB41123905022E0FFEF54FEFFEFF0905020E0FFEF54FEFFEFF0905025E0FFEF54FEFFEFF080609000C3DF
:403AC0001294C1129242FFEFB41223905021E0FFEF54FEFFEFF0905020E0FFEF54FEFFEFF0905026E0FFEF54FEFFEFF0802F9000C31294C1129242FFEFB41321905021E09B
:403B0000FFEF54FEFFEFF0905020E0FFEF54FEFFEFF0905025E0FFEF54FEFFEFF090507DE0FFEF54FEFFEFF0905063E0FFEF54FEFFEFF0905017E0FFEF54FEFFEFF09050F5
:403B400016E0FFEF54FEFFEFF0905030E0FFEF54FEFFEFF0905027E0FFEF54FEFFEFF0905024E0FFEF54FEFFEFF0905034E0FFEF54FEFFEFF090507CE0FFEF54FEFFEFF0B0
:403B8000905010E0FFEF54FEFFEFF0905033E0FFEF54FEFFEFF0905032E0FFEF54FEFFEFF0905014E0FFEF54FEFFEFF0905015E0FFEF54FEFFEFF0905013E0FFEF54FEFFFF
:403BC000EFF0905011E0FFEF54FEFFEFF0023DAD9000C31294C1129242FFEF6420603B9000C31294C1129242FFEF6421602C9000C31294C1129242FFEF6422601D9000C3DB
:403C00001294C1129242FFEF6423600E9000C31294C1129242FFEFB42418905063E0FFEF54FEFFEFF0905030E0FFEF54FEFFEFF080709000C31294C1129242FFEFB4250D23
:403C4000905063E0FFEF54FEFFEFF080559000C31294C1129242FFEF6430603B9000C31294C1129242FFEF6431602C9000C31294C1129242FFEF6432601D9000C31294C167
:403C8000129242FFEF6433600E9000C31294C1129242FFEFB4340B905030E0FFEF54FEFFEFF0905031E0FFEF54FEFFEFF0905022E0FFEF54FEFFEFF0905021E0FFEF54FE6C
:403CC000FFEFF0905020E0FFEF54FEFFEFF0905016E0FFEF54FEFFEFF0905026E0FFEF54FEFFEFF0905025E0FFEF54FEFFEFF0905024E0FFEF54FEFFEFF0905034E0FFEF09
:403D000054FEFFEFF090507CE0FFEF54FEFFEFF0905010E0FFEF54FEFFEFF0905033E0FFEF54FEFFEFF0905032E0FFEF54FEFFEFF0905014E0FFEF54FEFFEFF0905015E023
:403D4000FFEF54FEFFEFF0905013E0FFEF54FEFFEFF0905011E0FFEF54FEFFEFF0804E9000C31294C1129242FFEFB40F089000727401F0803890007AE4F090007AE0FFEF49
:403D8000D3941F501990007AE0FF74F32FF582E43400F583E4F090007AE004F080DC900079E4F0900074E4F0900072E4F0900072E0FFEFB401047F0180027F00900077E004
:403DC000FEEF5EFFEF601D7BFF7AAF79B612AE4812B2227E00EF30E1F7900077E4F0900072E4F022900077E0FFEF70167BFF7AAF79CC12AE4812B2227E00EF20E11680F5DB
:403E000080127BFF7AAF79BB12AE4812B2227E00EF30E1F7900072E0FFEF70167BFF7AAF79CC12AE4812B2227E00EF20E11680F580127BFF7AAF79BB12AE4812B2227E00BC
:403E4000EF30E1F77BFF7AAF79CE12AE4812B2227E00EF30E1F7900077E4F0900072E4F0229000C4E475F0011292D49000C31294C1129242FFEF64016003023F5690501137
:403E8000E0FFEF4401FFEFF090507DE0FFEF54FEFFEFF0905062E0FFEF54FEFFEFF0905063E0FFEF54FEFFEFF0905031E0FFEF54FEFFEFF0905022E0FFEF54FEFFEFF09096
:403EC0005021E0FFEF54FEFFEFF0905020E0FFEF54FEFFEFF0905016E0FFEF54FEFFEFF0905030E0FFEF54FEFFEFF0905027E0FFEF54FEFFEFF0905026E0FFEF54FEFFEF3A
:403F0000F0905025E0FFEF54FEFFEFF0905024E0FFEF54FEFFEFF0905010E0FFEF54FEFFEFF0905033E0FFEF54FEFFEFF0905032E0FFEF54FEFFEFF0905014E0FFEF54FE69
:403F4000FFEFF0905015E0FFEF54FEFFEFF090004A7401F0806E9000C31294C1129242FFEF7013905011E0FFEF54FEFFEFF090004A7401F0804E9000C31294C1129242FF97
:403F8000EFB40F0890004A7401F0803890007AE4F090007AE0FFEFD3941F501990007AE0FF74F32FF582E43400F583E4F090007AE004F080DC900079E4F0900074E4F090D2
:403FC000004AE4F09000C4E475F0011292D49000C31294C1129242FFEF60030240D9905034E0FFEF4401FFEFF0905013E0FFEF4401FFEFF0905017E0FFEF4401FFEFF09020
:40400000507CE0FFEF54FEFFEFF0905065E0FFEF54FEFFEFF090507DE0FFEF54FEFFEFF0905062E0FFEF54FEFFEFF0905063E0FFEF54FEFFEFF0905031E0FFEF54FEFFEF78
:40404000F0905022E0FFEF54FEFFEFF0905021E0FFEF54FEFFEFF0905016E0FFEF54FEFFEFF0905027E0FFEF54FEFFEFF0905026E0FFEF54FEFFEFF0905025E0FFEF54FE2F
:40408000FFEFF0905024E0FFEF54FEFFEFF0905030E0FFEF54FEFFEFF0905010E0FFEF54FEFFEFF0905033E0FFEF54FEFFEFF0905032E0FFEF54FEFFEFF0905014E0FFEF41
:4040C00054FEFFEFF0905015E0FFEF54FEFFEFF09000707401F00243569000C31294C1129242FFEF640160030241F190507CE0FFEF4401FFEFF0905013E0FFEF4401FFEFD2
:40410000F0905017E0FFEF4401FFEFF0905034E0FFEF54FEFFEFF0905065E0FFEF54FEFFEFF090507DE0FFEF54FEFFEFF0905062E0FFEF54FEFFEFF0905063E0FFEF54FE54
:40414000FFEFF0905031E0FFEF54FEFFEFF0905022E0FFEF54FEFFEFF0905021E0FFEF54FEFFEFF0905020E0FFEF54FEFFEFF0905016E0FFEF54FEFFEFF0905027E0FFEF8C
:4041800054FEFFEFF0905026E0FFEF54FEFFEFF0905025E0FFEF54FEFFEFF0905024E0FFEF54FEFFEFF0905030E0FFEF54FEFFEFF0905010E0FFEF54FEFFEFF0905033E0D7
:4041C000FFEF54FEFFEFF0905032E0FFEF54FEFFEFF0905014E0FFEF54FEFFEFF0905015E0FFEF54FEFFEFF09000707401F00243569000C31294C1129242FFEF6402600355
:40420000024308905065E0FFEF4401FFEFF0905013E0FFEF4401FFEFF0905017E0FFEF4401FFEFF0905034E0FFEF54FEFFEFF090507CE0FFEF54FEFFEFF090507DE0FFEF98
:4042400054FEFFEFF0905062E0FFEF54FEFFEFF0905063E0FFEF54FEFFEFF0905031E0FFEF54FEFFEFF0905022E0FFEF54FEFFEFF0905021E0FFEF54FEFFEFF0905020E09F
:40428000FFEF54FEFFEFF0905016E0FFEF54FEFFEFF0905027E0FFEF54FEFFEFF0905026E0FFEF54FEFFEFF0905025E0FFEF54FEFFEFF0905024E0FFEF54FEFFEFF09050FE
:4042C00030E0FFEF54FEFFEFF0905010E0FFEF54FEFFEFF0905033E0FFEF54FEFFEFF0905032E0FFEF54FEFFEFF0905014E0FFEF54FEFFEFF0905015E0FFEF54FEFFEFF09C
:404300009000707401F0804E9000C31294C1129242FFEFB40F089000707401F0803890007AE4F090007AE0FFEFD3941F501990007AE0FF74F32FF582E43400F583E4F09045
:40434000007AE004F080DC900079E4F0900074E4F0900070E4F09000C4E475F0011292D49000C31294C1129242FFEF6403600302446D905035E0FFEF4401FFEFF0905012F1
:40438000E0FFEF4401FFEFF0905036E0FFEF54FEFFEFF0905037E0FFEF54FEFFEFF090507DE0FFEF54FEFFEFF0905062E0FFEF54FEFFEFF0905063E0FFEF54FEFFEFF09077
:4043C0005031E0FFEF54FEFFEFF0905022E0FFEF54FEFFEFF0905021E0FFEF54FEFFEFF0905020E0FFEF54FEFFEFF0905016E0FFEF54FEFFEFF0905027E0FFEF54FEFFEF38
:40440000F0905026E0FFEF54FEFFEFF0905025E0FFEF54FEFFEFF0905024E0FFEF54FEFFEFF0905030E0FFEF54FEFFEFF0905010E0FFEF54FEFFEFF0905033E0FFEF54FE54
:40444000FFEFF0905032E0FFEF54FEFFEFF0905014E0FFEF54FEFFEFF0905015E0FFEF54FEFFEFF09000727401F00246D49000C31294C1129242FFEF6404600302457A903C
:404480005036E0FFEF4401FFEFF0905012E0FFEF4401FFEFF0905035E0FFEF54FEFFEFF0905037E0FFEF54FEFFEFF090507DE0FFEF54FEFFEFF0905062E0FFEF54FEFFEFCF
:4044C000F0905063E0FFEF54FEFFEFF0905031E0FFEF54FEFFEFF0905022E0FFEF54FEFFEFF0905021E0FFEF54FEFFEFF0905020E0FFEF54FEFFEFF0905016E0FFEF54FE69
:40450000FFEFF0905027E0FFEF54FEFFEFF0905026E0FFEF54FEFFEFF0905025E0FFEF54FEFFEFF0905024E0FFEF54FEFFEFF0905030E0FFEF54FEFFEFF0905010E0FFEFC3
:4045400054FEFFEFF0905033E0FFEF54FEFFEFF0905032E0FFEF54FEFFEFF0905014E0FFEF54FEFFEFF0905015E0FFEF54FEFFEFF09000727401F00246D49000C31294C1C8
:40458000129242FFEF64056003024686905037E0FFEF4401FFEFF0905012E0FFEF4401FFEFF0905035E0FFEF54FEFFEFF0905036E0FFEF54FEFFEFF090507DE0FFEF54FEFE
:4045C000FFEFF0905062E0FFEF54FEFFEFF0905063E0FFEF54FEFFEFF0905031E0FFEF54FEFFEFF0905022E0FFEF54FEFFEFF0905021E0FFEF54FEFFEFF0905020E0FFEF80
:4046000054FEFFEFF0905016E0FFEF54FEFFEFF0905030E0FFEF54FEFFEFF0905027E0FFEF54FEFFEFF0905026E0FFEF54FEFFEFF0905025E0FFEF54FEFFEFF0905024E058
:40464000FFEF54FEFFEFF0905010E0FFEF54FEFFEFF0905033E0FFEF54FEFFEFF0905032E0FFEF54FEFFEFF0905014E0FFEF54FEFFEFF0905015E0FFEF54FEFFEFF0900098
:40468000727401F0804E9000C31294C1129242FFEFB40F089000727401F0803890007AE4F090007AE0FFEFD3941F501990007AE0FF74F32FF582E43400F583E4F090007AD4
:4046C000E004F080DC900079E4F0900074E4F0900072E4F0900070E0FF90004AE0FEEE5FFF900072E0FEEEB401047E0180027E00EE5FFFEF60227BFF7AAF79B612AE48126D
:40470000B2227E00EF30E1F7900072E4F0900070E4F090004AE4F02290004AE0FFEF70167BFF7AAF79CC12AE4812B2227E00EF20E11680F580127BFF7AAF79BB12AE481236
:40474000B2227E00EF30E1F7900070E0FFEF70167BFF7AAF79CC12AE4812B2227E00EF20E11680F580127BFF7AAF79BB12AE4812B2227E00EF30E1F7900072E0FFEF7016AB
:404780007BFF7AAF79CC12AE4812B2227E00EF20E11680F580127BFF7AAF79BB12AE4812B2227E00EF30E1F77BFF7AAF79BD12AE4812B2227E00EF30E1F7900072E4F090BC
:4047C0000070E4F090004AE4F0229000C4E475F0011292D49000C31294C1129242FFEF640360030248E1905035E0FFEF4401FFEFF0905012E0FFEF4401FFEFF0905036E02D
:40480000FFEF54FEFFEFF0905037E0FFEF54FEFFEFF090507DE0FFEF54FEFFEFF0905062E0FFEF54FEFFEFF0905063E0FFEF54FEFFEFF0905031E0FFEF54FEFFEFF090507A
:4048400022E0FFEF54FEFFEFF0905021E0FFEF54FEFFEFF0905020E0FFEF54FEFFEFF0905016E0FFEF54FEFFEFF0905030E0FFEF54FEFFEFF0905027E0FFEF54FEFFEFF014
:40488000905026E0FFEF54FEFFEFF0905025E0FFEF54FEFFEFF0905024E0FFEF54FEFFEFF0905010E0FFEF54FEFFEFF0905033E0FFEF54FEFFEFF0905032E0FFEF54FEFFBF
:4048C000EFF0905014E0FFEF54FEFFEFF0905015E0FFEF54FEFFEFF09000727401F0024B489000C31294C1129242FFEF640460030249EE905036E0FFEF4401FFEFF090507F
:4049000012E0FFEF4401FFEFF0905035E0FFEF54FEFFEFF0905037E0FFEF54FEFFEFF090507DE0FFEF54FEFFEFF0905062E0FFEF54FEFFEFF0905063E0FFEF54FEFFEFF070
:40494000905031E0FFEF54FEFFEFF0905022E0FFEF54FEFFEFF0905021E0FFEF54FEFFEFF0905020E0FFEF54FEFFEFF0905016E0FFEF54FEFFEFF0905030E0FFEF54FEFF08
:40498000EFF0905027E0FFEF54FEFFEFF0905026E0FFEF54FEFFEFF0905025E0FFEF54FEFFEFF0905024E0FFEF54FEFFEFF0905010E0FFEF54FEFFEFF0905033E0FFEF54E7
:4049C000FEFFEFF0905032E0FFEF54FEFFEFF0905014E0FFEF54FEFFEFF0905015E0FFEF54FEFFEFF09000727401F0024B489000C31294C1129242FFEF64056003024AFA4A
:404A0000905037E0FFEF4401FFEFF0905012E0FFEF4401FFEFF0905035E0FFEF54FEFFEFF0905036E0FFEF54FEFFEFF090507DE0FFEF54FEFFEFF0905062E0FFEF54FEFFA8
:404A4000EFF0905063E0FFEF54FEFFEFF0905031E0FFEF54FEFFEFF0905022E0FFEF54FEFFEFF0905021E0FFEF54FEFFEFF0905020E0FFEF54FEFFEFF0905016E0FFEF54F2
:404A8000FEFFEFF0905030E0FFEF54FEFFEFF0905027E0FFEF54FEFFEFF0905026E0FFEF54FEFFEFF0905025E0FFEF54FEFFEFF0905024E0FFEF54FEFFEFF0905010E0FF2F
:404AC000EF54FEFFEFF0905033E0FFEF54FEFFEFF0905032E0FFEF54FEFFEFF0905014E0FFEF54FEFFEFF0905015E0FFEF54FEFFEFF09000727401F0804E9000C31294C1A2
:404B0000129242FFEFB40F089000727401F0803890007AE4F090007AE0FFEFD3941F501990007AE0FF74F32FF582E43400F583E4F090007AE004F080DC900079E4F0900011
:404B400074E4F0900072E4F09000C4E475F0011292D49000C31294C1129242FFEF64016003024C3D905011E0FFEF4401FFEFF090507DE0FFEF54FEFFEFF0905062E0FFEFD3
:404B800054FEFFEFF0905063E0FFEF54FEFFEFF0905031E0FFEF54FEFFEFF0905022E0FFEF54FEFFEFF0905021E0FFEF54FEFFEFF0905020E0FFEF54FEFFEFF0905016E0A2
:404BC000FFEF54FEFFEFF0905030E0FFEF54FEFFEFF0905027E0FFEF54FEFFEFF0905026E0FFEF54FEFFEFF0905025E0FFEF54FEFFEFF0905024E0FFEF54FEFFEFF090509B
:404C000010E0FFEF54FEFFEFF0905033E0FFEF54FEFFEFF0905032E0FFEF54FEFFEFF0905014E0FFEF54FEFFEFF0905015E0FFEF54FEFFEFF090004A7401F0806E9000C3E0
:404C40001294C1129242FFEF7013905011E0FFEF54FEFFEFF090004A7401F0804E9000C31294C1129242FFEFB40F0890004A7401F0803890007AE4F090007AE0FFEFD3940D
:404C80001F501990007AE0FF74F32FF582E43400F583E4F090007AE004F080DC900079E4F0900074E4F090004AE4F09000C4E475F0011292D49000C31294C1129242FFEFD1
:404CC0006003024DCB905034E0FFEF4401FFEFF0905013E0FFEF4401FFEFF0905017E0FFEF4401FFEFF090507CE0FFEF54FEFFEFF0905065E0FFEF54FEFFEFF090507DE08C
:404D0000FFEF54FEFFEFF0905062E0FFEF54FEFFEFF0905063E0FFEF54FEFFEFF0905031E0FFEF54FEFFEFF0905022E0FFEF54FEFFEFF0905021E0FFEF54FEFFEFF09050E6
:404D400020E0FFEF54FEFFEFF0905016E0FFEF54FEFFEFF0905030E0FFEF54FEFFEFF0905027E0FFEF54FEFFEFF0905026E0FFEF54FEFFEFF0905025E0FFEF54FEFFEFF007
:404D8000905024E0FFEF54FEFFEFF0905010E0FFEF54FEFFEFF0905033E0FFEF54FEFFEFF0905032E0FFEF54FEFFEFF0905014E0FFEF54FEFFEFF0905015E0FFEF54FEFFDC
:404DC000EFF09000707401F00250489000C31294C1129242FFEF64016003024EE390507CE0FFEF4401FFEFF0905013E0FFEF4401FFEFF0905017E0FFEF4401FFEFF0905053
:404E000034E0FFEF54FEFFEFF0905065E0FFEF54FEFFEFF090507DE0FFEF54FEFFEFF0905062E0FFEF54FEFFEFF0905063E0FFEF54FEFFEFF0905031E0FFEF54FEFFEFF012
:404E4000905022E0FFEF54FEFFEFF0905021E0FFEF54FEFFEFF0905020E0FFEF54FEFFEFF0905016E0FFEF54FEFFEFF0905030E0FFEF54FEFFEFF0905027E0FFEF54FEFF0D
:404E8000EFF0905026E0FFEF54FEFFEFF0905025E0FFEF54FEFFEFF0905024E0FFEF54FEFFEFF0905010E0FFEF54FEFFEFF0905033E0FFEF54FEFFEFF0905032E0FFEF54D7
:404EC000FEFFEFF0905014E0FFEF54FEFFEFF0905015E0FFEF54FEFFEFF09000707401F00250489000C31294C1129242FFEF64026003024FFA905065E0FFEF4401FFEFF01A
:404F0000905013E0FFEF4401FFEFF0905017E0FFEF4401FFEFF0905034E0FFEF54FEFFEFF090507CE0FFEF54FEFFEFF090507DE0FFEF54FEFFEFF0905062E0FFEF54FEFF7D
:404F4000EFF0905063E0FFEF54FEFFEFF0905031E0FFEF54FEFFEFF0905022E0FFEF54FEFFEFF0905021E0FFEF54FEFFEFF0905020E0FFEF54FEFFEFF0905016E0FFEF54ED
:404F8000FEFFEFF0905030E0FFEF54FEFFEFF0905027E0FFEF54FEFFEFF0905026E0FFEF54FEFFEFF0905025E0FFEF54FEFFEFF0905024E0FFEF54FEFFEFF0905010E0FF2A
:404FC000EF54FEFFEFF0905033E0FFEF54FEFFEFF0905032E0FFEF54FEFFEFF0905014E0FFEF54FEFFEFF0905015E0FFEF54FEFFEFF09000707401F0804E9000C31294C19F
:40500000129242FFEFB40F089000707401F0803890007AE4F090007AE0FFEFD3941F501990007AE0FF74F32FF582E43400F583E4F090007AE004F080DC900079E4F090000E
:4050400074E4F0900070E4F090004AE0FF900072E0FEEE5FFF900070E0FEEEB401047E0180027E00EE5FFFEF60227BFF7AAF79B612AE4812B2227E00EF30E1F7900070E455
:40508000F090004AE4F0900072E4F022900072E0FFEF70167BFF7AAF79CC12AE4812B2227E00EF20E11680F580127BFF7AAF79BB12AE4812B2227E00EF30E1F790004AE0AF
:4050C000FFEF70167BFF7AAF79CC12AE4812B2227E00EF20E11680F580127BFF7AAF79BB12AE4812B2227E00EF30E1F7900070E0FFEF70167BFF7AAF79CC12AE4812B22277
:405100007E00EF20E11680F580127BFF7AAF79BB12AE4812B2227E00EF30E1F77BFF7AAF79BD12AE4812B2227E00EF30E1F7900070E4F090004AE4F0900072E4F022900064
:40514000C4E475F0011292D49000C31294C1129242FFEF600302525E905034E0FFEF4401FFEFF0905013E0FFEF4401FFEFF0905017E0FFEF4401FFEFF090507CE0FFEF54B7
:40518000FEFFEFF0905065E0FFEF54FEFFEFF090507DE0FFEF54FEFFEFF0905062E0FFEF54FEFFEFF0905063E0FFEF54FEFFEFF0905031E0FFEF54FEFFEFF0905022E0FF04
:4051C000EF54FEFFEFF0905021E0FFEF54FEFFEFF0905020E0FFEF54FEFFEFF0905016E0FFEF54FEFFEFF0905030E0FFEF54FEFFEFF0905027E0FFEF54FEFFEFF090502686
:40520000E0FFEF54FEFFEFF0905025E0FFEF54FEFFEFF0905024E0FFEF54FEFFEFF0905010E0FFEF54FEFFEFF0905033E0FFEF54FEFFEFF0905032E0FFEF54FEFFEFF090CC
:405240005014E0FFEF54FEFFEFF0905015E0FFEF54FEFFEFF09000707401F00254DB9000C31294C1129242FFEF6401600302537690507CE0FFEF4401FFEFF0905013E0FF03
:40528000EF4401FFEFF0905017E0FFEF4401FFEFF0905034E0FFEF54FEFFEFF0905065E0FFEF54FEFFEFF090507DE0FFEF54FEFFEFF0905062E0FFEF54FEFFEFF0905063C1
:4052C000E0FFEF54FEFFEFF0905031E0FFEF54FEFFEFF0905022E0FFEF54FEFFEFF0905021E0FFEF54FEFFEFF0905020E0FFEF54FEFFEFF0905016E0FFEF54FEFFEFF09020
:405300005030E0FFEF54FEFFEFF0905027E0FFEF54FEFFEFF0905026E0FFEF54FEFFEFF0905025E0FFEF54FEFFEFF0905024E0FFEF54FEFFEFF0905010E0FFEF54FEFFEFE3
:40534000F0905033E0FFEF54FEFFEFF0905032E0FFEF54FEFFEFF0905014E0FFEF54FEFFEFF0905015E0FFEF54FEFFEFF09000707401F00254DB9000C31294C1129242FF02
:40538000EF6402600302548D905065E0FFEF4401FFEFF0905013E0FFEF4401FFEFF0905017E0FFEF4401FFEFF0905034E0FFEF54FEFFEFF090507CE0FFEF54FEFFEFF09054
:4053C000507DE0FFEF54FEFFEFF0905062E0FFEF54FEFFEFF0905063E0FFEF54FEFFEFF0905031E0FFEF54FEFFEFF0905022E0FFEF54FEFFEFF0905021E0FFEF54FEFFEF43
:40540000F0905020E0FFEF54FEFFEFF0905016E0FFEF54FEFFEFF0905030E0FFEF54FEFFEFF0905027E0FFEF54FEFFEFF0905026E0FFEF54FEFFEFF0905025E0FFEF54FE4E
:40544000FFEFF0905024E0FFEF54FEFFEFF0905010E0FFEF54FEFFEFF0905033E0FFEF54FEFFEFF0905032E0FFEF54FEFFEFF0905014E0FFEF54FEFFEFF0905015E0FFEF88
:4054800054FEFFEFF09000707401F0804E9000C31294C1129242FFEFB40F089000707401F0803890007AE4F090007AE0FFEFD3941F501990007AE0FF74F32FF582E4340060
:4054C000F583E4F090007AE004F080DC900079E4F0900074E4F0900070E4F09000C4E475F0011292D49000C31294C1129242FFEF640160030255D0905011E0FFEF4401FF07
:40550000EFF090507DE0FFEF54FEFFEFF0905062E0FFEF54FEFFEFF0905063E0FFEF54FEFFEFF0905031E0FFEF54FEFFEFF0905022E0FFEF54FEFFEFF0905021E0FFEF547E
:40554000FEFFEFF0905020E0FFEF54FEFFEFF0905016E0FFEF54FEFFEFF0905030E0FFEF54FEFFEFF0905027E0FFEF54FEFFEFF0905026E0FFEF54FEFFEFF0905025E0FF62
:40558000EF54FEFFEFF0905024E0FFEF54FEFFEFF0905010E0FFEF54FEFFEFF0905033E0FFEF54FEFFEFF0905032E0FFEF54FEFFEFF0905014E0FFEF54FEFFEFF0905015D4
:4055C000E0FFEF54FEFFEFF090004A7401F0806E9000C31294C1129242FFEF7013905011E0FFEF54FEFFEFF090004A7401F0804E9000C31294C1129242FFEFB40F0890008A
:405600004A7401F0803890007AE4F090007AE0FFEFD3941F501990007AE0FF74F32FF582E43400F583E4F090007AE004F080DC900079E4F0900074E4F090004AE4F09000D7
:40564000C4E475F0011292D49000C31294C1129242FFEF64036003025755905035E0FFEF4401FFEFF0905012E0FFEF4401FFEFF0905036E0FFEF54FEFFEFF0905037E0FFAB
:40568000EF54FEFFEFF090507DE0FFEF54FEFFEFF0905062E0FFEF54FEFFEFF0905063E0FFEF54FEFFEFF0905031E0FFEF54FEFFEFF0905022E0FFEF54FEFFEFF0905021DF
:4056C000E0FFEF54FEFFEFF0905020E0FFEF54FEFFEFF0905016E0FFEF54FEFFEFF0905030E0FFEF54FEFFEFF0905027E0FFEF54FEFFEFF0905026E0FFEF54FEFFEFF09013
:405700005025E0FFEF54FEFFEFF0905024E0FFEF54FEFFEFF0905010E0FFEF54FEFFEFF0905033E0FFEF54FEFFEFF0905032E0FFEF54FEFFEFF0905014E0FFEF54FEFFEFE3
:40574000F0905015E0FFEF54FEFFEFF09000727401F00259BC9000C31294C1129242FFEF64046003025862905036E0FFEF4401FFEFF0905012E0FFEF4401FFEFF0905035B4
:40578000E0FFEF54FEFFEFF0905037E0FFEF54FEFFEFF090507DE0FFEF54FEFFEFF0905062E0FFEF54FEFFEFF0905063E0FFEF54FEFFEFF0905031E0FFEF54FEFFEFF0905B
:4057C0005022E0FFEF54FEFFEFF0905021E0FFEF54FEFFEFF0905020E0FFEF54FEFFEFF0905016E0FFEF54FEFFEFF0905030E0FFEF54FEFFEFF0905027E0FFEF54FEFFEF25
:40580000F0905026E0FFEF54FEFFEFF0905025E0FFEF54FEFFEFF0905024E0FFEF54FEFFEFF0905010E0FFEF54FEFFEFF0905033E0FFEF54FEFFEFF0905032E0FFEF54FE3E
:40584000FFEFF0905014E0FFEF54FEFFEFF0905015E0FFEF54FEFFEFF09000727401F00259BC9000C31294C1129242FFEF6405600302596E905037E0FFEF4401FFEFF0902C
:405880005012E0FFEF4401FFEFF0905035E0FFEF54FEFFEFF0905036E0FFEF54FEFFEFF090507DE0FFEF54FEFFEFF0905062E0FFEF54FEFFEFF0905063E0FFEF54FEFFEF82
:4058C000F0905031E0FFEF54FEFFEFF0905022E0FFEF54FEFFEFF0905021E0FFEF54FEFFEFF0905020E0FFEF54FEFFEFF0905016E0FFEF54FEFFEFF0905030E0FFEF54FE88
:40590000FFEFF0905027E0FFEF54FEFFEFF0905026E0FFEF54FEFFEFF0905025E0FFEF54FEFFEFF0905024E0FFEF54FEFFEFF0905010E0FFEF54FEFFEFF0905033E0FFEFAC
:4059400054FEFFEFF0905032E0FFEF54FEFFEFF0905014E0FFEF54FEFFEFF0905015E0FFEF54FEFFEFF09000727401F0804E9000C31294C1129242FFEFB40F0890007274FE
:4059800001F0803890007AE4F090007AE0FFEFD3941F501990007AE0FF74F32FF582E43400F583E4F090007AE004F080DC900079E4F0900074E4F0900072E4F090004AE0C0
:4059C000FF900070E0FEEE5FFF900072E0FEEEB401047E0180027E00EE5FFFEF60227BFF7AAF79B612AE4812B2227E00EF30E1F7900072E4F090004AE4F0900070E4F0220C
:405A0000900070E0FFEF70167BFF7AAF79CC12AE4812B2227E00EF20E11680F580127BFF7AAF79BB12AE4812B2227E00EF30E1F790004AE0FFEF70167BFF7AAF79CC12AEA1
:405A40004812B2227E00EF20E11680F580127BFF7AAF79BB12AE4812B2227E00EF30E1F7900072E0FFEF70167BFF7AAF79CC12AE4812B2227E00EF20E11680F580127BFF02
:405A80007AAF79BB12AE4812B2227E00EF30E1F77BFF7AAF79BD12AE4812B2227E00EF30E1F7900072E4F090004AE4F0900070E4F0229000C4E475F0011292D49000C312F5
:405AC00094C1129242FFEF600E9000C31294C1129242FFEFB401279000C31294C1129242FF900145EFF07BFF7AAF79B612AE4812B2227E00EF30E10302720480F222900074
:405B0000C31294C1129242FFEFB40F187BFF7AAF79B612AE4812B2227E00EF30E10302720480F22290007AE4F090007AE0FFEFD3941F501990007AE0FF74F32FF582E4348C
:405B400000F583E4F090007AE004F080DC900079E4F0900074E4F07BFF7AAF79BF12AE4812B2227E00EF30E10302720480F22212992D7BFF7AAF79B612AE4812B2227E007E
:405B8000EF30E10302720480F2229000C4E475F0011292D49000C31294C1129242FFEF64017023905013E0FFEF4401FFEFF07BFF7AAF79B612AE4812B2227E00EF30E10315
:405BC00002720480F2229000C31294C1129242FFEF64037023905014E0FFEF4401FFEFF07BFF7AAF79B612AE4812B2227E00EF30E10302720480F2229000C31294C1129281
:405C000042FFEF64047023905014E0FFEF4401FFEFF07BFF7AAF79B612AE4812B2227E00EF30E10302720480F2229000C31294C1129242FFEF64057023905014E0FFEF4477
:405C400001FFEFF07BFF7AAF79B612AE4812B2227E00EF30E10302720480F2229000C31294C1129242FFEF64067023905014E0FFEF4401FFEFF07BFF7AAF79B612AE48129C
:405C8000B2227E00EF30E10302720480F2229000C31294C1129242FFEF64077023905011E0FFEF4401FFEFF07BFF7AAF79B612AE4812B2227E00EF30E10302720480F222C8
:405CC0009000C31294C1129242FFEF64097023905062E0FFEF4401FFEFF07BFF7AAF79B612AE4812B2227E00EF30E10302720480F2229000C31294C1129242FFEF64107024
:405D000023905062E0FFEF4401FFEFF07BFF7AAF79B612AE4812B2227E00EF30E10302720480F2229000C31294C1129242FFEF6411702390507DE0FFEF4401FFEFF07BFF62
:405D40007AAF79B612AE4812B2227E00EF30E10302720480F2229000C31294C1129242FFEF64127023905031E0FFEF4401FFEFF07BFF7AAF79B612AE4812B2227E00EF305A
:405D8000E10302720480F2229000C31294C1129242FFEF64137023905062E0FFEF4401FFEFF07BFF7AAF79B612AE4812B2227E00EF30E10302720480F2229000C31294C121
:405DC000129242FFEF64147023905017E0FFEF4401FFEFF07BFF7AAF79B612AE4812B2227E00EF30E10302720480F2229000C31294C1129242FFEF64157023905027E0FF0F
:405E0000EF4401FFEFF07BFF7AAF79B612AE4812B2227E00EF30E10302720480F2229000C31294C1129242FFEF64167023905063E0FFEF4401FFEFF07BFF7AAF79B612AEA2
:405E40004812B2227E00EF30E10302720480F2229000C31294C1129242FFEF64177023905026E0FFEF4401FFEFF07BFF7AAF79B612AE4812B2227E00EF30E103027204809B
:405E8000F2229000C31294C1129242FFEF64187023905062E0FFEF4401FFEFF07BFF7AAF79B612AE4812B2227E00EF30E10302720480F2229000C31294C1129242FFEF64BF
:405EC000197023905025E0FFEF4401FFEFF07BFF7AAF79B612AE4812B2227E00EF30E10302720480F2229000C31294C1129242FFEF64207023905024E0FFEF4401FFEFF019
:405F00007BFF7AAF79B612AE4812B2227E00EF30E10302720480F2229000C31294C1129242FFEF64217023905022E0FFEF4401FFEFF07BFF7AAF79B612AE4812B2227E003D
:405F4000EF30E10302720480F2229000C31294C1129242FFEF64227023905021E0FFEF4401FFEFF07BFF7AAF79B612AE4812B2227E00EF30E10302720480F2229000C312C7
:405F800094C1129242FFEF64237023905020E0FFEF4401FFEFF07BFF7AAF79B612AE4812B2227E00EF30E10302720480F2229000C31294C1129242FFEF64247023905016C1
:405FC000E0FFEF4401FFEFF07BFF7AAF79B612AE4812B2227E00EF30E10302720480F2229000C31294C1129242FFEF64257023905030E0FFEF4401FFEFF07BFF7AAF79B6E6
:4060000012AE4812B2227E00EF30E10302720480F2229000C31294C1129242FFEF64267023905031E0FFEF4401FFEFF07BFF7AAF79B612AE4812B2227E00EF30E103027283
:406040000480F2229000C31294C1129242FFEF64277023905017E0FFEF4401FFEFF07BFF7AAF79B612AE4812B2227E00EF30E10302720480F2229000C31294C1129242FF08
:40608000EF6436702390507CE0FFEF4401FFEFF07BFF7AAF79B612AE4812B2227E00EF30E10302720480F2229000C31294C1129242FFEF64377023905034E0FFEF4401FF48
:4060C000EFF07BFF7AAF79B612AE4812B2227E00EF30E10302720480F2229000C31294C1129242FFEF64387023905065E0FFEF4401FFEFF07BFF7AAF79B612AE4812B222C1
:406100007E00EF30E10302720480F2229000C31294C1129242FFEF6439702390507CE0FFEF4401FFEFF07BFF7AAF79B612AE4812B2227E00EF30E10302720480F2229000EA
:40614000C31294C1129242FFEF64407023905065E0FFEF4401FFEFF07BFF7AAF79B612AE4812B2227E00EF30E10302720480F2229000C31294C1129242FFEFB40F187BFF84
:406180007AAF79B612AE4812B2227E00EF30E10302720480F22290007AE4F090007AE0FFEFD3941F501990007AE0FF74F32FF582E43400F583E4F090007AE004F080DC9043
:4061C0000079E4F0900074E4F07BFF7AAF79BF12AE4812B2227E00EF30E10302720480F2229000C4E475F0011292D49000C31294C1129242FFEF64017023905035E0FFEFA5
:406200004401FFEFF07BFF7AAF79B612AE4812B2227E00EF30E10302720480F2229000C31294C1129242FFEF64027023905036E0FFEF4401FFEFF07BFF7AAF79B612AE4886
:4062400012B2227E00EF30E10302720480F2229000C31294C1129242FFEF64037023905012E0FFEF4401FFEFF07BFF7AAF79B612AE4812B2227E00EF30E10302720480F215
:40628000229000C31294C1129242FFEF64047023905037E0FFEF4401FFEFF07BFF7AAF79B612AE4812B2227E00EF30E10302720480F2229000C31294C1129242FFEF6405E7
:4062C0007023905036E0FFEF4401FFEFF07BFF7AAF79B612AE4812B2227E00EF30E10302720480F2229000C31294C1129242FFEF64067023905037E0FFEF4401FFEFF07BA9
:40630000FF7AAF79B612AE4812B2227E00EF30E10302720480F2229000C31294C1129242FFEF64087023905015E0FFEF4401FFEFF07BFF7AAF79B612AE4812B2227E00EFEB
:4063400030E10302720480F2229000C31294C1129242FFEF64097023905033E0FFEF4401FFEFF07BFF7AAF79B612AE4812B2227E00EF30E10302720480F2229000C3129425
:40638000C1129242FFEF64107023905015E0FFEF4401FFEFF07BFF7AAF79B612AE4812B2227E00EF30E10302720480F2229000C31294C1129242FFEF64117023905015E0A3
:4063C000FFEF4401FFEFF07BFF7AAF79B612AE4812B2227E00EF30E10302720480F2229000C31294C1129242FFEF64127023905033E0FFEF4401FFEFF07BFF7AAF79B612C0
:40640000AE4812B2227E00EF30E10302720480F2229000C31294C1129242FFEF64137023905010E0FFEF4401FFEFF07BFF7AAF79B612AE4812B2227E00EF30E103027204C1
:4064400080F2229000C31294C1129242FFEF64147023905015E0FFEF4401FFEFF07BFF7AAF79B612AE4812B2227E00EF30E10302720480F2229000C31294C1129242FFEF2E
:4064800064157023905032E0FFEF4401FFEFF07BFF7AAF79B612AE4812B2227E00EF30E10302720480F2229000C31294C1129242FFEF64167023905032E0FFEF4401FFEFD2
:4064C000F07BFF7AAF79B612AE4812B2227E00EF30E10302720480F2229000C31294C1129242FFEFB40F187BFF7AAF79B612AE4812B2227E00EF30E10302720480F2229019
:40650000007AE4F090007AE0FFEFD3941F501990007AE0FF74F32FF582E43400F583E4F090007AE004F080DC900079E4F0900074E4F07BFF7AAF79BF12AE4812B2227E00B6
:40654000EF30E10302720480F2229000C4E475F0011292D49000C31294C1129242FFEF64017023905013E0FFEF54FEFFEFF07BFF7AAF79B612AE4812B2227E00EF30E1033E
:4065800002720480F2229000C31294C1129242FFEF64037023905014E0FFEF54FEFFEFF07BFF7AAF79B612AE4812B2227E00EF30E10302720480F2229000C31294C11292AA
:4065C00042FFEF64047023905014E0FFEF54FEFFEFF07BFF7AAF79B612AE4812B2227E00EF30E10302720480F2229000C31294C1129242FFEF64057023905014E0FFEF5491
:40660000FEFFEFF07BFF7AAF79B612AE4812B2227E00EF30E10302720480F2229000C31294C1129242FFEF64067023905014E0FFEF54FEFFEFF07BFF7AAF79B612AE4812C8
:40664000B2227E00EF30E10302720480F2229000C31294C1129242FFEF64077023905011E0FFEF54FEFFEFF07BFF7AAF79B612AE4812B2227E00EF30E10302720480F222F1
:406680009000C31294C1129242FFEF64097023905062E0FFEF54FEFFEFF07BFF7AAF79B612AE4812B2227E00EF30E10302720480F2229000C31294C1129242FFEF6410704D
:4066C00023905062E0FFEF54FEFFEFF07BFF7AAF79B612AE4812B2227E00EF30E10302720480F2229000C31294C1129242FFEF6411702390507DE0FFEF54FEFFEFF07BFF7F
:406700007AAF79B612AE4812B2227E00EF30E10302720480F2229000C31294C1129242FFEF64127023905031E0FFEF54FEFFEFF07BFF7AAF79B612AE4812B2227E00EF3083
:40674000E10302720480F2229000C31294C1129242FFEF64137023905062E0FFEF54FEFFEFF07BFF7AAF79B612AE4812B2227E00EF30E10302720480F2229000C31294C14A
:40678000129242FFEF64147023905017E0FFEF54FEFFEFF07BFF7AAF79B612AE4812B2227E00EF30E10302720480F2229000C31294C1129242FFEF64157023905027E0FF38
:4067C000EF54FEFFEFF07BFF7AAF79B612AE4812B2227E00EF30E10302720480F2229000C31294C1129242FFEF64167023905063E0FFEF54FEFFEFF07BFF7AAF79B612AEBF
:406800004812B2227E00EF30E10302720480F2229000C31294C1129242FFEF64177023905026E0FFEF54FEFFEFF07BFF7AAF79B612AE4812B2227E00EF30E10302720480C4
:40684000F2229000C31294C1129242FFEF64187023905062E0FFEF54FEFFEFF07BFF7AAF79B612AE4812B2227E00EF30E10302720480F2229000C31294C1129242FFEF64E8
:40688000197023905025E0FFEF54FEFFEFF07BFF7AAF79B612AE4812B2227E00EF30E10302720480F2229000C31294C1129242FFEF64207023905024E0FFEF54FEFFEFF035
:4068C0007BFF7AAF79B612AE4812B2227E00EF30E10302720480F2229000C31294C1129242FFEF64217023905022E0FFEF54FEFFEFF07BFF7AAF79B612AE4812B2227E0067
:40690000EF30E10302720480F2229000C31294C1129242FFEF64227023905021E0FFEF54FEFFEFF07BFF7AAF79B612AE4812B2227E00EF30E10302720480F2229000C312F0
:4069400094C1129242FFEF64237023905020E0FFEF54FEFFEFF07BFF7AAF79B612AE4812B2227E00EF30E10302720480F2229000C31294C1129242FFEF64247023905016EA
:40698000E0FFEF54FEFFEFF07BFF7AAF79B612AE4812B2227E00EF30E10302720480F2229000C31294C1129242FFEF64257023905030E0FFEF54FEFFEFF07BFF7AAF79B602
:4069C00012AE4812B2227E00EF30E10302720480F2229000C31294C1129242FFEF64267023905031E0FFEF54FEFFEFF07BFF7AAF79B612AE4812B2227E00EF30E1030272AD
:406A00000480F2229000C31294C1129242FFEF64277023905017E0FFEF54FEFFEFF07BFF7AAF79B612AE4812B2227E00EF30E10302720480F2229000C31294C1129242FF31
:406A4000EF6436702390507CE0FFEF54FEFFEFF07BFF7AAF79B612AE4812B2227E00EF30E10302720480F2229000C31294C1129242FFEF64377023905034E0FFEF54FEFF64
:406A8000EFF07BFF7AAF79B612AE4812B2227E00EF30E10302720480F2229000C31294C1129242FFEF64387023905065E0FFEF54FEFFEFF07BFF7AAF79B612AE4812B222EA
:406AC0007E00EF30E10302720480F2229000C31294C1129242FFEF6439702390507CE0FFEF54FEFFEFF07BFF7AAF79B612AE4812B2227E00EF30E10302720480F222900014
:406B0000C31294C1129242FFEF64407023905065E0FFEF54FEFFEFF07BFF7AAF79B612AE4812B2227E00EF30E10302720480F2229000C31294C1129242FFEFB40F187BFFAD
:406B40007AAF79B612AE4812B2227E00EF30E10302720480F22290007AE4F090007AE0FFEFD3941F501990007AE0FF74F32FF582E43400F583E4F090007AE004F080DC9079
:406B80000079E4F0900074E4F07BFF7AAF79BF12AE4812B2227E00EF30E10302720480F2229000C4E475F0011292D49000C31294C1129242FFEF64017023905035E0FFEFDB
:406BC00054FEFFEFF07BFF7AAF79B612AE4812B2227E00EF30E10302720480F2229000C31294C1129242FFEF64027023905036E0FFEF54FEFFEFF07BFF7AAF79B612AE48A3
:406C000012B2227E00EF30E10302720480F2229000C31294C1129242FFEF64037023905012E0FFEF54FEFFEFF07BFF7AAF79B612AE4812B2227E00EF30E10302720480F23E
:406C4000229000C31294C1129242FFEF64047023905037E0FFEF54FEFFEFF07BFF7AAF79B612AE4812B2227E00EF30E10302720480F2229000C31294C1129242FFEF640510
:406C80007023905036E0FFEF54FEFFEFF07BFF7AAF79B612AE4812B2227E00EF30E10302720480F2229000C31294C1129242FFEF64067023905037E0FFEF54FEFFEFF07BC5
:406CC000FF7AAF79B612AE4812B2227E00EF30E10302720480F2229000C31294C1129242FFEF64087023905015E0FFEF54FEFFEFF07BFF7AAF79B612AE4812B2227E00EF15
:406D000030E10302720480F2229000C31294C1129242FFEF64097023905033E0FFEF54FEFFEFF07BFF7AAF79B612AE4812B2227E00EF30E10302720480F2229000C312944E
:406D4000C1129242FFEF64107023905015E0FFEF54FEFFEFF07BFF7AAF79B612AE4812B2227E00EF30E10302720480F2229000C31294C1129242FFEF64117023905015E0CC
:406D8000FFEF54FEFFEFF07BFF7AAF79B612AE4812B2227E00EF30E10302720480F2229000C31294C1129242FFEF64127023905033E0FFEF54FEFFEFF07BFF7AAF79B612DC
:406DC000AE4812B2227E00EF30E10302720480F2229000C31294C1129242FFEF64137023905010E0FFEF54FEFFEFF07BFF7AAF79B612AE4812B2227E00EF30E103027204EB
:406E000080F2229000C31294C1129242FFEF64147023905015E0FFEF54FEFFEFF07BFF7AAF79B612AE4812B2227E00EF30E10302720480F2229000C31294C1129242FFEF57
:406E400064157023905032E0FFEF54FEFFEFF07BFF7AAF79B612AE4812B2227E00EF30E10302720480F2229000C31294C1129242FFEF64167023905032E0FFEF54FEFFEFEE
:406E8000F07BFF7AAF79B612AE4812B2227E00EF30E10302720480F2229000C31294C1129242FFEFB40F187BFF7AAF79B612AE4812B2227E00EF30E10302720480F222904F
:406EC000007AE4F090007AE0FFEFD3941F501990007AE0FF74F32FF582E43400F583E4F090007AE004F080DC900079E4F0900074E4F07BFF7AAF79BF12AE4812B2227E00ED
:406F0000EF30E10302720480F2227BFF7AAF79B612AE4812B2227E00EF30E1F7905121E0FF90006BEFF012AD7390006BE0FF12A9C012B2227E00EF30E1F7905141E0FF90DF
:406F4000006BEFF090006BE0FFEF54F7FF90006BEFF090006BE0FF12A9C012B2227E00EF30E1F7905161E0FF90006BEFF090006BE0FF12A9C012B2227E00EF30E1F790519E
:406F8000C1E0FF900065EFF0900065E0FFEF542CFF900065EFF0900065E0FFEF25E025E0FF900065EFF09051F1E0FF900067EFF0900067E0FFEF5430FF900067EFF0900072
:406FC00067E0FFEF1313543FFF900067EFF0900065E0FF900067E0FEEE4FFF900078EFF0900078E0FF12A9C012B2227E00EF30E10302720480F2229000C4E475F0011292EB
:40700000D49000C31294C1129242FFEF6401702712AD3B7D017F9B7E00129B5E12B0477BFF7AAF79B612AE4812B2227E00EF30E10302720480F2229000C31294C1129242E1
:40704000FFEF6402702712AD3B7D017F4D7E00129B5E12B0477BFF7AAF79B612AE4812B2227E00EF30E10302720480F2229000C31294C1129242FFEF6403702712AD3B7DFF
:40708000017F257E00129B5E12B0477BFF7AAF79B612AE4812B2227E00EF30E10302720480F2229000C31294C1129242FFEF6404702712AD3B7D017F197E00129B5E12B064
:4070C000477BFF7AAF79B612AE4812B2227E00EF30E10302720480F2229000C31294C1129242FFEF6405702712AD3B7D017F0C7E00129B5E12B0477BFF7AAF79B612AE48FF
:4071000012B2227E00EF30E10302720480F2229000C31294C1129242FFEFB40F187BFF7AAF79B612AE4812B2227E00EF30E10302720480F22290007AE4F090007AE0FFEF70
:40714000D3941F501990007AE0FF74F32FF582E43400F583E4F090007AE004F080DC900079E4F0900074E4F07BFF7AAF79BF12AE4812B2227E00EF30E10302720480F22281
:407180009000C4E475F0011292D49000C31294C1129242FFEFB4FF0412B1D6229000C31294C1129242FFEFB40F157BFF7AAF79B612AE4812B2227E00EF20E14880F52290B6
:4071C000007AE4F090007AE0FFEFD3941F501990007AE0FF74F32FF582E43400F583E4F090007AE004F080DC900079E4F0900074E4F07BFF7AAF79BF12AE4812B2227E00EA
:40720000EF30E1F7229000D7E4F09000D8E4F09000D9E4F09000DDE4F07F011298CE12A8E79000D6EFF09000D7E0FFEF6003027FD19000D6E0FFEF64FF704790007AE4F04C
